:100000000C94D0160C9401170C9401170C94011742
:100010000C9401170C9401170C9401170C94011700
:100020000C9401170C9401170C9401170C940117F0
:100030000C9401170C9401170C9401170C940117E0
:100040000C9401170C94E4700C9401170C94011794
:100050000C9401170C9401170C9422570C944BCF5D
:100060000C9401170C9464A10C9401170C940117C3
:100070000C9401170C9401170C9401170C940117A0
:100080000C9401170C9401170C9401170C94011790
:100090000C9401170C9401170C9401170C94011780
:1000A0000C9401170C9401170C9401170C94011770
:1000B0000C9401170C9401170C9401170C94011760
:1000C0000C9401170C9401170C9401170C94011750
:1000D0000C9401170C9401170C9401170C94011740
:1000E0000C940117084AD73B3BCE016E84BCBFFD80
:1000F000C12F3D6C74319ABD56833DDA3D00C77FF8
:1001000011BED9E4BB4C3E916BAAAABE0000008090
:100110003F05A84CCDB2D44EB93836A9020C50B91F
:10012000918688083CA6AAAA2ABE000000803F004B
:100130004E414E494E495459494E46CDCCCC3D0ACC
:10014000D7233C17B7D13877CC2B329595E6241FAF
:10015000B14F0A000020410000C84200401C462068
:10016000BCBE4CCA1B0E5AAEC59D74290A57726993
:1001700074652066696C65206E616D653A200020AB
:1001800062797465733B206372632000506F7765FA
:10019000726F66662053746F726564202800202198
:1001A0003D2000637263206572726F723A20000A0C
:1001B000726561642066696C65206E616D653A20C8
:1001C00000290A726561642066696C652064697241
:1001D0003A20002062797465733B206372632000CB
:1001E000706F7765726F66662073746F72656420D6
:1001F00073657474696E677320726574726965766D
:100200006564202800202863616C63756C617465E7
:100210006429210A0020213D2000454550524F4DC0
:1002200020435243206D69736D61746368202D20F3
:100230002873746F726564292000290A002062798E
:100240007465733B2063726320002073746F726562
:10025000642073657474696E677320726574726963
:1002600065766564202800204D61726C696E3D568C
:10027000313231290A0028454550524F4D3D004545
:100280004550524F4D2076657273696F6E206D69CF
:10029000736D61746368200048617264636F6465A4
:1002A000642044656661756C742053657474696E6E
:1002B0006773204C6F616465640A00F4010000F408
:1002C00001000064000000E80300000000FA4300A1
:1002D00000FA430000A0400000C8419A99A0429A49
:1002E00099A0420000C8430080C543204400204933
:1002F0000020204D3330342050002044002049009D
:1003000020204D3330312050005049442073657413
:1003100074696E67733A0A00204600204200204844
:100320000020204D3134352053004D6174657269D1
:10033000616C2068656174757020706172616D65B3
:10034000746572733A0A00204500205A0020590053
:1003500020580020420020540020204D323035200B
:100360005300416476616E6365643A20533C6D6965
:100370006E5F66656564726174653E20543C6D69AC
:100380006E5F74726176656C5F66656564726174D8
:10039000653E20423C6D696E5F7365676D656E7486
:1003A0005F74696D655F75733E20583C6D61785F61
:1003B00078795F6A65726B3E205A3C6D61785F7A2E
:1003C0005F6A65726B3E20453C6D61785F655F6A70
:1003D00065726B3E0A0020540020520020204D32EE
:1003E0003034205000416363656C65726174696FDD
:1003F0006E2028756E6974732F7332293A20503C31
:100400007072696E745F616363656C3E20523C720A
:100410006574726163745F616363656C3E20543C14
:1004200074726176656C5F616363656C3E0A00207F
:100430004500205A0020590020204D3230312058EC
:10044000004D6178696D756D20416363656C6572FF
:100450006174696F6E2028756E6974732F73322909
:100460003A0A00204500205A0020590020204D3231
:1004700030332058004D6178696D756D2066656573
:100480006472617465732028756E6974732F7329A3
:100490003A0A00204500205A0020590020204D39FA
:1004A0003220580053746570732070657220756E29
:1004B00069743A0A0020204D3230302044300A005E
:1004C00020204D3230302044002044697361626C3A
:1004D00065640A0046696C616D656E7420736574AD
:1004E00074696E67733A0020204D313439204320FF
:1004F0003B20556E69747320696E2043656C736987
:1005000075730A002020473231202020203B2055DF
:100510006E69747320696E206D6D0A007A5F6D6973
:100520006E3A2000795F6D696E3A2000785F6D69E0
:100530006E3A20005265706F7274696E6720656E46
:100540006473746F70207374617475730A0020741F
:100550006F6F206C6F6E6720657874727573696F4A
:100560006E2070726576656E7465640A0020636F34
:100570006C6420657874727573696F6E2070726533
:1005800076656E7465640A0024F4D43050C38E20FE
:10059000C2A24017828B7011127A910D816CD90A18
:1005A000A861E108C7586607615143061E4B5D0507
:1005B000C145A7041A411104093D9803713931035B
:1005C0004036DB0265339102D4305402802E1D0286
:1005D000632CEE01752AC501B028A0011027810106
:1005E0008F2564012B244B01E0223401AC211F0133
:1005F0008D200D01801FFC00841EED00971DDF0083
:10060000B81CD200E61BC600201BBC00641AB20056
:10061000B219A8000A19A0006A189900D117910010
:1006200040178B00B516840031167E00B315790093
:100630003A157300C7146F0058146A00EE13660071
:100640008813630025135E00C7125B006C1257000D
:1006500015125400C111510070114F0021114B00AF
:10066000D61049008D104700461044000210420089
:10067000C00F4000800F3E00420F3C00060F3B00C1
:10068000CB0E3800930E37005C0E3500270E340079
:10069000F30D3200C10D3100900D3000600D2E00C1
:1006A000320D2D00050D2C00D90C2B00AE0C2900AD
:1006B000850C29005C0C2700350C27000E0C260049
:1006C000E80B2400C40B2400A00B23007D0B2300A7
:1006D0005A0B2100390B2100180B2000F80A1F00CB
:1006E000D90A1E00BB0A1E009D0A1D00800A1D00BB
:1006F000630A1C00470A1B002C0A1B00110A1A007F
:10070000F7091A00DD091900C4091900AB0919001D
:10071000920917007B091800630917004C0916009D
:1007200036091600200916000A091500F5081500FB
:10073000E0081400CC081400B8081400A408140041
:10074000900813007D0812006B081300580812006F
:100750004608120034081100230811001208110085
:1007600001081100F0071000E0071000D00710008A
:10077000C0071000B0070F00A107100091070E007E
:1007800083070F0074070F0065070E0057070E0060
:1007900049070E003B070D002E070E0020070D0035
:1007A00013070D0006070D00F9060C00ED060D00FD
:1007B000E0060C00D4060C00C8060C00BC060C00B9
:1007C000B0060C00A4060B0099060C008D060B0069
:1007D00082060B0077060B006C060B0061060A0010
:1007E00057060B004C060A0042060A0038060A00AB
:1007F0002E060A0024060A001A060A00100609003E
:1008000007060A00FD050900F4050900EB050900CB
:10081000E2050900D9050900D0050900C70509004E
:10082000BE050900B5050800AD050800A5050900CD
:100830009C050800940508008C0508008405080044
:100840007C050800740508006C05070065050800B4
:100850005D050700560508004E050700470507001F
:100860004005080038050700310507002A05070084
:10087000230507001C050600160507000F050700E5
:100880000805060002050700FB040600F504070042
:10089000EE040600E8040600E2040700DB0406009C
:1008A000D5040600CF040600C9040600C3040600F0
:1008B000BD040600B7040600B1040500AC04060040
:1008C000A6040600A00405009B040600950405008C
:1008D000900406008A0405008504050080040600D3
:1008E0007A04050075040500700405006B0405001A
:1008F00066040500610405005C040500570405005A
:10090000520405004D040500480405004304050099
:100910003E0404003A0405003504050030040400D8
:100920002C04050027040400230405001E04040011
:100930001A04040016040500110404000D04040048
:10094000090405000404040000040400FC0304007E
:10095000F8030400F4030400F0030400EC030400B3
:10096000E8030400E4030400E0030400DC030400E3
:10097000D8030400D4030400D0030400CC03040013
:10098000C8030300C503030024F404D9201BC40CCE
:100990005C0E9804C4095F0265077101F405F90053
:1009A000FB04B30048048700C103690058035500E5
:1009B00003034500BE023A008402310053022A00BC
:1009C0002902250004022000E4011C00C8011900CE
:1009D000AF01170098011400840113007101100089
:1009E0006101100051010E0043010D0036010B00A2
:1009F0002B010B0020010B00150109000C0109005F
:100A000003010800FB000800F3000800EB000700EA
:100A1000E4000600DE000600D8000600D200060052
:100A2000CC000500C7000500C2000500BD000400A1
:100A3000B9000400B5000400B1000400AD000400DA
:100A4000A9000400A5000300A20003009F00040009
:100A50009B00030098000300950002009300030030
:100A6000900003008D0002008B000300880002004C
:100A70008600020084000300810002007F00020063
:100A80007D0002007B000200790002007700010077
:100A90007600020074000200720001007100020082
:100AA0006F0002006D0001006C0002006A0001008E
:100AB0006900020067000100660001006500010096
:100AC000640002006200010061000100600001009A
:100AD0005F0002005D0001005C0001005B0001009E
:100AE0005A000100590001005800010057000100A0
:100AF00056000100550001005400010053000000A1
:100B0000530001005200010051000100500001009B
:100B10004F0001004E0000004E0001004D0001009A
:100B20004C0001004B0000004B0001004A00010096
:100B30004900010048000000480001004700010092
:100B4000460000004600010045000000450001008D
:100B50004400010043000000430001004200000087
:100B6000420001004100000041000100400001007E
:100B70003F0000003F0001003E0000003E00010079
:100B80003D0000003D0001003C0000003C00000072
:100B90003C0001003B0000003B0001003A00000067
:100BA0003A0001003900000039000100380000005F
:100BB0003800000038000100370000003700010055
:100BC000360000003600000036000100350000004D
:100BD0003500000035000100340000003400000042
:100BE0003400010033000000330000003300010036
:100BF000320000003200000032000100310000002D
:100C00003100000031000100300000003000000021
:100C1000300001002F0000002F0000002F00000016
:100C20002F0001002E0000002E0000002E00010009
:100C30002D0000002D0000002D0000002D000100FF
:100C40002C0000002C0000002C0000002C000100F3
:100C50002B0000002B0000002B0000002B000100E7
:100C60002A0000002A0000002A0000002A000100DB
:100C700029000000290000002900000029000000D0
:100C800029000100280000002800000028000000C2
:100C900028000000280001002700000027000000B5
:100CA00027000000270000002700010026000000A8
:100CB000260000002600000026000000260001009B
:100CC0002500000025000000250000002500000090
:100CD0002500000025000100240000002400000081
:100CE0002400000024000000240001002300000074
:100CF0002300000023000000230000002300000068
:100D00002300000023000100220000002200000058
:100D1000220000002200000022000000220001004A
:100D2000210000002100000021000000210000003F
:100D3000210000002100000021000100200000002F
:100D40002000000020000000200000002000000023
:100D50002000000020000000200001001F00000013
:100D60001F0000001F0000001F0000001F00000007
:100D70001F0000001F0001001E0000001E000000F8
:100D80001E0000001E0000004D383420582059205D
:100D90005A2045005A25752C45256C752C50256C1C
:100DA000752C5425752C4225752C004D61676E619C
:100DB000204475616C206C697374612E004D61670D
:100DC0006E61204475616C206C697374612E0045FE
:100DD00072723A4E6F2046696C616D656E74006286
:100DE00065640A002C2073797374656D2073746FC9
:100DF0007070656421204865617465725F49443A8A
:100E000020004572726F723A20616C2063616C65DC
:100E10006E7461720048656174696E67206661690D
:100E20006C6564004572726F723A20616C20636178
:100E30006C656E7461720048656174696E672066E6
:100E400061696C65640070012C0190012701B0019B
:100E50002201C0011D01F00118011002130130022E
:100E60000E016002090190020401C002FF000003AC
:100E7000FA004003F5008003F000D003EB002004EB
:100E8000E6007004E100E004DC004005D700C00586
:100E9000D2004006CD00D006C8008007C30030084D
:100EA000BE00F008B900C009B400B00AAF00B00B32
:100EB000AA00D00CA500000EA000500F9B00C0108F
:100EC00096005012910000148C00C0158700B017D6
:100ED0008200B0197D00D01B7800001E73004020F6
:100EE0006E0090226900F024640040275F00902982
:100EF0005A00E02B5500102E500020304B001032CD
:100F00004600E033410090353C0010373700703820
:100F10003200A0392D00B03A2800A03B2300603CED
:100F20001E00103D1900903D1400103E0F00703E51
:100F30000A00C03E0500003F0000403FFBFF803F2D
:100F4000F6FFC03FF1FF4572726F723A2054656D33
:100F500070204D696E20506C6174004572726F7222
:100F60003A2054656D70204D696E696D61004D4980
:100F70004E54454D50207472696767657265640010
:100F80004572726F723A2054656D70204D61782001
:100F9000506C6174004572726F723A2054656D70C6
:100FA000204D6178696D61004D415854454D502088
:100FB00074726967676572656400202F0020424083
:100FC0003A0020403A00001C1F11111F00000006CB
:100FD000191803130C00040E1F041C00000000105D
:100FE0001010101010000014141414141400001524
:100FF000151515151500000E1315110E00001C1007
:10100000181705060500040A0A0A0A11110E0C1227
:10101000120C00000000001F1511151F0000000039
:101020000000010204040000001C1C0C0404040263
:1010300001000000000004081000000000004D3115
:101040003034205325750047393220452575004737
:101050003932205A25752E2575004D353030004324
:10106000616E63656C207072696E74005265616EAA
:101070007564617220696D70726573696F6E00507E
:101080006F776572206F75746167650025753A2505
:1010900030327500253032753A25303275002D2DED
:1010A0002D005344005A004D782025643B256425CB
:1010B0002520004D785E25643B25642525200053BE
:1010C00074617274205A3A202534642E2564206D90
:1010D0006D002020456E64205A3A202534642E2568
:1010E00064206D6D00285A203C3D2025642E256427
:1010F00029005374617274206D69783A2025336435
:10110000252520253364252500285A203E3D20250D
:10111000642E256429002020456E64206D69783A8C
:101120002025336425252025336425250046756C4C
:101130006C206772616469656E74002533643B25B9
:1011400033642525002020456E64206D69783A00BF
:101150002533643B25336425250053746172742064
:101160006D69783A004772616469656E7400253470
:10117000642E2564206D6D002020456E64205A3A4F
:10118000002534642E2564206D6D005374617274E3
:10119000205A3A004772616469656E74206D6978FF
:1011A000004D69786572004D69783A20202020252D
:1011B0003364252520253364252500477261646941
:1011C000656E7400546F67676C65206D69780025E3
:1011D00033643B2533642525004D6978004D656EE9
:1011E00075207072696E636970616C005072696E0F
:1011F0007420706175736564004D313235000025CF
:1012000073004D323400496D70726573696F6E20E2
:1012100063616E63656C61646100473238205859C0
:1012200000473930004731204631303030205A32C3
:101230003000473931004E6F206861792074617247
:101240006A657461205344004D656E7520646520A5
:10125000534400446574656E657220696D707265F3
:1012600073696F6E005265616E7564617220696D9D
:1012700070726573696F6E00496E662E20496D70DD
:101280007265736F72610050617573617220696D70
:1012900070726573696F6E004D6978657200436F97
:1012A0006E74726F6C005072657061726172004191
:1012B0006A757374617200496E666F726D616369FD
:1012C0006F6E004D6963726F7061736F205A004DCD
:1012D0003630302042300043616D626961722066B1
:1012E000696C616D656E746F004D6963726F7061DA
:1012F000736F205A00466C756A6F00466C756A6F92
:101300000056656E74696C61646F720056656E7428
:10131000696C61646F7200506C617461666F726DAC
:101320006100506C617461666F726D6100426F7133
:1013300075696C6C6100426F7175696C6C61005607
:10134000656C6F63696461640056656C6F636964A2
:101350006164004D656E75207072696E63697061BD
:101360006C0050726563616C656E74617220504CE4
:101370004120456E640050726563616C656E7461F6
:101380007220504C41506C617461666F726D6100E7
:1013900050726563616C656E74617220504C4100DF
:1013A00050726570617261720050726563616C6544
:1013B0006E7461722041425320456E640050726524
:1013C00063616C656E74617220414253506C61744C
:1013D00061666F726D610050726563616C656E74F9
:1013E00061722041425300507265706172617200F7
:1013F0004174726173004E65787420636F726E651C
:10140000720050726563616C656E74617220504C3D
:101410004100456E66726961720043616D62696187
:10142000722066696C616D656E746F0050726563E1
:10143000616C656E74617220414253004170616756
:101440006172206D6F746F726573004D3834004C9B
:101450006576656C20636F726E657273004C6C65A7
:1014600076617220616C206F726967656E00473229
:1014700038004D6F76657220656A6573004D656E44
:1014800075207072696E636970616C004D6F76656E
:10149000722058004D6F7665722059004D6F766549
:1014A00072205A004578747275736F72004D6F76B2
:1014B000657220302E316D6D004D6F766572203172
:1014C0006D6D004D6F7665722031306D6D004D6F22
:1014D00076657220656A657300486F74656E642076
:1014E000746F6F20636F6C64004578747275736FEE
:1014F00072004D6F766572205A004D6F76657220CE
:1015000059004D6F76657220580045787472757376
:101510006F72004D6F766572205A004D6F7665725E
:101520002059004D6F7665722058005072657061C9
:1015300072617200496E697469616C697A652045EF
:101540004550524F4D00436F6E74726F6C00526580
:1015500073746175726172206D656D6F726961007F
:10156000436172676172206D656D6F7269610047DA
:10157000756172646172206D656D6F726961004999
:101580006E697469616C697A6520454550524F4DAA
:101590000046696C616D656E746F004D6F76696DA4
:1015A00069656E746F0054656D70657261747572F3
:1015B00061004D656E75207072696E636970616C53
:1015C000004D33303320553120452569205325699E
:1015D0000050726563616C656E74617220414253A4
:1015E000436F6E6669670050726563616C656E7407
:1015F000617220504C41436F6E66696700504944E8
:10160000204175746F74756E6500504944204175B2
:10161000746F74756E65005049442D440050494400
:101620002D44005049442D49005049442D49005053
:1016300049442D50005049442D500020022046615D
:1016400063740020022046616374002002204D6113
:1016500078002002204D6178002002204D696E0044
:101660002002204D696E0041706167617200456E15
:1016700063656E6465720054656D70657261747542
:101680007261204175746F2E0056656E74696C61CD
:10169000646F720056656E74696C61646F7200509D
:1016A0006C617461666F726D6100506C617461662B
:1016B0006F726D6100426F7175696C6C6100426F91
:1016C0007175696C6C6100436F6E74726F6C00476A
:1016D000756172646172206D656D6F726961005031
:1016E0006C617461666F726D6100506C61746166EB
:1016F0006F726D6100426F7175696C6C6100426F51
:101700007175696C6C610056656E74696C61646FAB
:10171000720056656E74696C61646F720054656D19
:1017200070657261747572610056656C2E20766901
:10173000616A65206D696E0056656C2E2076696160
:101740006A65206D696E00566D696E00566D696E32
:1017500000566D61784500566D61784500566D61A3
:10176000785A00566D61785A00566D617859005666
:101770006D61785900566D61785800566D617858E2
:10178000004D6F76696D69656E746F004163656CBD
:101790002E206D617845004163656C2E206D617867
:1017A00045004163656C2E206D61785A0041636588
:1017B0006C2E206D61785A004163656C2E206D613E
:1017C0007859004163656C2E206D61785900416342
:1017D000656C2E206D617858004163656C2E206D1C
:1017E000617858004163656C2E205669616A650016
:1017F0004163656C2E205669616A65004163656CC2
:101800002E207265747261632E004163656C2E2018
:101810007265747261632E004163656C6572616309
:10182000696F6E004163656C65726163696F6E001C
:101830004D6F76696D69656E746F0056652D6A65CA
:10184000726B0056652D6A65726B00567A2D6A655B
:10185000726B00567A2D6A65726B0056792D6A6537
:10186000726B0056792D6A65726B0056782D6A6529
:10187000726B0056782D6A65726B004D6F76696DDC
:1018800069656E746F0045207061736F732F6D6DA5
:101890000045207061736F732F6D6D005A20706169
:1018A000736F732F6D6D005A207061736F732F6D9E
:1018B0006D0059207061736F732F6D6D005920702A
:1018C00061736F732F6D6D0058207061736F732F8C
:1018D0006D6D0058207061736F732F6D6D004D6FCB
:1018E00076696D69656E746F005061736F732F6DEB
:1018F0006D004A65726B004163656C657261636976
:101900006F6E0056656C6F6369747900436F6E7417
:10191000726F6C00456E63656E6465720052756E21
:101920006F75742073656E736F72730046696C2EE9
:10193000204469612E0046696C2E204469612E00A6
:1019400041706167617200456E63656E6465720027
:101950004520696E206D6D330041706167617200D2
:10196000436F6E74726F6C00434F4D4D554E49433B
:101970004154494F4E0044525952554E004552521F
:101980004F525300494E464F004543484F00506167
:101990007261646120646520656D657267656E6360
:1019A000696100446574656E696461005072696EB6
:1019B0007465722073746F7070656420647565203F
:1019C000746F206572726F72732E2046697820746E
:1019D0006865206572726F7220616E642075736530
:1019E000204D39393920746F2072657374617274B7
:1019F0002E202854656D706572617475726520695A
:101A0000732072657365742E205365742069742089
:101A100061667465722072657374617274696E6751
:101A2000290A004E6F20436865636B73756D2077DC
:101A3000697468206C696E65206E756D6265722CC4
:101A4000204C617374204C696E653A2000636865B0
:101A5000636B73756D206D69736D617463682C20A1
:101A60004C617374204C696E653A20004C696E6558
:101A7000204E756D626572206973206E6F74204C04
:101A8000617374204C696E65204E756D6265722BB2
:101A9000312C204C617374204C696E653A20004DE6
:101AA000313130004D333100473120463130303054
:101AB00020583020593231300047323820585900F0
:101AC00053442072656164206572726F720A00442B
:101AD0006F6E65207072696E74696E672066696CDE
:101AE000650A0020496E76616C69642065787472BD
:101AF0007564657220004D3132350044656C657443
:101B0000696F6E206661696C65642C2046696C653E
:101B10003A200046696C652064656C657465643ABA
:101B2000006F70656E206661696C65642C20466983
:101B30006C653A200043616C656E74616D69656E19
:101B4000746F206C6973746F0020573A00452569E3
:101B5000202573004D61676E61204475616C206CB7
:101B6000697374612E00205A3A0020593A002043CC
:101B70006F756E7420583A0020453A00205A3A009A
:101B800020593A00583A003A004361703A004B64D9
:101B9000200023646566696E6520204445464155F2
:101BA0004C545F004B69200023646566696E6520B4
:101BB0002044454641554C545F004B70200023643F
:101BC0006566696E65202044454641554C545F006A
:101BD000504944204175746F74756E652066696E56
:101BE0006973686564212050757420746865206C81
:101BF000617374204B702C204B6920616E64204B04
:101C00006420636F6E7374616E74732066726F6D9F
:101C10002062656C6F7720696E746F20436F6E660B
:101C2000696775726174696F6E2E680A0050494465
:101C3000204175746F74756E65206661696C6564AA
:101C4000212074696D656F75740A004572726F7238
:101C50003A2074656D7065726174757261005468C4
:101C600065726D616C2052756E61776179004572A5
:101C7000726F723A20616C2063616C656E74617280
:101C80000048656174696E67206661696C6564000F
:101C9000504944204175746F74756E6520666169A2
:101CA0006C6564212054656D706572617475726530
:101CB00020746F6F20686967680A00204B643A20BF
:101CC00000204B693A2000204B703A20000A204344
:101CD0006C617373696320504944200A0020547575
:101CE0003A2000204B753A2000206D61783A2000A0
:101CF000206D696E3A200020643A200020626961FC
:101D0000733A20004F464600252900257C002028F4
:101D100000252920746F205A00257C002028004FC0
:101D20004E2066726F6D205A004772616469656E5D
:101D300074204D6978200020746F6F206C6F6E677F
:101D400020657874727573696F6E20707265766540
:101D50006E7465640A0020636F6C64206578747229
:101D60007573696F6E2070726576656E7465640A4E
:101D70000054454D5020544F4F204C4F57210047A1
:101D8000322F47332062616420706172616D657427
:101D90006572730A005265706F736F2E2E2E00529B
:101DA0006573756D69656E646F20696D7072652EFF
:101DB000004D61676E61204475616C206C697374BD
:101DC000612E004573706572616E646F206F72647E
:101DD000656E65730053696E206D6F76696D696518
:101DE0006E746F00456E642066696C65206C697363
:101DF000740A00426567696E2066696C65206C69CB
:101E000073740A002569730025696D2025697300C4
:101E10002569682025696D2025697300256964207E
:101E20002569682025696D20256973002569792059
:101E3000256964202569682025696D20256973005E
:101E40005072696E742074696D653A200050726F2B
:101E50007465637465642050696E0A0045256920C5
:101E60002573004D61676E61204475616C206C695B
:101E70007374612E006F666600891984197D197666
:101E800019681944454255473A00506172616461CE
:101E900020646520656D657267656E636961004DDC
:101EA0003131332053006F6B00506C617461666F89
:101EB000726D612043616C69656E74650020573AEC
:101EC0000043616C656E74616E646F20506C617468
:101ED0002E2E2E004D61676E61204475616C20418D
:101EE00070616761722E00454D455247454E43591A
:101EF0005F50415253455200434153455F4C49475F
:101F000048545F4252494748544E45535300544F3A
:101F100047474C455F4C494748545300534F46543C
:101F2000574152455F504F574552004255494C4426
:101F30005F50455243454E54004C4556454C494E22
:101F4000475F44415441005A5F50524F424500415F
:101F500055544F4C4556454C005052494E545F4ADB
:101F60004F420050524F4752455353004155544F32
:101F70005245504F52545F54454D5000564F4C55AA
:101F80004D455452494300454550524F4D0053452D
:101F90005249414C5F584F4E5F584F4646004649A4
:101FA000524D574152455F4E414D453A4D61726C1D
:101FB000696E20312E312E382E33202847697468FF
:101FC00075622920534F555243455F434F44455F47
:101FD00055524C3A68747470733A2F2F676974685D
:101FE00075622E636F6D2F4D61726C696E466972FA
:101FF0006D776172652F4D61726C696E2050524F22
:10200000544F434F4C5F56455253494F4E3A312E31
:1020100030204D414348494E455F545950453A4D53
:1020200061676E61204475616C2045585452554477
:1020300045525F434F554E543A3120555549443A25
:1020400063656465326132662D343161322D343717
:1020500034382D396231322D63353563363266338B
:10206000363766660A002F2F20004D313435205355
:102070003C696E6465783E206F7574206F662072CF
:10208000616E67652028302D31290A005761726E14
:10209000696E673A204D697820666163746F727368
:1020A000206D7573742061646420757020746F20D6
:1020B000312E302E205363616C696E672E0A0053F7
:1020C000657474696E672054726176656C20416333
:1020D00063656C65726174696F6E3A200053657454
:1020E00074696E6720526574726163742041636322
:1020F000656C65726174696F6E3A20005365747423
:10210000696E67205072696E7420416363656C6507
:10211000726174696F6E3A200053657474696E67FA
:10212000205072696E7420616E642054726176650D
:102130006C20416363656C65726174696F6E3A20EF
:1021400000205A00205900580020204D61783A2084
:1021500000205A00205900580020204D696E3A2076
:1021600000456E63656E64657200417061676172FF
:1021700000536F667420656E6473746F70733A20D9
:1021800000000125272318FF1F211D1CFF19171B05
:102190001EFFFF0C0409FFFFFF2E2C0CFFFF312F49
:1021A0003004400AFF41FFFFFFFFFFFF20643A00B9
:1021B00020693A0020703A0020643A0020693A0011
:1021C00020703A0043290A0061626C656420286D22
:1021D000696E2074656D702000436F6C64206578B3
:1021E0007472756465732061726520004361736564
:1021F000206C696768743A2000290A00466978658E
:102200006420706172616D657465722062797465B5
:10221000733B2063726320004669786564207061B7
:1022200072616D6574657220280048565F7365742D
:102230005F6F6B0A00556E6B6E6F776E20636F6D0C
:102240006D616E643A202200526573656E643A20B7
:10225000006F6B00627573793A2070617573656405
:1022600020666F7220696E7075740A0062757379EA
:102270003A2070617573656420666F7220757365AE
:10228000720A00627573793A2070726F63657373B6
:10229000696E670A0050617261646120646520653F
:1022A0006D657267656E636961004B494C4C2063D4
:1022B000617573656420627920746F6F206D75633A
:1022C0006820696E6163746976652074696D652044
:1022D0002D2063757272656E7420636F6D6D616E13
:1022E000643A2000506F72206661766F722C207203
:1022F00065696E6963696500494D505245534F5297
:102300004120504152414441005072696E746572DF
:102310002068616C7465642E206B696C6C282920C0
:1023200063616C6C6564210A00000000C10000005C
:10233000C1000000000000C8420000C8420000A028
:1023400041000000005761726E696E673A20486F65
:102350006D696E672042756D702044697669736F90
:1023600072203C20310A000202040000A04000005C
:10237000A0400000004000006443000064430000EF
:102380008243FFFFFF4D36303020486F74656E6426
:1023900020746F6F20636F6C6420746F20636861BA
:1023A0006E67652066696C616D656E740A007C3CC1
:1023B0003E5E2B3D3F2F5B5D3B2C2A225C0045722D
:1023C000726F722077726974696E6720746F20452E
:1023D0004550524F4D210A00290A00206279746548
:1023E000733B20637263200053657474696E677376
:1023F0002053746F72656420280043616E6E6F74A1
:1024000020656E746572207375626469723A20008B
:10241000052E2E004D656E75207072696E636970B1
:10242000616C0054656D7065726174757261206DC8
:102430006178696D613A203132350054656D70659F
:10244000726174757261206D696E696D613A2035D3
:1024500000544265643A4550434F53203130304B6D
:102460000054656D7065726174757261206D61787C
:10247000696D613A203236350054656D7065726160
:1024800074757261206D696E696D613A2035005412
:10249000303A204550434F53203130304B00467581
:1024A000656E746520646520706F6465723A2047BC
:1024B000656E657269630050726F746F636F6C6FE5
:1024C0003A20312E300020202020485720566572B7
:1024D0003A2056004657205665723A2056322E3121
:1024E0000042617564696F733A20323530303030A4
:1024F000004754323536302056342E30004578743B
:102500007275736F7265733A203100687474703A33
:102510002F2F68656C6C626F742E78797A004D612C
:10252000676E61204475616C00323031372D313275
:102530002D32352031323A303000312E312E382EC6
:1025400033004D61726C696E005465726D6973740D
:102550006F72657300496E662E20436F6E74726FE2
:102560006C61646F7200496E662E20496D707265F1
:10257000736F7261004D656E75207072696E63696C
:1025800070616C002020426F7175696C6C613A203B
:102590000041747261730054656D70204D696E69FD
:1025A0006D61206573203137302E004572726F7275
:1025B0003A20616C2063616C656E746172004578CD
:1025C0007472756972206D617300526573756D69FF
:1025D0007220696D702E004F50432E205245494E97
:1025E0004943494F3A002020426F7175696C6C6114
:1025F0003A200063616D626961720064656C2066F7
:10260000696C616D656E746F004573706572616EA3
:10261000646F20696E696369617200494D50522E82
:102620002050415553414441002020426F7175694B
:102630006C6C613A200066696C616D656E746F2028
:10264000657870756C7361646F0045737065726155
:10265000646F20706F7200494D50522E20504155CA
:1026600053414441002020426F7175696C6C613A9E
:10267000200045737065726520706F722066617608
:102680006F720043616C656E74616E646F20626F7F
:102690007175696C6C6100494D50522E2050415546
:1026A00053414441002020426F7175696C6C613A5E
:1026B000200043616C656E746172206C6120626FF2
:1026C0007175696C6C61004F7072696D6120626F29
:1026D000746F6E207061726100494D50522E20500F
:1026E000415553414441002020426F7175696C6C23
:1026F000613A20007061726120636F6E74696E755B
:1027000061722E2E2E00792070726573696F6E656E
:1027100020656C20626F746F6E00496E7365727411
:10272000652066696C616D656E746F00494D50522D
:102730002E2050415553414441002020426F717575
:10274000696C6C613A20004361726761722066694E
:102750006C616D656E746F00457370657261646F56
:1027600020706F7200494D50522E205041555341F8
:102770004441002020426F7175696C6C613A200001
:10278000457874727569722066696C616D656E74E6
:102790006F00457370657261646F20706F720049DD
:1027A0004D50522E205041555341444100706172AA
:1027B0006120726573756D69720045737065726131
:1027C0006E646F20696D702E00494D50522E20505E
:1027D000415553414441005461726A6574612072ED
:1027E00065746972616461005461726A6574612024
:1027F000636F6C6F63616461000000210024002737
:10280000002A002D00300033000101000004010700
:10281000010A0100002200250028002B002E0031B3
:1028200000340002010000050108010B0100002036
:10283000002300260029002C002F00320000010098
:10284000000301060109010505050507050808083B
:1028500008020202020A0A08080404040401010131
:102860000101010101030303030303030304070739
:10287000070C0C0C0C0C0C0C0C02020202060606D7
:1028800006060606060B0B0B0B0B0B0B0B010210BF
:10289000202008081020401020408002010201087A
:1028A000040201010204081020408080402010082A
:1028B0000402018004020180402010080402010883
:1028C00004020101020408102040800102040810E3
:1028D00020408000000A0B02090C0D0E08070304BB
:1028E00001000000000000000000000000000000E7
:1028F00000000000000000000000000000000012C6
:1029000011100000000000000000000000000000A6
:10291000000000000000000000200D46697865649A
:1029200020706172616D65746572206E6279746584
:10293000733B20637263206572726F722000200DFA
:102940000A466978656420706172616D65746572AC
:102950002062797465733B20637263206572726FC5
:10296000722000290A002062797465733B2063722B
:10297000632000466978656420706172616D6574DA
:102980006572202800206861726477617265207624
:10299000657273696F6E3A002D2D2D2D2D2D007CE3
:1029A0004D61726C696E7C002D2D2D2D2D2D0068D2
:1029B0007474703A2F2F68656C6C626F742E78791E
:1029C0007A00687474703A2F2F68656C6C626F744B
:1029D0002E78797A0020312E312E382E33002020A7
:1029E000506C616E6E65724275666665724279748E
:1029F00065733A20002046726565204D656D6F72E3
:102A0000793A2000436F6D70696C65643A204175B6
:102A10006720323220323032300A00207C2041756B
:102A200074686F723A20286E6F6E652C206465663C
:102A300061756C7420636F6E666967290A003230B5
:102A400031372D31322D32352031323A30300020BD
:102A50004C61737420557064617465643A20003170
:102A60002E312E382E330A004D61726C696E0020B3
:102A7000536F6674776172652052657365740A00DE
:102A8000205761746368646F672052657365740AC8
:102A9000002042726F776E206F75742052657365E7
:102AA000740A002045787465726E616C20526573FB
:102AB00065740A00506F77657255700A007374610F
:102AC00072740A006572726F722077726974696E2F
:102AD0006720746F2066696C650A00456E647374C4
:102AE0006F707320256320256320256320256300F4
:102AF000205A3A0020593A0020583A00656E647313
:102B0000746F7073206869743A2000473238205817
:102B10000066696C616D656E74206F75740A004D96
:102B200033322053256C7520212573004D3332201C
:102B300053256C7520212F25732F257300473020D6
:102B40004631303030205A25752E257500473238F1
:102B50002059004732382058004D3130362020535C
:102B6000323535004D313039205430205325750031
:102B70004D3139302053257500446F6E65207361E7
:102B800076696E672066696C652E0A004D323900E1
:102B90005344207072696E74696E6720627974653F
:102BA00020004E6F74205344207072696E74696EF9
:102BB000670A00486F6D65202573257325732069AA
:102BC0006E69632E0020696E69632E0A005A0059EF
:102BD000005800486F6D65200057726974696E6710
:102BE00020746F2066696C653A20006F70656E20F6
:102BF0006661696C65642C2046696C653A20006FDB
:102C000070656E206661696C65642C2046696C6530
:102C10003A200046696C652073656C656374656471
:102C20000A002053697A653A200046696C65206F76
:102C300070656E65643A20006F70656E206661692C
:102C40006C65642C2046696C653A20002066696CCE
:102C5000653A2000646F696E67006672657368008C
:102C60004E6F772000454E4420535542524F5554E5
:102C7000494E450A002220706F7300222070617255
:102C8000656E743A2200535542524F5554494E4591
:102C90002043414C4C207461726765743A220050A5
:102CA000617261646120646520656D657267656E3F
:102CB00063696100747279696E6720746F20636163
:102CC0006C6C207375622D67636F64652066696C38
:102CD0006573207769746820746F6F206D616E79F9
:102CE000206C6576656C732E204D4158206C65769E
:102CF000656C2069733A0053442063617264206FED
:102D00006B0A006F70656E526F6F74206661696C3C
:102D100065640A00766F6C756D652E696E69742046
:102D20006661696C65640A004572726F723A00539D
:102D30004420696E6974206661696C0A0043616EA3
:102D40006E6F74206F70656E207375626469722097
:102D5000006175746F25692E67004D3234004D3265
:102D60003320257300656E7175657565696E672022
:102D700022006563686F3A004572726F723A207480
:102D8000656D706572617475726100546865726D0D
:102D9000616C2052756E6177617900000CF0EEEF86
:102DA00011241FBECFEFD1E2DEBFCDBF00E00CBFCC
:102DB00013E0A0E0B2E0E0EAF8E002E00BBF02C0FE
:102DC00007900D92A03DB107D9F726E1A0EDB3E041
:102DD00001C01D92AA3FB207E1F716E1CFECD6E1A0
:102DE00000E006C021970109802FFE010F94AC037B
:102DF000CE3CD10780E00807A9F70E9407F10D94A7
:102E00003F040C9400002CEA35EC47E25EE360914D
:102E10007F0A7091800A8091810A9091820A0F94B2
:102E200081016093600970936109809362099093B6
:102E3000630908952CEA35EC47E25EE36091830A6A
:102E40007091840A8091850A9091860A0E94F4FC10
:102E5000609364097093650980936609909367098C
:102E6000089560910F0270911002072E000C880BDC
:102E7000990B0E9495FC2AE037ED43E25CE30E9447
:102E8000F4FC209158093091590940915A09509108
:102E90005B090E94F4FC60930B0270930C02809318
:102EA0000D0290930E020895CF92DF92EF92FF925F
:102EB0006091380270913902072E000C880B990B33
:102EC0000E9495FC2AE037ED43E25CE30E94F4FCAB
:102ED0006B017C012DEB37E346E855EB0F94CB02F9
:102EE00087FD0BC02DEB37E346E855E3C701B6017C
:102EF0000E948FFC18160CF049C0A701960160E0F3
:102F000070E080E89FE30F9481016093C30C70939D
:102F1000C40C8093C50C9093C60C60913A027091DA
:102F20003B02072E000C880B990B0E9495FC2AE0AF
:102F300037ED43E25CE30E94F4FC6B017C012DEB76
:102F400037E346E855EB0F94CB0287FD0AC02DEB23
:102F500037E346E855E3C701B6010E948FFC181617
:102F6000CCF4A701960160E070E080E89FE30F9445
:102F700081016093C70C7093C80C8093C90C909327
:102F8000CA0CFF90EF90DF90CF90089560E070E062
:102F9000CB01BBCF60E070E0CB01EBCF90914A0258
:102FA00080914B029817C1F0209146023091470260
:102FB000409148025091490260914202709143024F
:102FC00080914402909145020E948FFC881F8827BF
:102FD000881F80934C02089580E0FBCF880F991FD3
:102FE000880F991FFC01E251F34F408151816281AA
:102FF00073818D54934FFC014083518362837383AB
:10300000E0913509F091360982899389A489B589BF
:103010008093F7099093F809A093F909B093FA09FE
:103020008FEF9FEF90933809809337090895CF92DF
:10303000DF92EF92FF928091BE09882309F457C076
:10304000C090BA09D090BB09E090BC09F090BD09CE
:1030500020E030E0A901C701B6010E948FFC88235F
:1030600009F445C020E030E040E05FE3C701B6016D
:103070000E94F4FC9B01AC010E94F4FC2BED3FE0AC
:1030800049E450E40E94F4FC9B01AC0160E070E074
:1030900080E89FE30F9481016B017C01C092580985
:1030A000D0925909E0925A09F0925B0960910F029F
:1030B00070911002072E000C880B990B0E9495FC52
:1030C0002AE037ED43E25CE30E94F4FCA70196019D
:1030D0000E94F4FC60930B0270930C0280930D022B
:1030E00090930E02FF90EF90DF90CF900895C12C47
:1030F000D12C80E8E82E8FE3F82ED0CF0F931F93CA
:10310000CF93DF930091350910913609F801828140
:103110009381A481B581181619061A061B06E4F4DA
:103120008091F00980FF18C08091C00990B19695F8
:103130009695909590FB80F9982F8093C009809187
:10314000BF098170892341F08091BF0C8160809319
:10315000BF0C90E080E042DFF80186819781A08576
:10316000B185181619061A061B063CF58091F00960
:1031700081FF23C08091C00990B192959695969554
:10318000937021E092279170C92FF0E0DF2FD19545
:10319000C195D109C827C270DD278C278093C0094B
:1031A000C091BF09C270C82341F08091BF0C8260FA
:1031B0008093BF0C81E090E011DFF8018285938558
:1031C000A485B585181619061A061B061CF58091EC
:1031D000F00982FF1FC02091C00986B1082E000CA3
:1031E000990B80959095990F880B982F8227847062
:1031F0009927922F98279093C0098091BF098470D6
:10320000892341F08091BF0C84608093BF0C82E0E1
:1032100090E0E4DE8091C0098093BF09DF91CF91F7
:103220001F910F9108950C9424CC0F931F93CF936B
:10323000DF93CDB7DEB76E970FB6F894DEBF0FBE43
:10324000CDBF809115028F93809114028F931F92AE
:103250001F9281EC95E19F938F938E010F5F1F4F1B
:103260001F930F930E9428FCC8010E9488C30FB6C9
:10327000F894DEBF0FBECDBF6E960FB6F894DEBFDA
:103280000FBECDBFDF91CF911F910F910895CF92C7
:10329000DF92EF92FF92CF93C82F0E9418CC6B0160
:1032A0007C0124EA30E74DE75FE36091750A709195
:1032B000760A8091770A9091780A0E948FFC87FDA8
:1032C00018C08AEF90E0A0E0B0E08C0D9D1DAE1D0F
:1032D000BF1D8093F80B9093F90BA093FA0BB0935A
:1032E000FB0BC0932B02CF91FF90EF90DF90CF901C
:1032F000089580E090E0DC01E8CFCF93DF9300D029
:103300001F92CDB7DEB7882349F00E94B8D70F903F
:103310000F900F900F90DF91CF91089588EB91E07F
:103320009C838B8384E190E09A838983BE016D5FE7
:103330007F4FCE0101960E94A3C5E9CF0E94808BEA
:10334000DCCFEF92FF920F931F93CF93DF9300D0C8
:1033500000D01F921F92CDB7DEB78E010F5F1F4FB7
:10336000D80130E020E0FB01E20FF31FE491ED9380
:103370002F5F3F4F28303105B1F7877028E0829FDB
:10338000C001112480640E94D2C9780188E0E80E4F
:10339000F11CF80161918F0187E393E10E94AFC9AD
:1033A000E016F106B1F728960FB6F894DEBF0FBE0F
:1033B000CDBFDF91CF911F910F91FF90EF900895B6
:1033C0004F925F926F927F92AF92BF92CF92DF92B5
:1033D000EF92FF920F931F93CF93DF938C01EB013A
:1033E000FC0147A450A861A872A8AFA4B8A8C9A8B6
:1033F000DAA89501A601C301B2010E948FFC87FFE4
:103400003EC0A3019201C301B2010E94F4FC2B0152
:103410003C01F80163AD74AD85AD96AD90589B014C
:10342000AC010F94A500F80127A930AD41AD52AD14
:103430000E94F4FC9B01AC01C301B2010F94A400F3
:103440000F9410037B018C019B01AC01B501C601F7
:103450000E948FFC87FF02C0750186019701A801B9
:10346000B501C6010E948FFC882349F0C701D8012D
:103470008FA798ABA9ABBAAB888181608883DF91B5
:10348000CF911F910F91FF90EF90DF90CF90BF9061
:10349000AF907F906F905F904F9008954F925F92A2
:1034A0006F927F928F929F92AF92BF92CF92DF9254
:1034B000EF92FF92CF93DF93CDB7DEB76A970FB647
:1034C000F894DEBF0FBECDBF9A8F898F5B014A0192
:1034D000FC01FF9660817181828193810E9493FC3F
:1034E0006B017C01D5012D913D914D915C910E9424
:1034F000F4FC0F946B010F94EE013B015C01F401AD
:103500002081318142815381C701B6010E94F4FCC0
:103510000F946B010F94EE016D827E82AF82B886AC
:103520002D813E814F815885283731054105510550
:1035300040F428E730E040E050E02D833E834F83A5
:10354000588769837A838B839C8389819A81AB8135
:10355000BC8188379105A105B10540F428E730E02A
:1035600040E050E029833A834B835C83E98DFA8DF8
:10357000E55BFF4F80819181A281B3818D879E871A
:10358000AF87B88BBC01CD010E9495FC69877A8713
:103590008B879C876D817E818F8198850E9493FCAB
:1035A000698B7A8B8B8B9C8B20E030E0A90169853D
:1035B0007A858B859C850E948FFC882309F437C10E
:1035C000A7019601C701B6010E94F4FC4B015C0102
:1035D00029893A894B895C89CA01B9010E94F4FCA6
:1035E0009B01AC01C501B4010F94A4004B015C0127
:1035F00029853A854B855C85CA01B9010F94A500E0
:103600009B01AC01C501B4010F9481010F946B01C2
:103610000F94E9012B013C016D857E858F8598898A
:1036200090958095709561957F4F8F4F9F4F0E9429
:1036300095FC4B015C0169817A818B819C810E94A0
:1036400093FC6D877E878F87988B20E030E0A901FF
:10365000C501B4010E948FFC882309F4ECC02D85BC
:103660003E854F855889CA01B9010E94F4FC6D8BD3
:103670007E8B8F8B988FA7019601C701B6010E94A0
:10368000F4FC9B01AC016D897E898F89988D0F9424
:10369000A4006B017C01A5019401C501B4010F9444
:1036A000A5009B01AC01C701B6010F9481010F94E5
:1036B0001A02A98DBA8D52968D909D90AD90BC90B6
:1036C000559775016401C418D508E608F7080F94EA
:1036D000E901C61AD70AE80AF90AF7FE67C020E02E
:1036E00030E0A90169857A858B859C850E948FFCD5
:1036F000882309F4A4C0C501B4010E9493FC6B01A6
:103700007C0129853A854B855C85CA01B9010F94F6
:10371000A5009B01AC01C701B6010E94F4FC6B013E
:103720007C0129893A894B895C89CA01B9010E94C7
:10373000F4FC9B01AC01C701B6010F94A4006B011E
:103740007C012D853E854F855889CA01B9010E94AB
:10375000F4FC9B01AC01C701B6010F94A5006B01FD
:103760007C0120E030E040E850E469857A858B8573
:103770009C850E94F4FC9B01AC01C701B6010F942B
:1037800081010F946B010F94E9012B013C0177FE3D
:1037900003C0412C512C3201481459046A047B04A3
:1037A00010F024013501C12CD12C76018FB7F8948B
:1037B000E98DFA8D908193FD24C0DF01468E578EEE
:1037C00060A271A2C40CD51CE61CF71CC2A2D3A235
:1037D000E4A2F5A2ED5BFF4F2D813E814F8158851C
:1037E0002083318342835383AD01495B5F4FDA010C
:1037F00029813A814B815C812D933D934D935C935C
:1038000013978FBF6A960FB6F894DEBF0FBECDBF79
:10381000DF91CF91FF90EF90DF90CF90BF90AF906E
:103820009F908F907F906F905F904F90089560E091
:1038300070E0CB01EBCE60E070E0CB0138CF60E010
:1038400070E0CB019ECF2F923F924F925F926F928A
:103850007F928F929F92AF92BF92CF92DF92EF9220
:10386000FF920F931F93CF93DF93CDB7DEB7C05670
:10387000D1090FB6F894DEBF0FBECDBF63969FAFE0
:103880008EAF639729964FAF299727965FAF2797FB
:1038900064966FAF64972A967FAF2A972DA7DC01B5
:1038A0004D915D916D917C91809163139091641322
:1038B000A0916513B09166138A019B01081B190B37
:1038C0002A0B3B0B26960CAF1DAF2EAF3FAF2697B2
:1038D0006396AEADBFAD639714964D915D916D91BA
:1038E0007C9117978091671390916813A091691349
:1038F000B0916A138A019B01081B190B2A0B3B0B21
:103900000EA71FA728AB39AB6396AEADBFAD6397CB
:1039100018964D915D916D917C911B9780916B13E1
:1039200090916C13A0916D13B0916E138A019B015D
:10393000081B190B2A0B3B0B0EAB1FAB28AF39AF83
:103940006396AEADBFAD63971C96CD90DD90ED90C4
:10395000FC901F9780916F1390917013A091711339
:10396000B091721346015701881A990AAA0ABB0A34
:1039700009F498C08091100C811139C060912C021B
:1039800070912D02072E000C880B990B0E9495FC5C
:103990009B01AC0160913313709134138091351306
:1039A000909136130E948FFC87FF21C0C0926F1345
:1039B000D0927013E0927113F092721302E71DE23D
:1039C000F80184910F5F1F4F81110BC00DE615E0C8
:1039D000F80184910F5F1F4F882331F00E94138BF1
:1039E000F7CF0E94138BECCF812C912C54012DA585
:1039F000F4E02F9F80011124055F1D4FC501B40124
:103A00000E9495FCD8012D913D914D915C910E94B1
:103A1000F4FC0F94E9016B017C01F7FE08C0F094FF
:103A2000E094D094C094C11CD11CE11CF11C6091A5
:103A30001A0D70911B0D80911C0D90911D0D0F940E
:103A4000E9019B01AC01A0E9B1E00F948B006C157A
:103A50007D058E059F054CF56396EEADFFAD639732
:103A600084859585A685B78580936F139093701391
:103A7000A0937113B093721302E71DE2F8018491D1
:103A80000F5F1F4F81110BC00EE415E0F801849108
:103A90000F5F1F4F882331F00E94138BF7CF0E94D6
:103AA000138BECCF812C912C540126968CAD9DADBF
:103AB000AEADBFAD26978827B7FD83959927AA2776
:103AC000BB27182F2EA53FA548A959A957FD12605D
:103AD0008EA99FA9A8ADB9ADB7FD1460B7FC186059
:103AE0000DA5A4E00A9FC00111249C01255F3D4F54
:103AF0007901C501B4010E9495FCD7012D913D913A
:103B00004D915C910E94F4FC6AAF7BAF8CAF9DAF8E
:103B100020E030E0A9010F94CB02181614F520E044
:103B200030E040E05FE36AAD7BAD8CAD9DAD0F94BE
:103B3000A5000F94E9016AAB7BAB8CAB9DAB809188
:103B400073138F5F8F706D968FAF6D978091741325
:103B50006D960FAD6D9780130FC080E00E94209589
:103B6000F5CF2AAD3BAD4CAD5DAD60E070E080E0DF
:103B70009FE30F94A400DDCF009173136C960FAFF9
:103B80006C97202E312C25E5029FF0011124EB517A
:103B9000FC4F108212A726968CAD9DADAEADBFAD89
:103BA0002697B7FF07C0B095A095909581959F4F38
:103BB000AF4FBF4F82839383A483B58385E5829DF6
:103BC000F001839DF00D1124EB51FC4F8EA59FA5B4
:103BD000A8A9B9A9B7FF07C0B095A0959095819500
:103BE0009F4FAF4FBF4F86839783A087B18785E5EF
:103BF000829DF001839DF00D1124EB51FC4F8EA9A5
:103C00009FA9A8ADB9ADB7FF07C0B095A095909595
:103C100081959F4FAF4FBF4F82879387A487B5870A
:103C200085E5829DF001839DF00D1124EB51FC4F41
:103C30008AA99BA9ACA9BDA986879787A08BB18BC0
:103C400086819781A085B185428153816481758188
:103C5000481759076A077B0714F4AC01BD0185E5D5
:103C6000829DF001839DF00D1124EB51FC4F828564
:103C70009385A485B58584179507A607B7070CF427
:103C8000A0C60AA91BA92CA93DA980179107A207C4
:103C9000B3070CF0A1C6D901C8019EC649A55AA513
:103CA0004217530724F4509339024093380280910D
:103CB00038029091390231C760E070E0CB0169C7EA
:103CC00060E070E0CB0196C70AA91BA92CA93DA909
:103CD000012B022B032B09F45CC46091A5097091A0
:103CE000A6098091A7099091A80929A53AA54BA5F5
:103CF0005CA50E94F4FC0F946B010F94EE016B0124
:103D00007C018091C6099091C709A091C809B09122
:103D1000C9092EA53FA548A959A982179307A40749
:103D2000B50708F43FC481149104A104B10411F152
:103D30006091D5037091D6038091D7039091D803F9
:103D40006C157D058E059F05A8F40F945A002B0174
:103D50003C01A5019401C701B6010F945A00461613
:103D600057066806790630F4C301B2010F94690062
:103D700069017A0185E5829DF001839DF00D112492
:103D8000EB51FC4F86809780A084B184811491040C
:103D9000A104B10441F16091D9037091DA038091DB
:103DA000DB039091DC036C157D058E059F05D8F42F
:103DB0002EA53FA548A959A90F945A002B013C01F3
:103DC000A7019601C501B4010F945A004616570683
:103DD0006806790640F4C301B201A50194010F946D
:103DE000690069017A0185E5829DF001839DF00DEE
:103DF0001124EB51FC4F82849384A484B5848114F4
:103E00009104A104B10441F16091DD037091DE03DE
:103E10008091DF039091E0036C157D058E059F0571
:103E2000D8F42EA53FA548A959A90F945A002B01F3
:103E30003C01A7019601C501B4010F945A00461632
:103E400057066806790640F4C301B201A501940142
:103E50000F94690069017A0185E5829DF001839DD7
:103E6000F00D1124EB51FC4F86849784A088B18813
:103E700081149104A104B10441F16091E1037091B6
:103E8000E2038091E3039091E4036C157D058E05B8
:103E90009F05D8F42EA53FA548A959A90F945A000B
:103EA0002B013C01A7019601C501B4010F945A00F2
:103EB000461657066806790640F4C301B201A5010B
:103EC00094010F94690069017A0185E5829D800162
:103ED000839D100D11240B511C4FF801E55BFF4F22
:103EE000C082D182E282F382C701B6010E9493FCB4
:103EF0006B017C0129A53AA54BA55CA50F94810116
:103F00002D966CAF7DAF8EAF9FAF2D97D801DB960E
:103F10006D937D938D939C93DE9720E030E040E895
:103F20005BE4C701B6010E94F4FC20E034E244EFF8
:103F300059E40F9481010F94E901F80166A377A376
:103F400080A791A7F3A5FEABD8019C96BC91B9A719
:103F5000F801F5A5FDA7D8019E96BC91BAAF09EA74
:103F600019E02F961FAF0EAF2F9724960EAD1FAD01
:103F70002497005F1F4F29EA39E028963FAF2EAF04
:103F8000289724966EAC7FAC24973EA93AAB49A5FE
:103F90004EA74F2E5B2E1EAED3018D909D90AD90FF
:103FA000BD903D01E894B7F82896EEADFFAD289797
:103FB000C190D190E190F1902896FFAFEEAF289795
:103FC000A7019601C501B4010F94CB02181624F580
:103FD000FEADFF2309F4F2C3A70196016EA979A5EE
:103FE0008DA59AAD0E94F4FC6B017C012AA93EA527
:103FF000A201C501B4010E94F4FCA70196010F942F
:10400000CB0218164CF4A5019401C701B6010F9418
:1040100081016AAB7EA72C010615170509F0BCCFFC
:1040200029960FAD2997002309F412C1C0904F13B0
:10403000D0905013E0905113F09052132DEB37E3D2
:1040400046E855E3B601C7010E948FFC87FD00C119
:104050002EA939A54DA55AADB601C7010F94CB02C3
:104060007C2C6D2C8701181624F47EA869A40DA55C
:104070001AAD9601A701672D762DC8010F94810115
:104080006B966CAF7DAF8EAF9FAF6B9723E533E13F
:1040900028963FAF2EAF289729961FAE299780E02C
:1040A00090E0A0E8BFE322968CAF9DAFAEAFBFAF6C
:1040B00022972896AEADBFAD28976D917D918D91D9
:1040C0009D912896BFAFAEAF28976B962CAD3DADB6
:1040D0004EAD5FAD6B970E94F4FC4B015C012496E2
:1040E000EEADFFAD2497C190D190E190F190249670
:1040F000FFAFEEAF24972996FFAD2997FF23B1F0CC
:1041000022962CAD3DAD4EAD5FAD22970E94F4FCE2
:104110004B015C0122962CAD3DAD4EAD5FAD2297BB
:10412000C701B6010E94F4FC6B017C01A50194015A
:10413000C701B6010E948FFC20E030E0A90187FF93
:1041400053C3C701B6010F94CB0218164CF020E000
:1041500030E0A901C501B4010E948FFC87FF34C380
:10416000A7019601C501B4010F94A4006B017C0165
:104170002F96AEADBFAD2F978D909D90AD90BD9019
:104180002F96BFAFAEAF2F97A5019401C701B6011F
:104190000F94CB021816ECF4A7019601C501B401E7
:1041A0000F9481019B01AC0122966CAD7DAD8EAD6B
:1041B0009FAD22970E94F4FC22966CAF7DAF8EAF2C
:1041C0009FAF22972996BFAD2997BF5F2996BFAFB2
:1041D0002997E3E6F3E128962EAD3FAD2897E21745
:1041E000F30709F066CF29963FAD2997332371F085
:1041F00022962CAD3DAD4EAD5FAD2297672D762D4D
:10420000C8010E94F4FC762E672E8C0124EA30E768
:104210004DE75FE3672D762DC8010E94F4FC6B012A
:104220007C01AC019B016091C1097091C209809130
:10423000C3099091C4090F94CB021816BCF4A701CE
:1042400096016AA97EA5C2010F94CB02181674F4D8
:1042500085E5829DF001839DF00D1124EB51FC4F0B
:104260008081846080837AA86EA4820185E5829D26
:10427000F001839DF00D1124EB51FC4F872D962DFD
:10428000D80183AB94ABA5ABB6AB2D966CAD7DAD31
:104290008EAD9FAD2D9790589B01AC010F94A5005A
:1042A00067962CAD3DAD4EAD5FAD67970E94F4FCB7
:1042B0009B01AC016BE077ED83E29BE30F94A400DC
:1042C0000F9410036B017C01272D362DA8010F944C
:1042D000CB0218161CF07C2C6D2C870185E5829D85
:1042E000F001839DF00D1124EB51FC4F872D962D8D
:1042F000D80187A790ABA1ABB2ABB0809601A70164
:104300006EA979A58DA59AAD0E948FFC18160CF4A4
:104310008CC283E045E5C42EC29CF001C39CF00D25
:104320001124EB51FC4FB82AB08280E1FE01719656
:10433000A3E5B3E101900D928A95E1F78EA999A5C5
:10434000ADA5BAAD80934F1390935013A093511322
:10435000B09352138AA99EA5D2018093C10990936C
:10436000C209A093C309B093C4092EA939A54DA5CC
:104370005AAD60E070E080E89FE30F9481014B014B
:104380005C01AC019B016AA97EA5C2010E94F4FCFC
:104390006DA37EA38FA398A7A5019401672D762D09
:1043A000C8010E94F4FC69A37AA38BA39CA36C961A
:1043B0000FAD6C970C9DC0011124AE014B5D5F4F9A
:1043C000BE016F5D7F4F8B519C4F68D86D961FADBE
:1043D0006D971093731380E16396EEADFFAD639715
:1043E000A3E6B3E101900D928A95E1F780917313F2
:1043F00090917413891B8F70843008F4A5C02090AD
:10440000741323942394222D2F70222E1091731352
:1044100011501F703C2D130260011124A6014B5155
:104420005C4F6A0135E5332E11501F70812E012E2D
:10443000000C9908389CC001399C900D1124DC01B6
:10444000AB51BC4F7D014C9042FC7EC0B32D1B0292
:10445000C0011124FC01EB51FC4FFBABEAABD701CF
:10446000D3965C90D397D4966C90D497D5967C9045
:10447000D597D6960C91D6979F962D913D914D91BB
:104480005C91D297652D762D872D902F0E948FFC01
:10449000882309F457C041FC43C0F601A7A4B0A883
:1044A000C1A8D2A8A6019501652D762D872D902F44
:1044B0000E948FFC1816A4F5A6019501C601B5014E
:1044C0000E94F4FC5B016C01D701DB966D917D913C
:1044D0008D919C91DE9790589B01AC010F94A500A3
:1044E000EAA9FBA927A930AD41AD52AD0E94F4FC69
:1044F0009B01AC01C601B5010F94A4000F941003F9
:104500006B017C019B01AC01652D762D872D902FD1
:104510000E948FFC87FD04C05C2C6D2C7E2C0F2D1F
:10452000389CF001399CF00D1124EB51FC4F852D86
:10453000962DA72DB02F87A790ABA1ABB2AB842D42
:1045400081608083211273C110917413F12C00E0FB
:1045500090E080E025E5E22E20917313211709F405
:1045600069C11E9D90011124A9014B515C4F6A0144
:10457000009741F0DC012C9121FD04C06F2D702FBC
:104580000E94E0191F5F1F708F2D902FFC2C0D2DA6
:10459000E3CF60919D0970919E0980919F09909150
:1045A000A009A3CB81149104A104B104A9F16091E5
:1045B000D5037091D6038091D7039091D8036C15E1
:1045C0007D058E059F0540F50E9493FC2EA93FA90D
:1045D00048AD59AD0E94F4FC2B013C01C501B4016A
:1045E0000E9495FC4B015C01C701B6010E9493FC3F
:1045F000A50194010E94F4FCA30192010F94CB0247
:10460000181654F4A5019401C301B2010F9481015D
:104610000F94EE016B017C0185E5829DF001839D85
:10462000F00D1124EB51FC4F46805780608471845B
:104630004114510461047104A9F16091D90370918E
:10464000DA038091DB039091DC036C157D058E0508
:104650009F0540F50E9493FC2EA93FA948AD59AD96
:104660000E94F4FC4B015C01C301B2010E9495FC65
:104670002B013C01C701B6010E9493FCA3019201EA
:104680000E94F4FCA50194010F94CB02181654F477
:10469000A3019201C501B4010F9481010F94EE01B1
:1046A0006B017C0185E5829DF001839DF00D112455
:1046B000EB51FC4F4284538464847584411451044B
:1046C00061047104A9F16091DD037091DE038091B2
:1046D000DF039091E0036C157D058E059F0540F585
:1046E0000E9493FC2EA93FA948AD59AD0E94F4FC4D
:1046F0004B015C01C301B2010E9495FC2B013C01FE
:10470000C701B6010E9493FCA30192010E94F4FC30
:10471000A50194010F94CB02181654F4A301920141
:10472000C501B4010F9481010F94EE016B017C016E
:1047300085E5829DF001839DF00D1124EB51FC4F26
:1047400086849784A088B18881149104A104B1045F
:1047500009F4BBCB6091E1037091E2038091E30324
:104760009091E4036C157D058E059F0508F0ADCB97
:104770000E9493FC2EA93FA948AD59AD0E94F4FCBC
:104780002B013C01C501B4010E9495FC4B015C0169
:10479000C701B6010E9493FCA50194010E94F4FC9C
:1047A000A30192010F94CB0218160CF08ECBA50139
:1047B0009401C301B2010F9481018AC5CAAADEA681
:1047C000270121E02EAF28CCF7FAF094F7F8F09407
:1047D000A7019601C501B4010F94CB0218160CF085
:1047E000C7CC75016401C4CCC701B6010E948FFC1F
:1047F00087FD09C020E030E0A901C501B4010F9494
:10480000CB0218162CF4A5019401C701B601ACCC5B
:10481000B7FAB094B7F8B094A5019401C701B601F6
:104820000E948FFC87FFA4CCDCCF81E073CDCAA8A7
:10483000DBA8FACD009741F0FC01208121FD04C0E6
:104840006F2D702F0E94E019F090741310E000E0BB
:1048500085E5E82EAF2C0F2C000CBB08809173135C
:104860008A151B0409F45DC0FF2D2E2DF202C00134
:104870001124AC014B515C4F6A010115110509F47B
:104880004AC0D8018C9180FD0AC0EA9CF001EB9CE3
:10489000F00D1124EB51FC4F808180FF3CC0F801EA
:1048A00023A534A545A556A560E070E080E89FE308
:1048B0000F9481012B013C01EA9CF001EB9CF00D6F
:1048C0001124EB51FC4FAC019B0167A570A981A994
:1048D00092A90E94F4FC69A37AA38BA39CA3A301D1
:1048E0009201D8019F966D917D918D919C91D29767
:1048F0000E94F4FC6DA37EA38FA398A7AE014F5D29
:104900005F4FBE016B5D7F4FC8010E944E1AF801D8
:1049100080818E7F8083F394FF2DFF70FF2E8601B0
:1049200099CF0115110599F1D8019B962D913D91D3
:104930004D915C919E9760E070E080E89FE30F945A
:1049400081016B017C012DEC3CEC4CE45DE30E94A9
:10495000F4FC69A37AA38BA39CA3A7019601F80199
:1049600067A570A981A992A90E94F4FC6DA37EA3FA
:104970008FA398A7AE014F5D5F4FBE016B5D7F4F68
:10498000C8010E944E1AD8018C918E7F8C93C05A18
:10499000DF4F0FB6F894DEBF0FBECDBFDF91CF91D2
:1049A0001F910F91FF90EF90DF90CF90BF90AF904D
:1049B0009F908F907F906F905F904F903F902F903F
:1049C00008958AA99BA9ACA9BDA984179507A60734
:1049D000B70714F4DB01CA0125E5229DF001239DF0
:1049E000F00D1124EB51FC4F828B938BA48BB58B74
:1049F0000697A105B10558F280914C02882309F46D
:104A000010C1C0904602D0904702E0904802F0905A
:104A100049028090420290904302A0904402B090DC
:104A200045024090060D5090070D6090080D709063
:104A3000090DA3019201C501B4010E948FFC181653
:104A40000CF4E0C0A3019201C701B6010F94CB02A0
:104A500087FDD8C000914B022E960FAF2E97109174
:104A60004A021EAF002E000C110B2EAD022E000CC0
:104A7000330B3AA729A7A5019401C301B2010F94F2
:104A8000A4002B013C01A5019401C701B6010F94BC
:104A9000A4009B01AC01C301B2010F9481014B0141
:104AA0005C01B80149A55AA5641B750B072E000CC3
:104AB000880B990B0E9495FC9B01AC01C501B401C8
:104AC0000E94F4FC4B015C015EAD652F550F770B26
:104AD000880B990B0E9495FC9B01AC01C501B401A8
:104AE0000F94A5000F94E9019B0170933902609324
:104AF00038022E968FAD2E979EAD98170CF0CEC82B
:104B00000217130724F4109339020093380280919E
:104B100038029091390209A51AA58017910724F44B
:104B20001093390200933802609138027091390273
:104B300004E610E0061B170B10933B0200933A02A9
:104B4000072E000C880B990B0E9495FC2AE037ED8C
:104B500043E25CE30E94F4FC4B015C012DEB37E384
:104B600046E855EB0F94CB0287FD0BC02DEB37E3E6
:104B700046E855E3C501B4010E948FFC18160CF0FD
:104B80009BC8A501940160E070E080E89FE30F946A
:104B900081016093C30C7093C40C8093C50C9093F7
:104BA000C60CB801110F880B990B0E9495FC2AE0E6
:104BB00037ED43E25CE30E94F4FC4B015C012DEB1A
:104BC00037E346E855EB0F94CB0287FD0BC02DEB86
:104BD00037E346E855E3C501B4010E948FFC18167F
:104BE0000CF06EC8A501940160E070E080E89FE3DE
:104BF0000F9481016093C70C7093C80C8093C90C0B
:104C00009093CA0C2091060D3091070D4091080D2C
:104C10005091090DC701B6010E948FFC87FD1092CB
:104C20004C0285E5829D8001839D100D11240B515E
:104C30001C4FD80152966D917D918D919C91559705
:104C40000E9493FC6B017C012091C30C3091C40C39
:104C50004091C50C5091C60C0E94F4FC0F94EE01DB
:104C6000F801668B778B808F918F2091C70C3091E4
:104C7000C80C4091C90C5091CA0CC701B6010E94E2
:104C8000F4FC0F94EE01D8015A966D937D938D93A9
:104C90009C935D97F801E15BFF4F8091E10C90914F
:104CA000E20C918380832DA5F80121838281938179
:104CB000A481B581892B8A2B8B2B09F0429885E53D
:104CC000829DF001839DF00D1124EB51FC4F8681F4
:104CD0009781A085B185892B8A2B8B2B09F017989A
:104CE00085E5829DF001839DF00D1124EB51FC4F71
:104CF00082859385A485B585892B8A2B8B2B09F01A
:104D000015988AA99BA9ACA9BDA9892B8A2B8B2BA5
:104D100009F4E4C28091C509882319F08150809379
:104D2000C5091DA511110CC02E989FB7F89480914C
:104D30000B018D7F80930B019FBF80E28093C5099B
:104D40000091790909A710917A091DA700917B09A3
:104D500010917C0929962FAD299727963FAD27976B
:104D600064964FAD64972A965FAD2A9769A57DA595
:104D7000C8010F94CB02181674F029960FAD29972D
:104D800009A727961FAD27971DA764960FAD6497B7
:104D90002A961FAD2A9726966CAD7DAD8EAD9FAD40
:104DA00026970E9495FC2091A30C3091A40C409171
:104DB000A50C5091A60C0E94F4FC6B017C01C982E9
:104DC000DA82EB82FC826EA57FA588A999A90E9450
:104DD00095FC2091A70C3091A80C4091A90C509102
:104DE000AA0C0E94F4FC2B013C014D825E826F8272
:104DF00078866EA97FA988AD99AD0E9495FC209117
:104E0000AB0C3091AC0C4091AD0C5091AE0C0E94AB
:104E1000F4FC4B015C0189869A86AB86BC862091A6
:104E2000AF0C3091B00C4091B10C5091B20C6AAD06
:104E30007BAD8CAD9DAD0E94F4FC6D877E878F8726
:104E4000988B25E5229DF001239DF00D1124EB5157
:104E5000FC4F228133814481558126303105410543
:104E600051059CF4268137814085518526303105D6
:104E70004105510554F422853385448555859F7736
:104E80002630310541055105A4F1A7019601C7015E
:104E9000B6010E94F4FC26966CAF7DAF8EAF9FAF3B
:104EA0002697A3019201C301B2010E94F4FC9B0169
:104EB000AC0126966CAD7DAD8EAD9FAD26970F945F
:104EC000A5002B013C01A5019401C501B4010E947C
:104ED000F4FC9B01AC01C301B2010F94A5000F9437
:104EE000100325E5229DF001239DF00D1124EB51C7
:104EF000FC4F67AB70AF81AF92AF85E5829DF0014B
:104F0000839DF00D1124EB51FC4F27A930AD41AD2D
:104F100052AD60E070E080E89FE30F9481016B96F2
:104F20006CAF7DAF8EAF9FAF6B979B01AC0169A556
:104F30007DA5C8010E94F4FC6B017C018091731374
:104F400090917413891B8F7029968FAF2997A701B1
:104F5000960160E074E284E799E40F9481010F9474
:104F6000D6024B015C0129968FAD2997825086307D
:104F7000C0F58091D1039091D203A091D303B09159
:104F8000D40388169906AA06BB0658F5BC01CD01C4
:104F9000681979098A099B09660F771F881F991F6D
:104FA00029960FAD2997202F30E050E040E00F9474
:104FB0006900CA01B9010E9493FC0F94E901860EB1
:104FC000971EA81EB91EC501B4010E9493FC9B0147
:104FD000AC0160E074E284E799E40F9481016B0115
:104FE0007C018FB7F8944091FC0B5091FD0B6091C0
:104FF000FE0B7091FF0B840E951EA61EB71E8092AD
:10500000FC0B9092FD0BA092FE0BB092FF0B8FBF9A
:1050100085E5829D8001839D100D11240B511C4F4D
:10502000D801D7962D913D914D915C91DA97679675
:105030002CAF3DAF4EAF5FAF6797C701B6010E947F
:10504000F4FC2D966CAF7DAF8EAF9FAF2D97F8011E
:1050500063A774A785A796A72289338944895589B0
:105060002EA73FA748AB59ABCA01B9010E9493FCD8
:105070006EAB7FAB88AF99AF9B01AC01C701B601A6
:105080000E94F4FC0F946B010F94EE0161966CAFDB
:105090007DAF8EAF9FAF6197F801FF9660837183FC
:1050A000828393838E010F5F1F4F28961FAF0EAF31
:1050B0002897005F1F4F24961FAF0EAF24970DE770
:1050C00019E06F961FAF0EAF6F9724960EAD1FAD10
:1050D0002497A1961FAF0EAFA19719A61DA610E8A1
:1050E0001AAF0FE30EAF2896AEADBFAD28972D9146
:1050F0003D914D915D912896BFAFAEAF2897C70106
:10510000B6010E94F4FCA196EEADFFADA1976193AC
:10511000719381939193A196FFAFEEAFA1974B014D
:105120005C01E894B7F86F96AEADBFAD6F974D9048
:105130005D906D907D906F96BFAFAEAF6F97A501FC
:105140009401C301B2010E948FFC87FF14C0A50126
:105150009401C301B2010F9481015B018C0129A567
:105160003DA54AAD5EAD0E948FFC87FF04C0A9A695
:10517000BDA60AAF1EAF24960EAD1FAD249728968C
:105180002EAD3FAD28970217130709F0ACCF20E0F2
:1051900030E040E85FE369A57DA58AAD9EAD0E9441
:1051A0008FFC87FF4EC0680130E1C30ED11C78012F
:1051B000D7012D913D914D915D917D018D0104505F
:1051C000110969A57DA58AAD9EAD0E94F4FCF80188
:1051D0006083718382839383CE14DF0449F785E56E
:1051E000829D8001839D100D11240B511C4F2D9623
:1051F0002CAD3DAD4EAD5FAD2D9769A57DA58AADBA
:105200009EAD0E94F4FCD8019B966D937D938D9387
:105210009C939E97015C1F4F61966CAD7DAD8EADEA
:105220009FAD61970E9493FC29A53DA54AAD5EAD57
:105230000E94F4FC0F94EE01F80160837183828375
:1052400093836B962CAD3DAD4EAD5FAD6B976EA964
:105250007FA988AD99AD0E94F4FC69A77AA78BA7B6
:105260009CA785E5829DF001839DF00D1124EB51F3
:10527000FC4F82809380A480B58081149104A104A6
:10528000B10411F00C94641E86819781A085B185CC
:10529000892B8A2B8B2B11F00C94641E82859385AD
:1052A000A485B585892B8A2B8B2B11F00C94641E59
:1052B0002091A1093091A2094091A3095091A4091C
:1052C00069A57AA58BA59CA50E94F4FC0F946B019F
:1052D0000F94EE016B017C010C94651F0091750920
:1052E00009A7109176091DA70091770910917809F7
:1052F00031CD8091650A8630D8F496E0899FF0011F
:105300001124EF5BF54F20914F0230915002318311
:1053100020834091CC0C5091CD0C6091CE0C7091BB
:10532000CF0C42835383648375838F5F8093650AB8
:105330000895EF92FF920F93CF93DF93D82F7A01C6
:10534000C22F80E00E94D7C9D11101C0C0E28C2FCA
:105350000E94CAC9C2E1F7016491662359F0CC23C7
:1053600089F087E393E10E94AFC9C150FFEFEF1AC4
:10537000FF0AF1CFC15030F060E287E393E10E9471
:10538000AFC9F8CF802FDF91CF910F91FF90EF90B1
:105390000C94CAC98F929F92AF92BF92CF92DF9224
:1053A000EF92FF92CF93682F8BE00E94D7C90E94A3
:1053B0008ED8C82F8090331390903413A09035135B
:1053C000B09036136091311370913213072E000C98
:1053D000880B990B0E9495FC6B017C0182E00E9476
:1053E000CAC920E030E040E05FE3C501B4010F949A
:1053F000A5000F94E901CB010E9416D60E9470C649
:105400006FE287E393E10E94AFC9C11148C0809168
:105410002913882309F443C060E287E393E10E94E3
:10542000AFC920E030E040E251E4C701B6010F947B
:10543000CB0287FD05C060E287E393E10E94AFC91C
:1054400020E030E048EC52E4C701B6010F94CB02F3
:1054500087FD05C060E287E393E10E94AFC981E068
:105460000E94CAC960E287E393E10E94AFC920E0CD
:1054700030E040E251E4C701B6010E948FFC87FF93
:105480001EC060E287E393E1CF91FF90EF90DF9041
:10549000CF90BF90AF909F908F900C94AFC920E0B9
:1054A00030E040E05FE3C701B6010F94A5000F9420
:1054B000E901CB010E94EBD50E9470C6D0CFCF91FD
:1054C000FF90EF90DF90CF90BF90AF909F908F9024
:1054D0000895CF93DF93EC01FE018491882321F09E
:1054E0000E94CAC92196F8CFDF91CF910895CF933A
:1054F000DF93EC018991882319F00E94CAC9FACF81
:10550000DF91CF9108950F931F93CF93DF938C0179
:10551000EB0161E081E00E94D7C9C801DADF209782
:1055200029F16AE387E393E10E94AFC9C8010E94B1
:10553000C6D80196FE019F012C1B3D0B41914111E4
:10554000FACF820F931F61E042970CF062E082E194
:10555000821B0E94D7C960E287E393E10E94AFC932
:10556000CE01DF91CF911F910F91C1CFDF91CF91EC
:105570001F910F910895CF9390913C0A981709F4C9
:105580004CC0C82F80933C0A823071F4C4E0C150F3
:1055900008F443C088E0C89FB0011124625E7F4ECA
:1055A0008C2F0E94A119F3CF66E170E180E00E9488
:1055B000A1196EE070E181E00E94A11966E070E13E
:1055C00082E00E94A1196EEF7FE086E00E94A1199F
:1055D00066EF7FE087E00E94A119C13081F46EEE92
:1055E0007FE085E00E94A11966EE7FE084E00E94E2
:1055F000A1196EED7FE083E0CF910C94A11966EDC7
:105600007FE083E00E94A1196EEC7FE084E00E94BD
:10561000A11966EC7FE085E0EFCFCF910895CF929E
:10562000DF92EF92FF920F931F93CF93DF93EC01E2
:105630006A017B0180914F02909150028C179D0767
:10564000C1F123E5C23AD20709F03CC08D549E4413
:1056500071F40E9418CC6E517B4F8F4F9F4F609317
:105660003D0A70933E0A80933F0A9093400AD0937C
:105670005002C0934F02C092CC0CD092CD0CE0925D
:10568000CE0CF092CF0C8EE4CD34D80721F41092DA
:10569000000C1092650A0E947DCA81E0CD54DE4460
:1056A00009F080E068DF82E080934E0281E0809321
:1056B000F60BDF91CF911F910F91FF90EF90DF904C
:1056C000CF9008952EE4CD34D20789F6825A9345BF
:1056D00019F0CDE4DEE4CBCF0E9418CC00913D0A56
:1056E00010913E0A20913F0A3091400A601B710BD5
:1056F000820B930B97FFEDCFC1EADBE2B8CF21E03D
:105700002093000C6093750A7093760A8093770A51
:105710009093780A40E050E0BA0180917A0A909123
:105720007B0A7DCF60E070E080E291E4E8CF60E04A
:1057300070E080E89FE3E3CF6DEC7CEC8CEC9DE3C4
:10574000DECF40E050E0BA0182EF92E468DF1092D1
:105750006B0A10926C0A10926D0A10926E0A81E028
:105760008093000C08958091570983FD16C08091A5
:10577000100C811112C020912C0230912D028091C9
:10578000311390913213821793073CF4B2DD40E05D
:1057900050E0BA0186E89EED42CF81E08093000C94
:1057A00040E050E0BA018DE09DED39DF8FEC92E1F1
:1057B0009093650F8093640F0C94ED8840E050E067
:1057C000BA018DE49EE42BCF2F923F924F925F92CD
:1057D0006F927F928F929F92AF92BF92CF92DF9201
:1057E000EF92FF920F931F93CF93DF93CDB7DEB766
:1057F000CD54D1090FB6F894DEBF0FBECDBF1092C5
:10580000050C8091CC0C9091CD0CA091CE0CB09158
:10581000CF0C81309048A105B10540F01092CC0C1E
:105820001092CD0C1092CE0C1092CF0C1091CC0C8B
:105830008091660A1816DCF4282F082E000C330B12
:1058400021503109412F012E000C550B42175307EF
:1058500074F01FEF180F812F90E0B0E0A0E080936C
:10586000CC0C9093CD0CA093CE0CB093CF0C109297
:10587000F60B8091F70B181714F41093F70B809127
:10588000F70B082E000C990B0396212F012E000C0C
:10589000330B8217930724F48DEF810F8093F70B5E
:1058A0003090F70B34E0330D2C963FAF2C9781E00E
:1058B0009AE5492E90E1592EFE0131967F0192E042
:1058C00093192D969FAF2D972AE0622E712C3FE4FD
:1058D000C32E30E1D32E47E4A42E40E1B42E5EE384
:1058E000852E50E1952EF82FF3192E96FFAF2E97A7
:1058F000232C219431102FC08823B1F01116A4F06D
:105900008091CC0C9091CD0CA091CE0CB091CF0C8D
:105910000196A11DB11D8093CC0C9093CD0CA0934A
:10592000CE0CB093CF0C1F5F80914E02882341F0C4
:1059300030E020E041E06FE770E1822D0E940BD95A
:1059400080E033942C963FAD2C973312D3CF83E075
:105950008093660A62C021E0321279C08091060C01
:10596000811111C080914E02882351F381E01130E2
:1059700009F080E000E22EE34CE650E12E966FAD98
:105980002E97D7DCDDCF113069F710924C0D16DF62
:1059900010934C0D159880913E0D90913F0DB301E1
:1059A0000F9469039F938F937F936F93DF92CF92AE
:1059B000FF92EF920E9428FCC7010E9488C3809149
:1059C0004B0D8F9380914A0D8F938091490D8F934A
:1059D0008091480D8F93BF92AF92FF92EF920E94F9
:1059E00028FCC7010E9488C38091410D8F9380914C
:1059F000400D8F939F928F92FF92EF920E9428FC0E
:105A0000C7010E9488C30FB6F894DEBF0FBECDBF9A
:105A10008091F60B882309F4A5CFC35BDF4F0FB647
:105A2000F894DEBF0FBECDBFDF91CF911F910F91D4
:105A3000FF90EF90DF90CF90BF90AF909F908F90AE
:105A40007F906F905F904F903F902F90089592E0DD
:105A5000391276CF8091060C811111C080914E02CF
:105A6000882309F46DCF81E0123009F080E000E274
:105A70002EE34FE550E12D966FAD2D9782CF12307A
:105A800069F710924C0D1092240DE1E3FDE02DE03A
:105A900011922A95E9F75F924F92FF92EF920E943E
:105AA00028FCC7010E9488C389DE0F900F900F90D9
:105AB0000F908091F60B882389F2AFCFE091650AB1
:105AC000EE2381F0E150E093650A86E0E89FF00163
:105AD0001124EF5BF54F4281538164817581808190
