:100000000C9470160C94A1160C94A1160C94A116C5
:100010000C94A1160C94A1160C94A1160C94A11684
:100020000C94A1160C94A1160C94A1160C94A11674
:100030000C94A1160C94A1160C94A1160C94A11664
:100040000C94A1160C94CE700C94A1160C94A116CD
:100050000C94A1160C94A1160C94F1560C944BD050
:100060000C94A1160C941CA20C94A1160C94A1162D
:100070000C94A1160C94A1160C94A1160C94A11624
:100080000C94A1160C94A1160C94A1160C94A11614
:100090000C94A1160C94A1160C94A1160C94A11604
:1000A0000C94A1160C94A1160C94A1160C94A116F4
:1000B0000C94A1160C94A1160C94A1160C94A116E4
:1000C0000C94A1160C94A1160C94A1160C94A116D4
:1000D0000C94A1160C94A1160C94A1160C94A116C4
:1000E0000C94A116084AD73B3BCE016E84BCBFFDE1
:1000F000C12F3D6C74319ABD56833DDA3D00C77FF8
:1001000011BED9E4BB4C3E916BAAAABE0000008090
:100110003F05A84CCDB2D44EB93836A9020C50B91F
:10012000918688083CA6AAAA2ABE000000803F004B
:100130000C9491DC0C945EC20C944AE20C94553FF2
:100140000C94CC400C9449D10C9439830C949C7A37
:100150000C9449C20C94AC620C94FCDB0C9473CCF0
:100160000C94E7CC0C94ECDA0C9496D80C9464C202
:100170000C94F1CC0C94BA400C941DF10C944F3FAC
:100180000C9484C20C9472C20C94472B0C946D5343
:100190000C94A0D80C9405CD0C9468C20C94493FE3
:1001A0000C94B64B0C9439D60C94DDCC0C94B0CC9A
:1001B0000C9484380C945BC20C944D2B0C94076FF8
:1001C0000C9429DE0C94412B0C94C4CC0C948AC260
:1001D0000C9496CC0C94D9310C945F4D0C943BF15B
:1001E0000C9457C20C94292D0C94055E0C94A31604
:1001F0000C94952B0C946D7A0C94C6400C94B9C752
:100200000C94CE4A0C9419DD0C940A470C94883C4B
:100210000C94C0400C9433430C94F65E0C947ADA40
:100220000C946EC20C9448D30C947ECA0C9452D396
:100230000C94B54C0C94D3CC0C949ECC0C9451499A
:100240000C94BACC0C948CE00C94D1160C94804590
:100250000C941CEF0C947CC20C948EC20C9478CC41
:100260000C94CE600C94A1DD0C94F4D30C943B2B35
:100270000C9474DB0C948A380C9480C20C9453C296
:100280000C94B72E0C94B8180C94154E0C947FD780
:100290000C948CCC0C9495470C9482CC0C9489C211
:1002A0000C944A530C9414E30C944FC20C946C7A43
:1002B0000C942BE10C94A6CC0C94ADD40C946BCC88
:1002C0000C94A5DF0C94B6180C9463350C94DF687D
:1002D0000C94BA420C94BEDE0C94433F0C94FEC1C5
:1002E0000C94FBCC0C943D3F0C94C3410C94C43350
:1002F0000C9487380C94BA160C94B7170C9476C2E9
:100300000C94B42F4E414E494E495459494E46CD56
:10031000CCCC3D0AD7233C17B7D13877CC2B3295BC
:1003200095E6241FB14F0A000020410000C842009A
:10033000401C4620BCBE4CCA1B0E5AAEC59D74293B
:100340000A57726974652066696C65206E616D6517
:100350003A20002062797465733B20637263200049
:10036000506F7765726F66662053746F7265642094
:10037000280020213D2000637263206572726F7235
:100380003A20000A726561642066696C65206E61BE
:100390006D653A2000290A726561642066696C65A2
:1003A000206469723A20002062797465733B20638F
:1003B00072632000706F7765726F66662073746F6A
:1003C0007265642073657474696E677320726574F6
:1003D000726965766564202800202863616C637506
:1003E0006C6174656429210A0020213D2000454587
:1003F00050524F4D20435243206D69736D617463B9
:1004000068202D202873746F726564292000290AE2
:10041000002062797465733B20637263200020734F
:10042000746F7265642073657474696E677320728B
:100430006574726965766564202800204D61726C70
:10044000696E3D56313231290A0028454550524FD8
:100450004D3D00454550524F4D2076657273696F92
:100460006E206D69736D6174636820004861726409
:10047000636F6465642044656661756C74205365C0
:100480007474696E6773204C6F616465640A00F46C
:10049000010000F401000064000000E80300000017
:1004A00000FA430000FA430000A0400000C8419A4F
:1004B00099A0429A99A0420000C8430080C54320F9
:1004C000440020490020204D333034205000204487
:1004D0000020490020204D33303120500050494445
:1004E0002073657474696E67733A0A0020460020B1
:1004F000420020480020204D3134352053004D610A
:1005000074657269616C20686561747570207061D2
:1005100072616D65746572733A0A00204500205A55
:100520000020590020580020420020540020204D77
:10053000323035205300416476616E6365643A2041
:10054000533C6D696E5F66656564726174653E20DB
:10055000543C6D696E5F74726176656C5F6665654B
:1005600064726174653E20423C6D696E5F736567BD
:100570006D656E745F74696D655F75733E20583C80
:100580006D61785F78795F6A65726B3E205A3C6D69
:1005900061785F7A5F6A65726B3E20453C6D617879
:1005A0005F655F6A65726B3E0A002054002052004E
:1005B00020204D323034205000416363656C6572F9
:1005C0006174696F6E2028756E6974732F73322998
:1005D0003A20503C7072696E745F616363656C3E73
:1005E00020523C726574726163745F616363656C11
:1005F0003E20543C74726176656C5F616363656C28
:100600003E0A00204500205A0020590020204D328B
:1006100030312058004D6178696D756D20416363FC
:10062000656C65726174696F6E2028756E6974738C
:100630002F7332293A0A00204500205A0020590021
:1006400020204D3230332058004D6178696D756D32
:10065000206665656472617465732028756E6974BF
:10066000732F73293A0A00204500205A00205900B0
:1006700020204D3932205800537465707320706506
:100680007220756E69743A0A0020204D3230302095
:1006900044300A0020204D3230302044002044698C
:1006A0007361626C65640A0046696C616D656E74A5
:1006B0002073657474696E67733A0020204D31347D
:1006C000392043203B20556E69747320696E2043A6
:1006D000656C736975730A00202047323120202031
:1006E000203B20556E69747320696E206D6D0A0081
:1006F0007A5F6D696E3A2000795F6D696E3A20000D
:10070000785F6D696E3A20005265706F7274696E21
:100710006720656E6473746F702073746174757391
:100720000A0020746F6F206C6F6E6720657874729A
:100730007573696F6E2070726576656E7465640A94
:100740000020636F6C6420657874727573696F6ED6
:100750002070726576656E7465640A0024F4D43086
:1007600050C38E20C2A24017828B7011127A910D55
:10077000816CD90AA861E108C75866076151430630
:100780001E4B5D05C145A7041A411104093D98039C
:10079000713931034036DB0265339102D4305402A3
:1007A000802E1D02632CEE01752AC501B028A00120
:1007B000102781018F2564012B244B01E022340195
:1007C000AC211F018D200D01801FFC00841EED0057
:1007D000971DDF00B81CD200E61BC600201BBC0022
:1007E000641AB200B219A8000A19A0006A18990088
:1007F000D117910040178B00B516840031167E008A
:10080000B31579003A157300C7146F0058146A00C5
:10081000EE1366008813630025135E00C7125B00A9
:100820006C12570015125400C111510070114F0085
:1008300021114B00D61049008D104700461044008E
:1008400002104200C00F4000800F3E00420F3C00EB
:10085000060F3B00CB0E3800930E37005C0E3500C0
:10086000270E3400F30D3200C10D3100900D300021
:10087000600D2E00320D2D00050D2C00D90C2B0023
:10088000AE0C2900850C29005C0C2700350C2700D4
:100890000E0C2600E80B2400C40B2400A00B230040
:1008A0007D0B23005A0B2100390B2100180B20006F
:1008B000F80A1F00D90A1E00BB0A1E009D0A1D006F
:1008C000800A1D00630A1C00470A1B002C0A1B003B
:1008D000110A1A00F7091A00DD091900C4091900E4
:1008E000AB091900920917007B091800630917006A
:1008F0004C09160036091600200916000A091500D1
:10090000F5081500E0081400CC081400B80814001D
:10091000A4081400900813007D0812006B0813004F
:10092000580812004608120034081100230811006C
:100930001208110001081100F0071000E007100074
:10094000D0071000C0071000B0070F00A10710006B
:1009500091070E0083070F0074070F0065070E0054
:1009600057070E0049070E003B070D002E070E002B
:1009700020070D0013070D0006070D00F9060C00F7
:10098000ED060D00E0060C00D4060C00C8060C00B5
:10099000BC060C00B0060C00A4060B0099060C0067
:1009A0008D060B0082060B0077060B006C060B0011
:1009B00061060A0057060B004C060A0042060A00B0
:1009C00038060A002E060A0024060A001A060A0043
:1009D0001006090007060A00FD050900F4050900D4
:1009E000EB050900E2050900D9050900D005090059
:1009F000C7050900BE050900B5050800AD050800DA
:100A0000A50509009C050800940508008C05080050
:100A1000840508007C050800740508006C050700C3
:100A2000650508005D050700560508004E0507002E
:100A30004705070040050800380507003105070095
:100A40002A050700230507001C05060016050700F8
:100A50000F0507000805060002050700FB04060055
:100A6000F5040700EE040600E8040600E2040700AF
:100A7000DB040600D5040600CF040600C904060006
:100A8000C3040600BD040600B7040600B104050057
:100A9000AC040600A6040600A00405009B040600A2
:100AA00095040500900406008A04050085040500ED
:100AB000800406007A040500750405007004050032
:100AC0006B04050066040500610405005C04050074
:100AD00057040500520405004D04050048040500B4
:100AE000430405003E0404003A04050035040500F3
:100AF000300404002C04050027040400230405002E
:100B00001E0404001A040400160405001104040065
:100B10000D0404000904050004040400000404009A
:100B2000FC030400F8030400F4030400F0030400D1
:100B3000EC030400E8030400E4030400E003040001
:100B4000DC030400D8030400D4030400D003040031
:100B5000CC030400C8030300C503030024F404D934
:100B6000201BC40C5C0E9804C4095F026507710168
:100B7000F405F900FB04B30048048700C1036900D1
:100B80005803550003034500BE023A0084023100B9
:100B900053022A002902250004022000E4011C005F
:100BA000C8011900AF011700980114008401130057
:100BB000710110006101100051010E0043010D0090
:100BC00036010B002B010B0020010B001501090061
:100BD0000C01090003010800FB000800F3000800F5
:100BE000EB000700E4000600DE000600D800060067
:100BF000D2000600CC000500C7000500C2000500B9
:100C0000BD000400B9000400B5000400B1000400F8
:100C1000AD000400A9000400A5000300A200030029
:100C20009F0004009B000300980003009500020051
:100C300093000300900003008D0002008B0003006E
:100C40008800020086000200840003008100020088
:100C50007F0002007D0002007B000200790002009C
:100C600077000100760002007400020072000100AB
:100C7000710002006F0002006D0001006C000200B4
:100C80006A000100690002006700010066000100BF
:100C900065000100640002006200010061000100C3
:100CA000600001005F0002005D0001005C000100C7
:100CB0005B0001005A0001005900010058000100CA
:100CC00057000100560001005500010054000100CA
:100CD00053000000530001005200010051000100C8
:100CE000500001004F0001004E0000004E000100C6
:100CF0004D0001004C0001004B0000004B000100C2
:100D00004A000100490001004800000048000100BD
:100D100047000100460000004600010045000000B9
:100D200045000100440001004300000043000100B1
:100D300042000000420001004100000041000100AB
:100D4000400001003F0000003F0001003E000000A5
:100D50003E0001003D0000003D0001003C0000009D
:100D60003C0000003C0001003B0000003B00010093
:100D70003A0000003A00010039000000390001008B
:100D80003800000038000000380001003700000083
:100D90003700010036000000360000003600010078
:100DA000350000003500000035000100340000006F
:100DB0003400000034000100330000003300000064
:100DC0003300010032000000320000003200010058
:100DD000310000003100000031000100300000004F
:100DE00030000000300001002F0000002F00000044
:100DF0002F0000002F0001002E0000002E00000038
:100E00002E0001002D0000002D0000002D0000002C
:100E10002D0001002C0000002C0000002C00000020
:100E20002C0001002B0000002B0000002B00000014
:100E30002B0001002A0000002A0000002A00000008
:100E40002A000100290000002900000029000000FC
:100E500029000000290001002800000028000000EF
:100E600028000000280000002800010027000000E2
:100E700027000000270000002700000027000100D5
:100E800026000000260000002600000026000000CA
:100E900026000100250000002500000025000000BC
:100EA00025000000250000002500010024000000AE
:100EB00024000000240000002400000024000100A1
:100EC0002300000023000000230000002300000096
:100ED0002300000023000000230001002200000086
:100EE000220000002200000022000000220000007A
:100EF000220001002100000021000000210000006C
:100F0000210000002100000021000000210001005C
:100F10002000000020000000200000002000000051
:100F20002000000020000000200000002000010040
:100F30001F0000001F0000001F0000001F00000035
:100F40001F0000001F0000001F0001001E00000025
:100F50001E0000001E0000001E0000004D3834205E
:100F6000582059205A2045005A25752C45256C7566
:100F70002C50256C752C5425752C4225752C004D54
:100F800061676E61204475616C2072656164792EC1
:100F9000004D61676E61204475616C20726561640B
:100FA000792E004572723A4E6F2046696C616D650C
:100FB0006E74006265640A002C2073797374656D29
:100FC0002073746F70706564212048656174657268
:100FD0005F49443A200048656174696E6720666124
:100FE000696C65640048656174696E672066616953
:100FF0006C65640048656174696E67206661696C40
:1010000065640048656174696E67206661696C6536
:10101000640070012C0190012701B0012201C00180
:101020001D01F00118011002130130020E016002CF
:10103000090190020401C002FF000003FA0040030E
:10104000F5008003F000D003EB002004E6007004FC
:10105000E100E004DC004005D700C005D2004006F6
:10106000CD00D006C8008007C3003008BE00F008DD
:10107000B900C009B400B00AAF00B00BAA00D00C90
:10108000A500000EA000500F9B00C010960050124B
:10109000910000148C00C0158700B0178200B019B1
:1010A0007D00D01B7800001E730040206E0090224F
:1010B0006900F024640040275F0090295A00E02B6B
:1010C0005500102E500020304B0010324600E03307
:1010D000410090353C001037370070383200A0399D
:1010E0002D00B03A2800A03B2300603C1E00103DBC
:1010F0001900903D1400103E0F00703E0A00C03EE3
:101100000500003F0000403FFBFF803FF6FFC03F6F
:10111000F1FF4572723A204D494E54454D502042E0
:101120004544004572723A204D494E54454D500099
:101130004D494E54454D502074726967676572651C
:1011400064004572723A204D415854454D5020423A
:101150004544004572723A204D415854454D500067
:101160004D415854454D50207472696767657265EA
:101170006400202F002042403A0020403A00001C2A
:101180001F11111F00000006191803130C00040E94
:101190001F041C000000001010101010100000149C
:1011A0001414141414000015151515151500000E4F
:1011B0001315110E00001C10181705060500040A6F
:1011C0000A0A0A11110E0C12120C00000000001F76
:1011D0001511151F000000000000010204040000AA
:1011E000001C1C0C040404020100000000000408A0
:1011F0001000000000004D313034205325750047A9
:1012000039322045257500473932205A25752E255B
:1012100075004D3530300043616E63656C2070722F
:10122000696E7400526573756D65207072696E74B5
:1012300000506F776572206F757461676500257562
:101240003A2530327500253032753A253032750036
:101250002D2D2D005344005A004D782025643B2548
:1012600064252520004D785E25643B2564252520D6
:10127000005374617274205A3A202534642E256418
:10128000206D6D002020456E64205A3A202534647C
:101290002E2564206D6D00285A203C3D2025642EAB
:1012A000256429005374617274206D69783A202591
:1012B0003364252520253364252500285A203E3D0A
:1012C0002025642E256429002020456E64206D6948
:1012D000783A2025336425252025336425250046CA
:1012E000756C6C206772616469656E740025336487
:1012F0003B2533642525002020456E64206D6978E8
:101300003A002533643B253364252500537461720C
:1013100074206D69783A004772616469656E740083
:101320002534642E2564206D6D002020456E6420D8
:101330005A3A002534642E2564206D6D0053746183
:101340007274205A3A004772616469656E74206D48
:101350006978004D69786572004D69783A202020DF
:101360002025336425252025336425250047726117
:101370006469656E7400546F67676C65206D697889
:10138000002533643B2533642525004D6978004DE5
:1013900061696E005072696E742070617573656466
:1013A000004D31323500002573004D32340050724B
:1013B000696E742061626F72746564004732382010
:1013C00058590047393000473120463130303020FD
:1013D0005A323000473931004E6F20534420636148
:1013E0007264005072696E742066726F6D2053448F
:1013F0000053746F70207072696E7400526573755B
:101400006D65207072696E740041626F7574205052
:1014100072696E74657200506175736520707269CF
:101420006E74004D6978657200436F6E74726F6CF4
:1014300000507265706172650054756E6500496E8A
:10144000666F2073637265656E00426162797374C2
:101450006570205A004D36303020423000436861BC
:101460006E67652066696C616D656E7400426162CD
:101470007973746570205A00466C6F7700466C6F04
:10148000770046616E2073706565640046616E206A
:1014900073706565640042656400426564004E6F68
:1014A0007A7A6C65004E6F7A7A6C65005370656568
:1014B00064005370656564004D61696E005072652B
:1014C0006865617420504C4120456E64005072651F
:1014D0006865617420504C4120426564005072651B
:1014E0006865617420504C4100507265706172658E
:1014F00000507265686561742041425320456E64F6
:1015000000507265686561742041425320426564F1
:1015100000507265686561742041425300507265E5
:1015200070617265004261636B004E657874206380
:101530006F726E6572005072656865617420504C00
:101540004100436F6F6C646F776E004368616E6734
:10155000652066696C616D656E74005072656865C2
:101560006174204142530044697361626C65207369
:1015700074657070657273004D3834004C65766523
:101580006C20636F726E657273004175746F2068B2
:101590006F6D6500473238004D6F76652061786960
:1015A00073004D61696E004D6F76652058004D6F78
:1015B00076652059004D6F7665205A004578747223
:1015C00075646572004D6F766520302E316D6D004B
:1015D0004D6F766520316D6D004D6F766520313031
:1015E0006D6D004D6F7665206178697300486F748A
:1015F000656E6420746F6F20636F6C64004578744F
:101600007275646572004D6F7665205A004D6F7675
:10161000652059004D6F76652058004578747275C5
:10162000646572004D6F7665205A004D6F766520B7
:1016300059004D6F76652058005072657061726573
:1016400000496E697469616C697A6520454550523C
:101650004F4D00436F6E74726F6C00526573746F00
:101660007265206661696C73616665004C6F6164C8
:101670002073657474696E67730053746F726520AC
:1016800073657474696E677300496E697469616C1F
:10169000697A6520454550524F4D0046696C616D31
:1016A000656E74004D6F74696F6E0054656D706582
:1016B000726174757265004D61696E004D3330332F
:1016C00020553120452569205325690050726568F1
:1016D0006561742041425320636F6E6600507265ED
:1016E0006865617420504C4120636F6E66005049FC
:1016F00044204175746F74756E65005049442041F3
:1017000075746F74756E65005049442D44005049DE
:10171000442D44005049442D49005049442D49006E
:101720005049442D50005049442D5000200220467D
:101730006163740020022046616374002002204D22
:101740006178002002204D6178002002204D696EF2
:10175000002002204D696E004F6666004F6E20002B
:101760004175746F74656D700046616E20737065AD
:1017700065640046616E207370656564004265644F
:1017800000426564004E6F7A7A6C65004E6F7A7A1B
:101790006C6500436F6E74726F6C0053746F72658A
:1017A0002073657474696E677300426564004265F6
:1017B00064004E6F7A7A6C65004E6F7A7A6C6500C1
:1017C00046616E2073706565640046616E207370BB
:1017D0006565640054656D7065726174757265004D
:1017E0005654726176206D696E005654726176208F
:1017F0006D696E00566D696E00566D696E00566DAE
:101800006178204500566D6178204500566D6178FD
:10181000205A00566D6178205A00566D6178205923
:1018200000566D6178205900566D61782058005639
:101830006D61782058004D6F74696F6E00416D6165
:1018400078204500416D6178204500416D61782028
:101850005A00416D6178205A00416D61782059002D
:10186000416D6178205900416D6178205800416DCB
:101870006178205800412D74726176656C00412DAD
:1018800074726176656C00412D7265747261637467
:1018900000412D7265747261637400416363656C0D
:1018A00000416363656C004D6F74696F6E0056652F
:1018B0002D6A65726B0056652D6A65726B00567AEB
:1018C0002D6A65726B00567A2D6A65726B005679C7
:1018D0002D6A65726B0056792D6A65726B005678B9
:1018E0002D6A65726B0056782D6A65726B004D6FBC
:1018F00074696F6E004573746570732F6D6D00456C
:1019000073746570732F6D6D005A73746570732FE7
:101910006D6D005A73746570732F6D6D005973741B
:101920006570732F6D6D005973746570732F6D6DD5
:10193000005873746570732F6D6D00587374657003
:10194000732F6D6D004D6F74696F6E005374657009
:10195000732F6D6D004A65726B00416363656C6542
:10196000726174696F6E0056656C6F63697479009B
:10197000436F6E74726F6C004F6E200052756E6F05
:1019800075742073656E736F72730046696C2E20D8
:101990004469612E0046696C2E204469612E004F17
:1019A0006666004F6E20004520696E206D6D330025
:1019B0004F666600436F6E74726F6C00434F4D4DFF
:1019C000554E49434154494F4E0044525952554E89
:1019D000004552524F525300494E464F004543482E
:1019E0004F004B494C4C45442E200053544F50500F
:1019F00045442E20005072696E7465722073746FB6
:101A0000707065642064756520746F206572726FF4
:101A100072732E2046697820746865206572726F33
:101A20007220616E6420757365204D3939392074D8
:101A30006F20726573746172742E202854656D7006
:101A4000657261747572652069732072657365745F
:101A50002E2053657420697420616674657220724B
:101A6000657374617274696E67290A004E6F204352
:101A70006865636B73756D2077697468206C696E37
:101A800065206E756D6265722C204C617374204CFC
:101A9000696E653A2000636865636B73756D206DD0
:101AA00069736D617463682C204C617374204C6998
:101AB0006E653A20004C696E65204E756D626572E8
:101AC000206973206E6F74204C617374204C696EB2
:101AD00065204E756D6265722B312C204C617374DC
:101AE000204C696E653A20004D313130004D333164
:101AF00000473120463130303020583020593231C3
:101B000030004732382058590053442072656164D0
:101B1000206572726F720A00446F6E652070726980
:101B20006E74696E672066696C650A0020496E767E
:101B3000616C696420657874727564657220004D0B
:101B40003132350044656C6574696F6E2066616979
:101B50006C65642C2046696C653A200046696C65AA
:101B60002064656C657465643A006F70656E20660C
:101B700061696C65642C2046696C653A2000486593
:101B80006174696E6720646F6E652E0020573A009D
:101B9000452569202573004D61676E61204475619C
:101BA0006C2072656164792E00205A3A0020593AFF
:101BB0000020436F756E7420583A0020453A00208B
:101BC0005A3A0020593A00583A003A004361703AB4
:101BD000004B64200023646566696E6520204445DF
:101BE0004641554C545F004B69200023646566698B
:101BF0006E65202044454641554C545F004B702093
:101C00000023646566696E65202044454641554C55
:101C1000545F00504944204175746F74756E65209F
:101C200066696E69736865642120507574207468F4
:101C300065206C617374204B702C204B6920616EA1
:101C400064204B6420636F6E7374616E74732066DE
:101C5000726F6D2062656C6F7720696E746F2043C0
:101C60006F6E66696775726174696F6E2E680A00BF
:101C7000504944204175746F74756E6520666169C2
:101C80006C6564212074696D656F75740A00544831
:101C900045524D414C2052554E41574159005468D0
:101CA00065726D616C2052756E617761790048656F
:101CB0006174696E67206661696C6564004865617E
:101CC00074696E67206661696C65640050494420E0
:101CD0004175746F74756E65206661696C65642109
:101CE0002054656D706572617475726520746F6FD4
:101CF00020686967680A00204B643A2000204B691D
:101D00003A2000204B703A20000A20436C61737324
:101D1000696320504944200A002054753A2000206D
:101D20004B753A2000206D61783A2000206D696E75
:101D30003A200020643A200020626961733A200052
:101D40004F464600252900257C0020280025292013
:101D5000746F205A00257C002028004F4E206672A8
:101D60006F6D205A004772616469656E74204D6919
:101D700078200020746F6F206C6F6E672065787418
:101D8000727573696F6E2070726576656E746564C6
:101D90000A0020636F6C6420657874727573696FD4
:101DA0006E2070726576656E7465640A0054454DE8
:101DB0005020544F4F204C4F57210047322F47336C
:101DC0002062616420706172616D65746572730A6E
:101DD00000536C6565702E2E2E00526573756D690B
:101DE0006E67207072696E74004D61676E61204489
:101DF00075616C2072656164792E00436C69636B58
:101E000020746F20726573756D652E2E2E004E6FD7
:101E1000206D6F76652E00456E642066696C6520C6
:101E20006C6973740A00426567696E2066696C6547
:101E3000206C6973740A002569730025696D20257B
:101E40006973002569682025696D2025697300255F
:101E50006964202569682025696D2025697300253E
:101E6000697920256964202569682025696D202508
:101E70006973005072696E742074696D653A200050
:101E800050726F7465637465642050696E0A004512
:101E90002569202573004D61676E61204475616C72
:101EA0002072656164792E006F666600DD19D819AD
:101EB000D119CA19BC1944454255473A004B494CFF
:101EC0004C45442E20004D3131332053006F6B00C0
:101ED00042656420646F6E652E0020573A004265AB
:101EE000642048656174696E672E004D61676E619C
:101EF000204475616C204F66662E00454D45524763
:101F0000454E43595F50415253455200434153455A
:101F10005F4C494748545F4252494748544E4553E5
:101F20005300544F47474C455F4C49474854530072
:101F3000534F4654574152455F504F574552004208
:101F400055494C445F50455243454E54004C45560C
:101F5000454C494E475F44415441005A5F50524FEF
:101F60004245004155544F4C4556454C005052494E
:101F70004E545F4A4F420050524F47524553530010
:101F80004155544F5245504F52545F54454D5000A7
:101F9000564F4C554D455452494300454550524FBC
:101FA0004D0053455249414C5F584F4E5F584F4684
:101FB00046004649524D574152455F4E414D453AC4
:101FC0004D61726C696E20312E312E382E332028EF
:101FD0004769746875622920534F555243455F43E2
:101FE0004F44455F55524C3A68747470733A2F2FC2
:101FF0006769746875622E636F6D2F4D61726C69CD
:102000006E4669726D776172652F4D61726C696E93
:102010002050524F544F434F4C5F56455253494FF7
:102020004E3A312E30204D414348494E455F545978
:1020300050453A4D61676E61204475616C2045588A
:102040005452554445525F434F554E543A312055F2
:102050005549443A63656465326132662D343161B5
:10206000322D343734382D396231322D63353563B2
:1020700036326633363766660A002F2F20004D3120
:10208000343520533C696E6465783E206F7574204A
:102090006F662072616E67652028302D31290A0035
:1020A0005761726E696E673A204D69782066616388
:1020B000746F7273206D7573742061646420757021
:1020C00020746F20312E302E205363616C696E674F
:1020D0002E0A0053657474696E67205472617665C8
:1020E0006C20416363656C65726174696F6E3A2040
:1020F0000053657474696E6720526574726163740D
:1021000020416363656C65726174696F6E3A20008B
:1021100053657474696E67205072696E74204163F0
:1021200063656C65726174696F6E3A200053657403
:1021300074696E67205072696E7420616E642054F9
:10214000726176656C20416363656C657261746968
:102150006F6E3A2000205A00205900580020204D70
:1021600061783A2000205A00205900580020204D64
:10217000696E3A20004F6E20004F666600536F660E
:102180007420656E6473746F70733A2000000125CB
:10219000272318FF1F211D1CFF19171B1EFFFF0CF3
:1021A0000409FFFFFF2E2C0CFFFF312F3004400AE3
:1021B000FF41FFFFFFFFFFFF20643A0020693A0064
:1021C00020703A0020643A0020693A0020703A00FA
:1021D00043290A0061626C656420286D696E207471
:1021E000656D702000436F6C64206578747275644F
:1021F000657320617265200043617365206C6967B7
:1022000068743A2000290A00466978656420706184
:1022100072616D657465722062797465733B2063C9
:1022200072632000466978656420706172616D6533
:1022300074657220280048565F7365745F6F6B0A7F
:1022400000556E6B6E6F776E20636F6D6D616E649F
:102250003A202200526573656E643A20006F6B006D
:10226000627573793A2070617573656420666F7268
:1022700020696E7075740A00627573793A20706116
:102280007573656420666F7220757365720A0062EB
:102290007573793A2070726F63657373696E670A3C
:1022A000004B494C4C45442E20004B494C4C20637C
:1022B000617573656420627920746F6F206D75633A
:1022C0006820696E6163746976652074696D652044
:1022D0002D2063757272656E7420636F6D6D616E13
:1022E000643A2000506C6561736520726573657493
:1022F000005052494E5445522048414C54454400E8
:102300005072696E7465722068616C7465642E2009
:102310006B696C6C28292063616C6C6564210A0010
:10232000000000C1000000C1000000000000C84221
:102330000000C8420000A041000000005761726E1A
:10234000696E673A20486F6D696E672042756D70DF
:102350002044697669736F72203C20310A000202C2
:10236000040000A0400000A0400000004000006405
:10237000430000644300008243FFFFFF4D363030CE
:1023800020486F74656E6420746F6F20636F6C6497
:1023900020746F206368616E67652066696C616D8B
:1023A000656E740A007C3C3E5E2B3D3F2F5B5D3BBF
:1023B0002C2A225C004572726F72207772697469F0
:1023C0006E6720746F20454550524F4D210A0029F9
:1023D0000A002062797465733B20637263200053A6
:1023E000657474696E67732053746F726564202816
:1023F0000043616E6E6F7420656E74657220737534
:10240000626469723A2000052E2E004D61696E00EB
:102410004D61782054656D703A20313235004D6938
:102420006E2054656D703A203500544265643A451B
:1024300050434F53203130304B004D61782054656C
:102440006D703A20323635004D696E2054656D70DE
:102450003A20350054303A204550434F5320313014
:10246000304B005053553A2047656E6572696300E2
:1024700050726F746F636F6C3A20312E30002020E1
:1024800020204857205665723A205600465720565D
:1024900065723A2056322E3100426175643A20321C
:1024A0003530303030004754323536302056342EF7
:1024B00030004578747275646572733A2031006833
:1024C0007474703A2F2F68656C6C626F742E787913
:1024D0007A004D61676E61204475616C0032303165
:1024E000372D31322D32352031323A303000312E15
:1024F000312E382E33004D61726C696E0054686560
:10250000726D6973746F727300426F6172642049F7
:102510006E666F005072696E74657220496E666FE8
:10252000004D61696E0020204E6F7A7A6C653A200A
:10253000004261636B004D696E696D756D20546575
:102540006D70206973203137302E004865617469E1
:102550006E67206661696C656400457874727564A5
:1025600065206D6F726500526573756D65207072C0
:10257000696E7400524553554D45204F5054494F94
:102580004E533A0020204E6F7A7A6C653A200063F1
:1025900068616E6765006F66207468652066696CA7
:1025A000616D656E74005761697420666F72207387
:1025B00074617274005052494E5420504155534535
:1025C000440020204E6F7A7A6C653A200066696C70
:1025D000616D656E7420756E6C6F61640057616922
:1025E0007420666F72005052494E5420504155532A
:1025F00045440020204E6F7A7A6C653A2000506C7A
:102600006561736520776169742E2E2E00486561BF
:1026100074696E67206E6F7A7A6C65005052494E0D
:1026200054205041555345440020204E6F7A7A6C17
:10263000653A200068656174206E6F7A7A6C652E49
:1026400000507265737320627574746F6E20746FBE
:10265000005052494E5420504155534544002020CB
:102660004E6F7A7A6C653A2000746F20636F6E74D7
:10267000696E75652E2E2E00616E64207072657312
:102680007320627574746F6E00496E736572742086
:1026900066696C616D656E74005052494E542050ED
:1026A00041555345440020204E6F7A7A6C653A209C
:1026B0000066696C616D656E74206C6F61640057B3
:1026C00061697420666F72005052494E5420504127
:1026D000555345440020204E6F7A7A6C653A2000AD
:1026E00066696C616D656E74206578747275646579
:1026F000005761697420666F72005052494E542031
:1027000050415553454400746F20726573756D6573
:10271000005761697420666F72207072696E740070
:102720005052494E54205041555345440043617224
:10273000642072656D6F7665640043617264206920
:102740006E73657274656400000021002400270028
:102750002A002D00300033000101000004010701B0
:102760000A0100002200250028002B002E00310065
:10277000340002010000050108010B0100002000E7
:102780002300260029002C002F0032000001000049
:1027900003010601090105050505070508080808E4
:1027A000020202020A0A08080404040401010101E9
:1027B00001010101030303030303030304070707E4
:1027C0000C0C0C0C0C0C0C0C020202020606060689
:1027D000060606060B0B0B0B0B0B0B0B0102102056
:1027E0002008081020401020408002010201080447
:1027F00002010102040810204080804020100804DB
:102800000201800402018040201008040201080433
:102810000201010204081020408001020408102077
:10282000408000000A0B02090C0D0E08070304018A
:102830000000000000000000000000000000000098
:102840000000000000000000000000000000121165
:102850001000000000000000000000000000000068
:102860000000000000000000200D4669786564202B
:10287000706172616D65746572206E6279746573E2
:102880003B20637263206572726F722000200D0A14
:10289000466978656420706172616D657465722047
:1028A00062797465733B20637263206572726F7224
:1028B0002000290A002062797465733B20637263EB
:1028C0002000466978656420706172616D65746589
:1028D00072202800206861726477617265207665D5
:1028E0007273696F6E3A002D2D2D2D2D2D007C4DAC
:1028F00061726C696E7C002D2D2D2D2D2D0068745C
:1029000074703A2F2F68656C6C626F742E78797AC8
:1029100000687474703A2F2F68656C6C626F742E47
:1029200078797A0020312E312E382E330020205035
:102930006C616E6E65724275666665724279746529
:10294000733A20002046726565204D656D6F72797F
:102950003A2000436F6D70696C65643A2041756779
:1029600020323120323032300A00207C2041757410
:10297000686F723A20286E6F6E652C206465666100
:10298000756C7420636F6E666967290A0032303196
:10299000372D31322D32352031323A303000204C53
:1029A00061737420557064617465643A2000312E3F
:1029B000312E382E330A004D61726C696E0020533F
:1029C0006F6674776172652052657365740A0020C2
:1029D0005761746368646F672052657365740A0099
:1029E0002042726F776E206F757420526573657424
:1029F0000A002045787465726E616C2052657365BB
:102A0000740A00506F77657255700A0073746172B2
:102A1000740A006572726F722077726974696E67EA
:102A200020746F2066696C650A00456E6473746F6C
:102A300070732025632025632025632025630020F3
:102A40005A3A0020593A0020583A00656E6473746F
:102A50006F7073206869743A20004732382058003C
:102A600066696C616D656E74206F75740A004D3314
:102A7000322053256C7520212573004D33322053AD
:102A8000256C7520212F25732F2573004730204694
:102A900031303030205A25752E25750047323820C8
:102AA00059004732382058004D31303620205332FB
:102AB0003535004D31303920543020532575004DC7
:102AC0003139302053257500446F6E65207361766F
:102AD000696E672066696C652E0A004D32390053B5
:102AE00044207072696E74696E6720627974652023
:102AF000004E6F74205344207072696E74696E6763
:102B00000A00486F6D65202573257325732066695B
:102B1000727374002066697273740A005A00590057
:102B20005800486F6D65200057726974696E6720A0
:102B3000746F2066696C653A20006F70656E206660
:102B400061696C65642C2046696C653A20006F7081
:102B5000656E206661696C65642C2046696C653A17
:102B6000200046696C652073656C65637465640A52
:102B7000002053697A653A200046696C65206F70C1
:102B8000656E65643A20006F70656E206661696CE1
:102B900065642C2046696C653A20002066696C6586
:102BA0003A2000646F696E67006672657368004E54
:102BB0006F772000454E4420535542524F5554499B
:102BC0004E450A002220706F7300222070617265EA
:102BD0006E743A2200535542524F5554494E452087
:102BE00043414C4C207461726765743A22004B4932
:102BF0004C4C45442E2000747279696E6720746FC6
:102C00002063616C6C207375622D67636F6465204F
:102C100066696C6573207769746820746F6F206DC6
:102C2000616E79206C6576656C732E204D4158205D
:102C30006C6576656C2069733A0053442063617259
:102C400064206F6B0A006F70656E526F6F74206640
:102C500061696C65640A00766F6C756D652E696ECE
:102C60006974206661696C65640A004572726F72EE
:102C70003A00534420696E6974206661696C0A00E9
:102C800043616E6E6F74206F70656E207375626441
:102C9000697220006175746F25692E67004D3234AA
:102CA000004D323320257300656E71756575656959
:102CB0006E672022006563686F3A00544845524DA4
:102CC000414C2052554E4157415900546865726D30
:102CD000616C2052756E6177617900003BF11DF1E6
:102CE00011241FBECFEFD1E2DEBFCDBF00E00CBF8D
:102CF00013E0A0E0B2E0E4E2FCE002E00BBF02C0BF
:102D000007900D92AE3CB107D9F726E1AEECB3E0E7
:102D100001C01D92A83FB207E1F716E1CFE6D6E168
:102D200000E006C021970109802FFE010F946A057B
:102D3000CE36D10780E00807A9F70E9436F20D943D
:102D400000060C9400002CEA35EC47E25EE360914B
:102D50007D0A70917E0A80917F0A9091800A0F947B
:102D6000100360935E0970935F09809360099093EC
:102D7000610908952CEA35EC47E25EE36091810A2F
:102D80007091820A8091830A9091840A0E944CFE7D
:102D90006093620970936309809364099093650955
:102DA000089560910F0270911002072E000C880B9D
:102DB000990B0E94EDFD2AE037ED43E25CE30E94AF
:102DC0004CFE209156093091570940915809509175
:102DD00059090E944CFE60930B0270930C02809381
:102DE0000D0290930E020895CF92DF92EF92FF9220
:102DF0006091380270913902072E000C880B990BF4
:102E00000E94EDFD2AE037ED43E25CE30E944CFEB8
:102E10006B017C012DEB37E346E855EB0F9476040C
:102E200087FD0BC02DEB37E346E855E3C701B6013C
:102E30000E94E6FD18160CF049C0A701960160E05B
:102E400070E080E89FE30F9410036093C10C7093CF
:102E5000C20C8093C30C9093C40C60913A027091A1
:102E60003B02072E000C880B990B0E94EDFD2AE017
:102E700037ED43E25CE30E944CFE6B017C012DEBDD
:102E800037E346E855EB0F94760487FD0AC02DEB37
:102E900037E346E855E3C701B6010E94E6FD181680
:102EA000CCF4A701960160E070E080E89FE30F9406
:102EB00010036093C50C7093C60C8093C70C90935D
:102EC000C80CFF90EF90DF90CF90089560E070E025
:102ED000CB01BBCF60E070E0CB01EBCF90914A0219
:102EE00080914B029817C1F0209146023091470221
:102EF0004091480250914902609142027091430210
:102F000080914402909145020E94E6FD881F882727
:102F1000881F80934C02089580E0FBCF880F991F93
:102F2000880F991FFC01E451F34F40815181628168
:102F300073818F54934FFC01408351836283738369
:102F4000E0913309F091340982899389A489B58984
:102F50008093F5099093F609A093F709B093F809C7
:102F60008FEF9FEF90933609809335090895CF92A4
:102F7000DF92EF92FF928091BC09882309F457C039
:102F8000C090B809D090B909E090BA09F090BB0997
:102F900020E030E0A901C701B6010E94E6FD8823C8
:102FA00009F445C020E030E040E05FE3C701B6012E
:102FB0000E944CFE9B01AC010E944CFE2BED3FE0B9
:102FC00049E450E40E944CFE9B01AC0160E070E0DB
:102FD00080E89FE30F9410036B017C01C0925609B7
:102FE000D0925709E0925809F092590960910F0266
:102FF00070911002072E000C880B990B0E94EDFDBA
:103000002AE037ED43E25CE30E944CFEA701960103
:103010000E944CFE60930B0270930C0280930D0291
:1030200090930E02FF90EF90DF90CF900895C12C07
:10303000D12C80E8E82E8FE3F82ED0CF0F931F938A
:10304000CF93DF930091330910913409F801828105
:103050009381A481B581181619061A061B06ECF493
:103060008091EE0980FF19C08091BE0990B19695BC
:103070009695909590FB80F9982F8093BE0980914A
:10308000BD098170892349F08091BD0C81608093D6
:10309000BD0C90E080E00E948E17F8018681978138
:1030A000A085B185181619061A061B0644F58091ED
:1030B000EE0981FF24C08091BE0990B1929596954A
:1030C0009695937021E092279170C92FF0E0DF2F41
:1030D000D195C195D109C827C270DD278C2780936F
:1030E000BE09C091BD09C270C82349F08091BD0CD2
:1030F00082608093BD0C81E090E00E948E17F80101
:1031000082859385A485B585181619061A061B06AF
:1031100024F58091EE0982FF20C02091BE0986B17E
:10312000082E000C990B80959095990F880B982F7D
:10313000822784709927922F98279093BE098091B7
:10314000BD098470892349F08091BD0C846080930F
:10315000BD0C82E090E00E948E178091BE098093A2
:10316000BD09DF91CF911F910F9108950C9416CD59
:103170000F931F93CF93DF93CDB7DEB76E970FB644
:10318000F894DEBF0FBECDBF809115028F93809162
:1031900014028F931F921F928CEB96E19F938F9353
:1031A0008E010F5F1F4F1F930F930E947DFDC8017B
:1031B0000E9447C40FB6F894DEBF0FBECDBF6E9617
:1031C0000FB6F894DEBF0FBECDBFDF91CF911F9138
:1031D0000F910895CF92DF92EF92FF92CF93C82F75
:1031E0000E940ACD6B017C0124EA30E74DE75FE3E2
:1031F0006091730A7091740A8091750A9091760AB1
:103200000E94E6FD87FD18C08AEF90E0A0E0B0E0E4
:103210008C0D9D1DAE1DBF1D8093F60B9093F70B7B
:10322000A093F80BB093F90BC0932B02CF91FF90B2
:10323000EF90DF90CF90089580E090E0DC01E8CF40
:10324000CF93DF9300D01F92CDB7DEB7882349F02C
:103250000E94C5D80F900F900F900F90DF91CF91E3
:10326000089588EB91E09C838B8384E190E09A83BE
:103270008983BE016D5F7F4FCE0101960E9464C6B7
:10328000E9CF0E94C48B0C942019EF92FF920F9308
:103290001F93CF93DF9300D000D01F921F92CDB722
:1032A000DEB78E010F5F1F4FD80130E020E0FB0139
:1032B000E20FF31FE491ED932F5F3F4F283031056C
:1032C000B1F7877028E0829FC001112480640E94BA
:1032D000A4CA780188E0E80EF11CF80161918F0121
:1032E00085E393E10E947ECAE016F106B1F72896C5
:1032F0000FB6F894DEBF0FBECDBFDF91CF911F9107
:103300000F91FF90EF9008954F925F926F927F928E
:10331000AF92BF92CF92DF92EF92FF920F931F93E3
:10332000CF93DF938C01EB01FC0147A450A861A867
:1033300072A8AFA4B8A8C9A8DAA89501A601C301CC
:10334000B2010E94E6FD87FF3EC0A3019201C301C6
:10335000B2010E944CFE2B013C01F80163AD74AD3B
:1033600085AD96AD90589B01AC010F941602F80103
:1033700027A930AD41AD52AD0E944CFE9B01AC017E
:10338000C301B2010F9415020F94C4047B018C0198
:103390009B01AC01B501C6010E94E6FD87FF02C09A
:1033A000750186019701A801B501C6010E94E6FDDD
:1033B000882349F0C701D8018FA798ABA9ABBAAB56
:1033C000888181608883DF91CF911F910F91FF9059
:1033D000EF90DF90CF90BF90AF907F906F905F9015
:1033E0004F9008954F925F926F927F928F929F922B
:1033F000AF92BF92CF92DF92EF92FF92CF93DF9383
:10340000CDB7DEB76A970FB6F894DEBF0FBECDBF5B
:103410009A8F898F5B014A01FC01FF96608171815F
:10342000828193810E94EBFD6B017C01D5012D917E
:103430003D914D915C910E944CFE0F94F4020F94CB
:1034400089033B015C01F401208131814281538178
:10345000C701B6010E944CFE0F94F4020F94890339
:103460006D827E82AF82B8862D813E814F815885E4
:10347000283731054105510540F428E730E040E0A8
:1034800050E02D833E834F83588769837A838B83F3
:103490009C8389819A81AB81BC8188379105A10584
:1034A000B10540F428E730E040E050E029833A835A
:1034B0004B835C83E98DFA8DE55BFF4F80819181C1
:1034C000A281B3818D879E87AF87B88BBC01CD0168
:1034D0000E94EDFD69877A878B879C876D817E814D
:1034E0008F8198850E94EBFD698B7A8B8B8B9C8BEF
:1034F00020E030E0A90169857A858B859C850E9452
:10350000E6FD882309F437C1A7019601C701B6017A
:103510000E944CFE4B015C0129893A894B895C89E8
:10352000CA01B9010E944CFE9B01AC01C501B40166
:103530000F9415024B015C0129853A854B855C850A
:10354000CA01B9010F9416029B01AC01C501B40177
:103550000F9410030F94F4020F9482032B013C018B
:103560006D857E858F8598899095809570956195FC
:103570007F4F8F4F9F4F0E94EDFD4B015C01698192
:103580007A818B819C810E94EBFD6D877E878F877E
:10359000988B20E030E0A901C501B4010E94E6FD4E
:1035A000882309F4ECC02D853E854F855889CA01D2
:1035B000B9010E944CFE6D8B7E8B8F8B988FA7017B
:1035C0009601C701B6010E944CFE9B01AC016D89BA
:1035D0007E898F89988D0F9415026B017C01A5015E
:1035E0009401C501B4010F9416029B01AC01C701FF
:1035F000B6010F9410030F94B803A98DBA8D52969B
:103600008D909D90AD90BC90559775016401C41844
:10361000D508E608F7080F948203C61AD70AE80A05
:10362000F90AF7FE67C020E030E0A90169857A85D4
:103630008B859C850E94E6FD882309F4A4C0C50102
:10364000B4010E94EBFD6B017C0129853A854B8515
:103650005C85CA01B9010F9416029B01AC01C70138
:10366000B6010E944CFE6B017C0129893A894B8985
:103670005C89CA01B9010E944CFE9B01AC01C701E3
:10368000B6010F9415026B017C012D853E854F8597
:103690005889CA01B9010E944CFE9B01AC01C701C7
:1036A000B6010F9416026B017C0120E030E040E887
:1036B00050E469857A858B859C850E944CFE9B0130
:1036C000AC01C701B6010F9410030F94F4020F94DC
:1036D00082032B013C0177FE03C0412C512C3201A7
:1036E000481459046A047B0410F024013501C12CEC
:1036F000D12C76018FB7F894E98DFA8D908193FDE6
:1037000024C0DF01468E578E60A271A2C40CD51C66
:10371000E61CF71CC2A2D3A2E4A2F5A2ED5BFF4F08
:103720002D813E814F81588520833183428353838D
:10373000AD01495B5F4FDA0129813A814B815C81A0
:103740002D933D934D935C9313978FBF6A960FB65D
:10375000F894DEBF0FBECDBFDF91CF91FF90EF9009
:10376000DF90CF90BF90AF909F908F907F906F90A1
:103770005F904F90089560E070E0CB01EBCE60E089
:1037800070E0CB0138CF60E070E0CB019ECF2F928C
:103790003F924F925F926F927F928F929F92AF92E1
:1037A000BF92CF92DF92EF92FF920F931F93CF932E
:1037B000DF93CDB7DEB7C056D1090FB6F894DEBFA0
:1037C0000FBECDBF63969FAF8EAF639729964FAF65
:1037D000299727965FAF279764966FAF64972A96CD
:1037E0007FAF2A972DA7DC014D915D916D917C9162
:1037F0008091611390916213A0916313B09164134F
:103800008A019B01081B190B2A0B3B0B26960CAF58
:103810001DAF2EAF3FAF26976396AEADBFAD63979A
:1038200014964D915D916D917C91179780916513E0
:1038300090916613A0916713B09168138A019B0160
:10384000081B190B2A0B3B0B0EA71FA728AB39AB84
:103850006396AEADBFAD639718964D915D916D9136
:103860007C911B978091691390916A13A0916B13BF
:10387000B0916C138A019B01081B190B2A0B3B0B9F
:103880000EAB1FAB28AF39AF6396AEADBFAD63973C
:103890001C96CD90DD90ED90FC901F9780916D135C
:1038A00090916E13A0916F13B09170134601570160
:1038B000881A990AAA0ABB0A09F498C080910E0CCA
:1038C000811139C060912C0270912D02072E000CDD
:1038D000880B990B0E94EDFD9B01AC0160913113A7
:1038E0007091321380913313909134130E94E6FD4E
:1038F00087FF21C0C0926D13D0926E13E0926F13B8
:10390000F092701305EB1CE2F80184910F5F1F4FDA
:1039100081110BC001E417E0F80184910F5F1F4F84
:10392000882331F00E94558BF7CF0E94558BECCF46
:10393000812C912C54012DA5F4E02F9F800111249E
:10394000055F1D4FC501B4010E94EDFDD8012D9109
:103950003D914D915C910E944CFE0F9482036B014E
:103960007C01F7FE08C0F094E094D094C094C11C90
:10397000D11CE11CF11C6091180D7091190D809102
:103980001A0D90911B0D0F9482039B01AC01A0E9CD
:10399000B1E00F94FB016C157D058E059F054CF57C
:1039A0006396EEADFFAD639784859585A685B78553
:1039B00080936D1390936E13A0936F13B093701355
:1039C00005EB1CE2F80184910F5F1F4F81110BC0C2
:1039D00002E217E0F80184910F5F1F4F882331F056
:1039E0000E94558BF7CF0E94558BECCF812C912CE8
:1039F000540126968CAD9DADAEADBFAD2697882700
:103A0000B7FD83959927AA27BB27182F2EA53FA579
:103A100048A959A957FD12608EA99FA9A8ADB9ADB3
:103A2000B7FD1460B7FC18600DA5A4E00A9FC001A3
:103A300011249C01255F3D4F7901C501B4010E940D
:103A4000EDFDD7012D913D914D915C910E944CFE71
:103A50006AAF7BAF8CAF9DAF20E030E0A9010F943F
:103A60007604181614F520E030E040E05FE36AAD1C
:103A70007BAD8CAD9DAD0F9416020F9482036AABA3
:103A80007BAB8CAB9DAB809171138F5F8F706D960C
:103A90008FAF6D97809172136D960FAD6D978013F8
:103AA0000FC080E00E94BC95F5CF2AAD3BAD4CAD78
:103AB0005DAD60E070E080E09FE30F941502DDCF24
:103AC000009171136C960FAF6C97202E312C25E569
:103AD000029FF0011124ED51FC4F108212A726968F
:103AE0008CAD9DADAEADBFAD2697B7FF07C0B0950D
:103AF000A095909581959F4FAF4FBF4F8283938341
:103B0000A483B58385E5829DF001839DF00D11248A
:103B1000ED51FC4F8EA59FA5A8A9B9A9B7FF07C075
:103B2000B095A095909581959F4FAF4FBF4F8683DD
:103B30009783A087B18785E5829DF001839DF00D75
:103B40001124ED51FC4F8EA99FA9A8ADB9ADB7FFC7
:103B500007C0B095A095909581959F4FAF4FBF4FEF
:103B600082879387A487B58785E5829DF001839D31
:103B7000F00D1124ED51FC4F8AA99BA9ACA9BDA958
:103B800086879787A08BB18B86819781A085B18529
:103B90004281538164817581481759076A077B0701
:103BA00014F4AC01BD0185E5829DF001839DF00D0B
:103BB0001124ED51FC4F82859385A485B58584172A
:103BC0009507A607B7070CF4A1C60AA91BA92CA93B
:103BD0003DA980179107A207B3070CF0A2C6D9012F
:103BE000C8019FC649A55AA54217530724F450930C
:103BF000390240933802809138029091390232C7DD
:103C000060E070E0CB016AC760E070E0CB0197C76D
:103C10000AA91BA92CA93DA9012B022B032B09F4EE
:103C20005DC46091A3097091A4098091A509909148
:103C3000A60929A53AA54BA55CA50E944CFE0F94A8
:103C4000F4020F9489036B017C018091C409909167
:103C5000C509A091C609B091C7092EA53FA548A9DD
:103C600059A982179307A407B50708F440C4811423
:103C70009104A104B10411F16091D3037091D403B4
:103C80008091D5039091D6036C157D058E059F0517
:103C9000A8F40F94C9012B013C01A5019401C701AF
:103CA000B6010F94C901461657066806790630F426
:103CB000C301B2010F94D90169017A0185E5829DA2
:103CC000F001839DF00D1124ED51FC4F868097800B
:103CD000A084B18481149104A104B10441F16091E4
:103CE000D7037091D8038091D9039091DA036C15B2
:103CF0007D058E059F05D8F42EA53FA548A959A995
:103D00000F94C9012B013C01A7019601C501B40123
:103D10000F94C901461657066806790640F4C30198
:103D2000B201A50194010F94D90169017A0185E5D9
:103D3000829DF001839DF00D1124ED51FC4F828492
:103D40009384A484B58481149104A104B10441F145
:103D50006091DB037091DC038091DD039091DE03C1
:103D60006C157D058E059F05D8F42EA53FA548A9A5
:103D700059A90F94C9012B013C01A7019601C50166
:103D8000B4010F94C901461657066806790640F437
:103D9000C301B201A50194010F94D90169017A010F
:103DA00085E5829DF001839DF00D1124ED51FC4FBE
:103DB00086849784A088B18881149104A104B104F9
:103DC00041F16091DF037091E0038091E1039091F4
:103DD000E2036C157D058E059F05D8F42EA53FA541
:103DE00048A959A90F94C9012B013C01A7019601CB
:103DF000C501B4010F94C901461657066806790635
:103E000040F4C301B201A50194010F94D9016901E5
:103E10007A0185E5829D8001839D100D11240D514D
:103E20001C4FF801E55BFF4FC082D182E282F38232
:103E3000C701B6010E94EBFD6B017C0129A53AA5E3
:103E40004BA55CA50F9410032D966CAF7DAF8EAF84
:103E50009FAF2D97D801DB966D937D938D939C93A7
:103E6000DE9720E030E040E85BE4C701B6010E9445
:103E70004CFE20E034E244EF59E40F9410030F9419
:103E80008203F80166A377A380A791A7F3A5FEABF1
:103E9000D8019C96BC91B9A7F801F5A5FDA7D8015A
:103EA0009E96BC91BAAF07EA19E02F961FAF0EAFEE
:103EB0002F9724960EAD1FAD2497005F1F4F27EA62
:103EC00039E028963FAF2EAF289724966EAC7FAC92
:103ED00024973EA93AAB49A54EA74F2E5B2E1EAEA6
:103EE000D3018D909D90AD90BD903D01E894B7F8C1
:103EF0002896EEADFFAD2897C190D190E190F1905A
:103F00002896FFAFEEAF2897A7019601C501B4012F
:103F10000F947604181624F5FEADFF2309F4F3C3BD
:103F2000A70196016EA979A58DA59AAD0E944CFEB8
:103F30006B017C012AA93EA5A201C501B4010E9422
:103F40004CFEA70196010F94760418164CF4A501B7
:103F50009401C701B6010F9410036AAB7EA72C0130
:103F60000615170509F0BCCF29960FAD2997002338
:103F700009F412C1C0904D13D0904E13E0904F132E
:103F8000F09050132DEB37E346E855E3B601C70137
:103F90000E94E6FD87FD00C12EA939A54DA55AADA9
:103FA000B601C7010F9476047C2C6D2C870118167E
:103FB00024F47EA869A40DA51AAD9601A701672D6A
:103FC000762DC8010F9410036B966CAF7DAF8EAF4A
:103FD0009FAF6B9721E533E128963FAF2EAF28972F
:103FE00029961FAE299780E090E0A0E8BFE32296D3
:103FF0008CAF9DAFAEAFBFAF22972896AEADBFAD31
:1040000028976D917D918D919D912896BFAFAEAF10
:1040100028976B962CAD3DAD4EAD5FAD6B970E9472
:104020004CFE4B015C012496EEADFFAD2497C19090
:10403000D190E190F1902496FFAFEEAF24972996AE
:10404000FFAD2997FF23B1F022962CAD3DAD4EADCB
:104050005FAD22970E944CFE4B015C0122962CAD75
:104060003DAD4EAD5FAD2297C701B6010E944CFE3B
:104070006B017C01A5019401C701B6010E94E6FD18
:1040800020E030E0A90187FF54C3C701B6010F94B7
:10409000760418164CF020E030E0A901C501B40107
:1040A0000E94E6FD87FF35C3A7019601C501B40153
:1040B0000F9415026B017C012F96AEADBFAD2F970B
:1040C0008D909D90AD90BD902F96BFAFAEAF2F97C6
:1040D000A5019401C701B6010F9476041816ECF4FB
:1040E000A7019601C501B4010F9410039B01AC0117
:1040F00022966CAD7DAD8EAD9FAD22970E944CFE99
:1041000022966CAF7DAF8EAF9FAF22972996BFAD41
:104110002997BF5F2996BFAF2997E1E6F3E128967B
:104120002EAD3FAD2897E217F30709F066CF299629
:104130003FAD2997332371F022962CAD3DAD4EADA6
:104140005FAD2297672D762DC8010E944CFE762E1A
:10415000672E8C0124EA30E74DE75FE3672D762D6B
:10416000C8010E944CFE6B017C01AC019B01609177
:10417000BF097091C0098091C1099091C2090F9443
:1041800076041816BCF4A70196016AA97EA5C2019F
:104190000F947604181674F485E5829DF001839DD2
:1041A000F00D1124ED51FC4F8081846080837AA84A
:1041B0006EA4820185E5829DF001839DF00D11249E
:1041C000ED51FC4F872D962DD80183AB94ABA5AB59
:1041D000B6AB2D966CAD7DAD8EAD9FAD2D97905845
:1041E0009B01AC010F94160267962CAD3DAD4EAD10
:1041F0005FAD67970E944CFE9B01AC016BE077EDD1
:1042000083E29BE30F9415020F94C4046B017C01BD
:10421000272D362DA8010F94760418161CF07C2C3F
:104220006D2C870185E5829DF001839DF00D1124A1
:10423000ED51FC4F872D962DD80187A790ABA1ABF0
:10424000B2ABB0809601A7016EA979A58DA59AADF4
:104250000E94E6FD18160CF48DC283E045E5C42EDD
:10426000C29CF001C39CF00D1124ED51FC4FB82A03
:10427000B08280E1FE017196A1E5B3E101900D925B
:104280008A95E1F78EA999A5ADA5BAAD80934D1396
:1042900090934E13A0934F13B09350138AA99EA5E9
:1042A000D2018093BF099093C009A093C109B09334
:1042B000C2092EA939A54DA55AAD60E070E080E88D
:1042C0009FE30F9410034B015C01AC019B016AA9B1
:1042D0007EA5C2010E944CFE6DA37EA38FA398A76A
:1042E000A5019401672D762DC8010E944CFE69A39B
:1042F0007AA38BA39CA36C960FAD6C970C9DC00109
:104300001124AE014B5D5F4FBE016F5D7F4F8D513C
:104310009C4F0E94F2196D961FAD6D97109371130B
:1043200080E16396EEADFFAD6397A1E6B3E1019046
:104330000D928A95E1F78091711390917213891B08
:104340008F70843008F4A5C02090721323942394B6
:10435000222D2F70222E1091711311501F703C2DA1
:10436000130260011124A6014D515C4F6A0135E52D
:10437000332E11501F70812E012E000C9908389C8D
:10438000C001399C900D1124DC01AD51BC4F7D0161
:104390004C9042FC7EC0B32D1B02C0011124FC01D5
:1043A000ED51FC4FFBABEAABD701D3965C90D397B2
:1043B000D4966C90D497D5967C90D597D6960C9140
:1043C000D6979F962D913D914D915C91D297652DF9
:1043D000762D872D902F0E94E6FD882309F457C083
:1043E00041FC43C0F601A7A4B0A8C1A8D2A8A60169
:1043F0009501652D762D872D902F0E94E6FD1816CC
:10440000A4F5A6019501C601B5010E944CFE5B0111
:104410006C01D701DB966D917D918D919C91DE971A
:1044200090589B01AC010F941602EAA9FBA927A999
:1044300030AD41AD52AD0E944CFE9B01AC01C601B6
:10444000B5010F9415020F94C4046B017C019B010C
:10445000AC01652D762D872D902F0E94E6FD87FDFE
:1044600004C05C2C6D2C7E2C0F2D389CF001399CE7
:10447000F00D1124ED51FC4F852D962DA72DB02F59
:1044800087A790ABA1ABB2AB842D81608083211252
:1044900073C110917213F12C00E090E080E025E5EB
:1044A000E22E20917113211709F469C11E9D90011C
:1044B0001124A9014D515C4F6A01009741F0DC01C4
:1044C0002C9121FD04C06F2D702F0E9484191F5F55
:1044D0001F708F2D902FFC2C0D2DE3CF60919B0929
:1044E00070919C0980919D0990919E09A2CB8114A5
:1044F0009104A104B104A9F16091D3037091D40394
:104500008091D5039091D6036C157D058E059F058E
:1045100040F50E94EBFD2EA93FA948AD59AD0E9480
:104520004CFE2B013C01C501B4010E94EDFD4B0185
:104530005C01C701B6010E94EBFDA50194010E9438
:104540004CFEA30192010F947604181654F4A501B1
:104550009401C301B2010F9410030F9489036B01FE
:104560007C0185E5829DF001839DF00D1124ED51C4
:10457000FC4F46805780608471844114510461046B
:104580007104A9F16091D7037091D8038091D90388
:104590009091DA036C157D058E059F0540F50E940C
:1045A000EBFD2EA93FA948AD59AD0E944CFE4B0131
:1045B0005C01C301B2010E94EDFD2B013C01C7016A
:1045C000B6010E94EBFDA30192010E944CFEA501E1
:1045D00094010F947604181654F4A3019201C501B6
:1045E000B4010F9410030F9489036B017C0185E5DE
:1045F000829DF001839DF00D1124ED51FC4F42840A
:104600005384648475844114510461047104A9F1D4
:104610006091DB037091DC038091DD039091DE03F8
:104620006C157D058E059F0540F50E94EBFD2EA9BA
:104630003FA948AD59AD0E944CFE4B015C01C3013E
:10464000B2010E94EDFD2B013C01C701B6010E94A1
:10465000EBFDA30192010E944CFEA50194010F9471
:104660007604181654F4A3019201C501B4010F9405
:1046700010030F9489036B017C0185E5829DF00195
:10468000839DF00D1124ED51FC4F86849784A08802
:10469000B18881149104A104B10409F4BACB6091EA
:1046A000DF037091E0038091E1039091E2036C15C8
:1046B0007D058E059F0508F0ACCB0E94EBFD2EA971
:1046C0003FA948AD59AD0E944CFE2B013C01C501EC
:1046D000B4010E94EDFD4B015C01C701B6010E94CF
:1046E000EBFDA50194010E944CFEA30192010F94E1
:1046F000760418160CF08DCBA5019401C301B2010C
:104700000F9410038AC5CAAADEA6270121E02EAFA6
:1047100027CCF7FAF094F7F8F094A7019601C501B9
:10472000B4010F94760418160CF0C6CC7501640120
:10473000C3CCC701B6010E94E6FD87FD09C020E099
:1047400030E0A901C501B4010F94760418162CF4C9
:10475000A5019401C701B601ABCCB7FAB094B7F884
:10476000B094A5019401C701B6010E94E6FD87FF40
:10477000A3CCDCCF81E072CDCAA8DBA8FACD00972C
:1047800041F0FC01208121FD04C06F2D702F0E949B
:104790008419F090721310E000E085E5E82EAF2C4C
:1047A0000F2C000CBB08809171138A151B0409F4AF
:1047B0005DC0FF2D2E2DF202C0011124AC014D5120
:1047C0005C4F6A010115110509F44AC0D8018C91AA
:1047D00080FD0AC0EA9CF001EB9CF00D1124ED5124
:1047E000FC4F808180FF3CC0F80123A534A545A57E
:1047F00056A560E070E080E89FE30F9410032B0162
:104800003C01EA9CF001EB9CF00D1124ED51FC4FB2
:10481000AC019B0167A570A981A992A90E944CFED9
:1048200069A37AA38BA39CA3A3019201D8019F96AD
:104830006D917D918D919C91D2970E944CFE6DA3BC
:104840007EA38FA398A7AE014F5D5F4FBE016B5D46
:104850007F4FC8010E94F219F80180818E7F80830A
:10486000F394FF2DFF70FF2E860199CF01151105DE
:1048700099F1D8019B962D913D914D915C919E9718
:1048800060E070E080E89FE30F9410036B017C010F
:104890002DEC3CEC4CE45DE30E944CFE69A37AA352
:1048A0008BA39CA3A7019601F80167A570A981A914
:1048B00092A90E944CFE6DA37EA38FA398A7AE0180
:1048C0004F5D5F4FBE016B5D7F4FC8010E94F219C3
:1048D000D8018C918E7F8C93C05ADF4F0FB6F8941D
:1048E000DEBF0FBECDBFDF91CF911F910F91FF9023
:1048F000EF90DF90CF90BF90AF909F908F907F9080
:104900006F905F904F903F902F9008958AA99BA938
:10491000ACA9BDA984179507A607B70714F4DB0156
:10492000CA0125E5229DF001239DF00D1124ED51D2
:10493000FC4F828B938BA48BB58B0697A105B10599
:1049400058F280914C02882309F410C1C0904602AD
:10495000D0904702E0904802F090490280904202D5
:1049600090904302A0904402B09045024090040D04
:104970005090050D6090060D7090070DA3019201F7
:10498000C501B4010E94E6FD18160CF4E0C0A301B5
:104990009201C701B6010F94760487FDD8C000913B
:1049A0004B022E960FAF2E9710914A021EAF002E8B
:1049B000000C110B2EAD022E000C330B3AA729A7C9
:1049C000A5019401C301B2010F9415022B013C0112
:1049D000A5019401C701B6010F9415029B01AC011A
:1049E000C301B2010F9410034B015C01B80149A54A
:1049F0005AA5641B750B072E000C880B990B0E949F
:104A0000EDFD9B01AC01C501B4010E944CFE4B01C0
:104A10005C015EAD652F550F770B880B990B0E94DB
:104A2000EDFD9B01AC01C501B4010F9416020F947A
:104A300082039B0170933902609338022E968FADEA
:104A40002E979EAD98170CF0CDC80217130724F4CB
:104A50001093390200933802809138029091390204
:104A600009A51AA58017910724F410933902009321
:104A70003802609138027091390204E610E0061B9A
:104A8000170B10933B0200933A02072E000C880B81
:104A9000990B0E94EDFD2AE037ED43E25CE30E94B2
:104AA0004CFE4B015C012DEB37E346E855EB0F94D0
:104AB000760487FD0BC02DEB37E346E855E3C501CF
:104AC000B4010E94E6FD18160CF09AC8A5019401E5
:104AD00060E070E080E89FE30F9410036093C10CE6
:104AE0007093C20C8093C30C9093C40CB801110F47
:104AF000880B990B0E94EDFD2AE037ED43E25CE361
:104B00000E944CFE4B015C012DEB37E346E855EB70
:104B10000F94760487FD0BC02DEB37E346E855E391
:104B2000C501B4010E94E6FD18160CF06DC8A50180
:104B3000940160E070E080E89FE30F9410036093BD
:104B4000C50C7093C60C8093C70C9093C80C209131
:104B5000040D3091050D4091060D5091070DC701D0
:104B6000B6010E94E6FD87FD10924C0285E5829D0C
:104B70008001839D100D11240D511C4FD8015296B8
:104B80006D917D918D919C9155970E94EBFD6B01EC
:104B90007C012091C10C3091C20C4091C30C50910A
:104BA000C40C0E944CFE0F948903F801668B778B2E
:104BB000808F918F2091C50C3091C60C4091C70C0D
:104BC0005091C80CC701B6010E944CFE0F94890396
:104BD000D8015A966D937D938D939C935D97F801C0
:104BE000E15BFF4F8091DF0C9091E00C918380831B
:104BF0002DA5F801218382819381A481B581892B20
:104C00008A2B8B2B09F0429885E5829DF001839DCC
:104C1000F00D1124ED51FC4F86819781A085B1855F
:104C2000892B8A2B8B2B09F0179885E5829DF00143
:104C3000839DF00D1124ED51FC4F82859385A48551
:104C4000B585892B8A2B8B2B09F015988AA99BA9EE
:104C5000ACA9BDA9892B8A2B8B2B09F4E4C28091C6
:104C6000C309882319F081508093C3091DA5111130
:104C70000CC02E989FB7F89480910B018D7F809384
:104C80000B019FBF80E28093C3090091770909A7B8
:104C9000109178091DA70091790910917A09299638
:104CA0002FAD299727963FAD279764964FAD649710
:104CB0002A965FAD2A9769A57DA5C8010F94760451
:104CC000181674F029960FAD299709A727961FADDE
:104CD00027971DA764960FAD64972A961FAD2A9754
:104CE00026966CAD7DAD8EAD9FAD26970E94EDFDF5
:104CF0002091A10C3091A20C4091A30C5091A40CD6
:104D00000E944CFE6B017C01C982DA82EB82FC823C
:104D10006EA57FA588A999A90E94EDFD2091A50CFB
:104D20003091A60C4091A70C5091A80C0E944CFE0B
:104D30002B013C014D825E826F8278866EA97FA92D
:104D400088AD99AD0E94EDFD2091A90C3091AA0C7F
:104D50004091AB0C5091AC0C0E944CFE4B015C019D
:104D600089869A86AB86BC862091AD0C3091AE0CBC
:104D70004091AF0C5091B00C6AAD7BAD8CAD9DAD48
:104D80000E944CFE6D877E878F87988B25E5229D3C
:104D9000F001239DF00D1124ED51FC4F2281338150
:104DA0004481558126303105410551059CF4268109
:104DB000378140855185263031054105510554F430
:104DC00022853385448555859F77263031054105F9
:104DD0005105A4F1A7019601C701B6010E944CFE3E
:104DE00026966CAF7DAF8EAF9FAF2697A301920141
:104DF000C301B2010E944CFE9B01AC0126966CAD32
:104E00007DAD8EAD9FAD26970F9416022B013C0110
:104E1000A5019401C501B4010E944CFE9B01AC01A7
:104E2000C301B2010F9416020F94C40425E5229D1C
:104E3000F001239DF00D1124ED51FC4F67AB70AFD5
:104E400081AF92AF85E5829DF001839DF00D112425
:104E5000ED51FC4F27A930AD41AD52AD60E070E09F
:104E600080E89FE30F9410036B966CAF7DAF8EAF1D
:104E70009FAF6B979B01AC0169A57DA5C8010E94FE
:104E80004CFE6B017C018091711390917213891B10
:104E90008F7029968FAF2997A701960160E074E281
:104EA00084E799E40F9410030F9483044B015C0191
:104EB00029968FAD299782508630C0F58091CF0317
:104EC0009091D003A091D103B091D2038816990696
:104ED000AA06BB0658F5BC01CD01681979098A09F3
:104EE0009B09660F771F881F991F29960FAD299779
:104EF000202F30E050E040E00F94D901CA01B90101
:104F00000E94EBFD0F948203860E971EA81EB91E09
:104F1000C501B4010E94EBFD9B01AC0160E074E2AD
:104F200084E799E40F9410036B017C018FB7F89428
:104F30004091FA0B5091FB0B6091FC0B7091FD0BB3
:104F4000840E951EA61EB71E8092FA0B9092FB0B44
:104F5000A092FC0BB092FD0B8FBF85E5829D800176
:104F6000839D100D11240D511C4FD801D7962D9102
:104F70003D914D915C91DA9767962CAF3DAF4EAF66
:104F80005FAF6797C701B6010E944CFE2D966CAFCC
:104F90007DAF8EAF9FAF2D97F80163A774A785A74C
:104FA00096A722893389448955892EA73FA748AB04
:104FB00059ABCA01B9010E94EBFD6EAB7FAB88AF64
:104FC00099AF9B01AC01C701B6010E944CFE0F9442
:104FD000F4020F94890361966CAF7DAF8EAF9FAFE3
:104FE0006197F801FF9660837183828393838E01BA
:104FF0000F5F1F4F28961FAF0EAF2897005F1F4F00
:1050000024961FAF0EAF24970BE719E06F961FAFE2
:105010000EAF6F9724960EAD1FAD2497A1961FAFCC
:105020000EAFA19719A61DA610E81AAF0FE30EAF99
:105030002896AEADBFAD28972D913D914D915D91D4
:105040002896BFAFAEAF2897C701B6010E944CFEAD
:10505000A196EEADFFADA19761937193819391936A
:10506000A196FFAFEEAFA1974B015C01E894B7F8B2
:105070006F96AEADBFAD6F974D905D906D907D908A
:105080006F96BFAFAEAF6F97A5019401C301B20198
:105090000E94E6FD87FF14C0A5019401C301B2017F
:1050A0000F9410035B018C0129A53DA54AAD5EADAF
:1050B0000E94E6FD87FF04C0A9A6BDA60AAF1EAFE9
:1050C00024960EAD1FAD249728962EAD3FAD2897A0
:1050D0000217130709F0ACCF20E030E040E85FE3AF
:1050E00069A57DA58AAD9EAD0E94E6FD87FF4EC0F5
:1050F000680130E1C30ED11C7801D7012D913D919B
:105100004D915D917D018D010450110969A57DA529
:105110008AAD9EAD0E944CFEF8016083718382834C
:105120009383CE14DF0449F785E5829D8001839D3A
:10513000100D11240D511C4F2D962CAD3DAD4EADD3
:105140005FAD2D9769A57DA58AAD9EAD0E944CFEF1
:10515000D8019B966D937D938D939C939E97015C54
:105160001F4F61966CAD7DAD8EAD9FAD61970E9476
:10517000EBFD29A53DA54AAD5EAD0E944CFE0F9406
:105180008903F80160837183828393836B962CADCE
:105190003DAD4EAD5FAD6B976EA97FA988AD99AD62
:1051A0000E944CFE69A77AA78BA79CA785E5829DE4
:1051B000F001839DF00D1124ED51FC4F828093800E
:1051C000A480B58081149104A104B10411F00C9461
:1051D000081E86819781A085B185892B8A2B8B2B10
:1051E00011F00C94081E82859385A485B585892BC2
:1051F0008A2B8B2B11F00C94081E20919F09309163
:10520000A0094091A1095091A20969A57AA58BA591
:105210009CA50E944CFE0F94F4020F9489036B012D
:105220007C010C94091F0091730909A7109174095E
:105230001DA7009175091091760931CD8091630AFF
:105240008630D8F496E0899FF0011124E15CF54F97
:1052500020914F0230915002318320834091CA0C3B
:105260005091CB0C6091CC0C7091CD0C4283538348
:10527000648375838F5F8093630A0895EF92FF9232
:105280000F93CF93DF93D82F7A01C22F80E00E9433
:10529000AACAD11101C0C0E28C2F0E949BCAC2E1F0
:1052A000F7016491662359F0CC2389F085E393E1FB
:1052B0000E947ECAC150FFEFEF1AFF0AF1CFC15022
:1052C00030F060E285E393E10E947ECAF8CF802F40
:1052D000DF91CF910F91FF90EF900C949BCA8F922A
:1052E0009F92AF92BF92CF92DF92EF92FF92CF93B5
:1052F000682F8BE00E94AACA0E949BD9C82F809079
:10530000311390903213A0903313B0903413609106
:105310002F1370913013072E000C880B990B0E94ED
:10532000EDFD6B017C0182E00E949BCA20E030E031
:1053300040E05FE3C501B4010F9416020F948203AD
:10534000CB010E941DD70E9431C76FE285E393E134
:105350000E947ECAC11148C080912713882309F496
:1053600043C060E285E393E10E947ECA20E030E022
:1053700040E251E4C701B6010F94760487FD05C0F1
:1053800060E285E393E10E947ECA20E030E048ECD1
:1053900052E4C701B6010F94760487FD05C060E2B0
:1053A00085E393E10E947ECA81E00E949BCA60E28D
:1053B00085E393E10E947ECA20E030E040E251E4C0
:1053C000C701B6010E94E6FD87FF1EC060E285E3CB
:1053D00093E1CF91FF90EF90DF90CF90BF90AF908F
:1053E0009F908F900C947ECA20E030E040E05FE315
:1053F000C701B6010F9416020F948203CB010E94DD
:10540000F2D60E9431C7D0CFCF91FF90EF90DF90BE
:10541000CF90BF90AF909F908F900895CF93DF93E0
:10542000EC01FE018491882321F00E949BCA219601
:10543000F8CFDF91CF910895CF93DF93EC0189915D
:10544000882319F00E949BCAFACFDF91CF9108956B
:105450000F931F93CF93DF938C01EB0161E081E009
:105460000E94AACAC8010E940E2A209731F16AE35D
:1054700085E393E10E947ECAC8010E94D3D90196B8
:10548000FE019F012C1B3D0B41914111FACF820F70
:10549000931F61E042970CF062E082E1821B0E9460
:1054A000AACA60E285E393E10E947ECACE01DF9141
:1054B000CF911F910F910C941C2ADF91CF911F91D6
:1054C0000F910895CF9390913A0A981709F44CC020
:1054D000C82F80933A0A823071F4C4E0C15008F4B6
:1054E00043C088E0C89FB00111246A527E4E8C2FC1
:1054F0000E944519F3CF6EEC71E180E00E944519DE
:1055000066EC71E181E00E9445196EEB71E182E089
:105510000E94451966EB71E186E00E9445196EEA2A
:1055200071E187E00E944519C13081F466EA71E1BA
:1055300085E00E9445196EE971E184E00E944519F9
:1055400066E971E183E0CF910C9445196EE871E151
:1055500083E00E94451966E871E184E00E944519E4
:105560006EE771E185E0EFCFCF910895CF92DF92A2
:10557000EF92FF920F931F93CF93DF93EC016A0199
:105580007B0180914F02909150028C179D07C9F1C9
:1055900023E5CD36D20709F03DC085519E4471F414
:1055A0000E940ACD6E517B4F8F4F9F4F60933B0AF5
:1055B00070933C0A80933D0A90933E0AD093500228
:1055C000C0934F02C092CA0CD092CB0CE092CC0C8C
:1055D000F092CD0C8EE4C531D80721F41092FE0B69
:1055E0001092630A0E945ACB81E0C551DE4409F053
:1055F00080E00E94622A82E080934E0281E08093E4
:10560000F40BDF91CF911F910F91FF90EF90DF90FE
:10561000CF9008952EE4C531D20781F68D5693457B
:1056200019F0C5E1DEE4CACF0E940ACD00913B0A21
:1056300010913C0A20913D0A30913E0A601B710B8B
:10564000820B930B97FFEDCFCDE4DBE2B7CF21E0E8
:105650002093FE0B6093730A7093740A8093750A0B
:105660009093760A40E050E0BA018091780A9091D8
:10567000790A0C94B62A60E070E080E291E40C9420
:10568000272B60E070E080E89FE30C94272B6DEC03
:105690007CEC8CEC9DE30C94272B40E050E0BA01AD
:1056A0008AEB92E40E94B62A1092690A10926A0A62
:1056B00010926B0A10926C0A81E08093FE0B0895A1
:1056C0008091550983FD18C080910E0C811114C082
:1056D00020912C0230912D0280912F139091301344
:1056E000821793074CF40E941E2940E050E0BA0153
:1056F00085EA9FED0C94B62A81E08093FE0B40E092
:1057000050E0BA0189E29EED0E94B62A85E594E157
:105710009093630F8093620F0C94248940E050E0D3
:10572000BA0185E19EE40C94B62A2F923F924F92E3
:105730005F926F927F928F929F92AF92BF92CF9221
:10574000DF92EF92FF920F931F93CF93DF93CDB72A
:10575000DEB7CD54D1090FB6F894DEBF0FBECDBF72
:105760001092030C8091CA0C9091CB0CA091CC0CA0
:10577000B091CD0C81309048A105B10540F0109258
:10578000CA0C1092CB0C1092CC0C1092CD0C109134
:10579000CA0C8091640A1816DCF4282F082E000C1D
:1057A000330B21503109412F012E000C550B4217AC
:1057B000530774F01FEF180F812F90E0B0E0A0E0C6
:1057C0008093CA0C9093CB0CA093CC0CB093CD0CCF
:1057D0001092F40B8091F50B181714F41093F50B3D
:1057E0008091F50B082E000C990B0396212F012EAA
:1057F000000C330B8217930724F48DEF810F8093F5
:10580000F50B3090F50B34E0330D2C963FAF2C9711
:1058100081E092E1492E92E1592EFE0131967F01FD
:1058200092E093192D969FAF2D972AE0622E712C4E
:1058300037E0C32E32E1D32E4FEFA42E41E1B42E38
:1058400056EF852E51E1952EF82FF3192E96FFAFC6
:105850002E97232C219431102FC08823B1F01116DC
:10586000A4F08091CA0C9091CB0CA091CC0CB0917B
:10587000CD0C0196A11DB11D8093CA0C9093CB0C49
:10588000A093CC0CB093CD0C1F5F80914E02882367
:1058900041F030E020E041E061E372E1822D0E94BE
:1058A00019DA80E033942C963FAD2C973312D3CF86
:1058B00083E08093640A64C021E032127BC080914F
:1058C000040C811112C080914E02882351F381E0B3
:1058D000113009F080E000E22EE344E252E12E961E
:1058E0006FAD2E970E943E29DCCF113061F71092E8
:1058F0004A0D0E948E2B10934A0D159880913C0DF5
:1059000090913D0DB3010F9423059F938F937F9347
:105910006F93DF92CF92FF92EF920E947DFDC701BD
:105920000E9447C48091490D8F938091480D8F93B9
:105930008091470D8F938091460D8F93BF92AF92C8
:10594000FF92EF920E947DFDC7010E9447C48091A3
:105950003F0D8F9380913E0D8F939F928F92FF9278
:10596000EF920E947DFDC7010E9447C40FB6F894D4
:10597000DEBF0FBECDBF8091F40B882309F4A3CF07
:10598000C35BDF4F0FB6F894DEBF0FBECDBFDF9114
:10599000CF911F910F91FF90EF90DF90CF90BF902C
:1059A000AF909F908F907F906F905F904F903F90BF
:1059B0002F90089592E0391274CF8091040C8111D8
:1059C00011C080914E02882309F46BCF81E0123020
:1059D00009F080E000E22EE347E152E12D966FAD41
:1059E0002D9780CF123069F710924A0D1092220D38
:1059F000EFE2FDE02DE011922A95E9F75F924F92D8
:105A0000FF92EF920E947DFDC7010E9447C40E9451
:105A10008E2B0F900F900F900F908091F40B882396
:105A200081F2AECFE091630AEE2389F0E150E0937A
:105A3000630A86E0E89FF0011124E15CF54F4281A2
:105A4000538164817581808191810C94B62A0C9474
:105A50008E2B2F923F924F925F926F927F928F92F6
:105A60009F92AF92BF92CF92DF92EF92FF920F93ED
:105A70001F93CF93DF931092030C8091CA0C9091E7
:105A8000CB0CA091CC0CB091CD0C81309048A105ED
:105A9000B10540F01092CA0C1092CB0C1092CC0CB5
:105AA0001092CD0CC091CA0C80918C0A1816DCF4AF
:105AB000282F082E000C330B215031094C2F0C2EAF
:105AC000000C550B4217530774F0CFEFC80F8C2F03
:105AD00090E0B0E0A0E08093CA0C9093CB0CA09330
