:100000000C9464190C9495190C9495190C949519E9
:100010000C9495190C9495190C9495190C949519A8
:100020000C9495190C9495190C9495190C94951998
:100030000C9495190C9495190C9495190C94951988
:100040000C9495190C947BDE0C9495190C949519CD
:100050000C9495190C9495190C94EAD80D942E04CF
:100060000C9495190C94F3540C9495190C949519BF
:100070000C9495190C9495190C9495190C94951948
:100080000C94AAE80C9495190C9495190C94951954
:100090000C9495190C9495190C9495190C94951928
:1000A0000C9495190C9495190C947CE80C94951962
:1000B0000C9495190C9495190C9495190C944EE880
:1000C0000C9495190C9495190C9495190C949519F8
:1000D0000C9495190C9495190C9495190C949519E8
:1000E0000C949519084AD73B3BCE016E84BCBFFDEA
:1000F000C12F3D6C74319ABD56833DDA3D00C77FF8
:1001000011BED9E4BB4C3E916BAAAABE0000008090
:100110003F05A84CCDB2D44EB93836A9020C50B91F
:10012000918688083CA6AAAA2ABE000000803F004B
:100130000D949E120D9475000D9454000D94DA00E8
:100140000D948F000D946B000D9431130D94EE00FF
:100150000D9429070D942C050D94BC000D94D30724
:100160000D94D0000D9499000D94041F0D9421114D
:100170000D94C6000D9492110D94590B0D948700A7
:100180000D94E4000D947F000D945C000D946E0CB2
:100190000D94A3000D9432070D94AD000D94181228
:1001A0000D94C0200D948B080D9461000D94770C74
:1001B0000D94160A4E414E494E495459494E46CD6A
:1001C000CCCC3D0AD7233C17B7D13877CC2B32950E
:1001D00095E6241FB14F0A000020410000C84200EC
:1001E000401C4620BCBE4CCA1B0E5AAEC59D744373
:1001F0004F4D4D554E49434154494F4E004452597D
:1002000052554E004552524F525300494E464F00F0
:100210004543484F004D6573682056616C696461C1
:1002200074696F6E2053746F707065642E00696E10
:10023000206D6F76655F746F282920666565645F41
:1002400076616C756520666F722058593A004C656E
:100250006176696E6720473236004732362048653E
:100260006174696E67204E6F7A7A6C652E00473232
:10027000362048656174696E67204265642E0044CB
:100280006F6E65205072696D696E6700446F6E65B0
:10029000205072696D696E67004669786564204C0C
:1002A000656E677468205072696D652E00557365C0
:1002B000722D436F6E74726F6C6C6564205072693E
:1002C0006D65002C2065793D0029202D3E20286594
:1002D000783D002C2073793D0020436F6E6E65637E
:1002E00074696E67207769746820766572746963D3
:1002F000616C206C696E65202873783D002C206548
:10030000793D0029202D3E202865783D002C207362
:10031000793D0020436F6E6E656374696E67207768
:1003200069746820686F72697A6F6E74616C206C92
:10033000696E65202873783D004C656176696E674B
:1003400020473236002C2079693D00202020446F60
:10035000696E6720636972636C652061743A202856
:1003600078693D003F53706563696669656420582C
:100370002C5920636F6F7264696E617465206F75AC
:1003800074206F6620626F756E64732E0A003F28BA
:10039000522965706561742076616C7565206E6F99
:1003A0007420706C61757369626C653B206D757348
:1003B00074206265206174206C6561737420312E35
:1003C0000A003F537065636966696564206E6F7AE1
:1003D0007A6C652074656D706572617475726520E4
:1003E0006E6F7420706C61757369626C652E0A00A3
:1003F0003F5370656369666965642066696C616D09
:10040000656E742073697A65206E6F7420706C61FC
:10041000757369626C652E0A003F53706563696687
:10042000696564207072696D65206C656E677468BB
:10043000206E6F7420706C61757369626C652E0A32
:10044000003F537065636966696564206E6F7A7AF0
:100450006C652073697A65206E6F7420706C6175AD
:100460007369626C652E0A003F5265747261637431
:10047000696F6E204D756C7469706C696572206D62
:10048000757374206265207370656369666965645D
:100490002E0A003F53706563696669656420526582
:1004A0007472616374696F6E204D756C7469706CE1
:1004B000696572206E6F7420706C61757369626C0F
:1004C000652E0A003F537065636966696564206C38
:1004D0006179657220686569676874206E6F742041
:1004E000706C61757369626C652E0A003F537065AC
:1004F000636966696564206265642074656D706512
:10050000726174757265206E6F7420706C617573A2
:1005100069626C652E0A0047323620636F6D6D612B
:100520006E6420737461727465642E2057616974FF
:10053000696E6720666F72206865617465722873E2
:10054000292E0A004B494C4C45442E200053544F51
:10055000505045442E20005072696E7465722073AD
:10056000746F707065642064756520746F206572A7
:10057000726F72732E2046697820746865206572E8
:10058000726F7220616E6420757365204D39393940
:1005900020746F20726573746172742E2028546504
:1005A0006D70657261747572652069732072657310
:1005B00065742E20536574206974206166746572B9
:1005C0002072657374617274696E67290A004E6FD8
:1005D00020436865636B73756D2077697468206C60
:1005E000696E65206E756D6265722C204C61737446
:1005F000204C696E653A2000636865636B73756DA6
:10060000206D69736D617463682C204C6173742074
:100610004C696E653A20004C696E65204E756D62BE
:100620006572206973206E6F74204C617374204C66
:10063000696E65204E756D6265722B312C204C61A0
:100640007374204C696E653A20004D313130004D95
:100650003331004731204631303030205830205976
:1006600032313000473238205859005344207265E7
:100670006164206572726F720A00446F6E6520704B
:1006800072696E74696E672066696C650A0020493C
:100690006E76616C69642065787472756465722029
:1006A0000042696C696E656172204C6576656C69A3
:1006B0006E6720477269643A0A00473238205A2030
:1006C000466F7262696464656E0A00473238205A68
:1006D00020466F7262696464656E0020706F736992
:1006E00074696F6E206F7574206F662072616E671B
:1006F000652E0A003F50726F626520002028445228
:100700005952554E2900473239204175746F2042A5
:100710006564204C6576656C696E670028422961C6
:10072000636B00284629726F6E740028522969672E
:10073000687400284C29656674003F285629657244
:10074000626F7365206C6576656C20697320696DD6
:10075000706C61757369626C652028302D34292EA8
:100760000A00426164205A2076616C75650A004E69
:100770006F2062696C696E65617220677269640AD4
:1007800000526573756D696E67207072696E7400D2
:100790004D61676E61204475616C2072656164799A
:1007A0002E00436C69636B20746F20726573756DE6
:1007B000652E2E2E004D3132350044656C6574690E
:1007C0006F6E206661696C65642C2046696C653AC1
:1007D000200046696C652064656C657465643A0048
:1007E0006F70656E206661696C65642C2046696C6B
:1007F000653A200048656174696E6720646F6E65B4
:100800002E0020573A00452569202573004D616769
:100810006E61204475616C2072656164792E0042BE
:10082000656420646F6E652E0020573A004265644F
:100830002048656174696E672E00205A3A0020597D
:100840003A0020436F756E7420583A0020453A00F4
:10085000205A3A0020593A00583A003A0043617051
:100860003A00205A00205900580020204D61783A63
:100870002000205A00205900580020204D696E3A6F
:1008800020004F6E20004F666600536F667420652F
:100890006E6473746F70733A200020643A002069AC
:1008A0003A0020703A004B64200023646566696E4C
:1008B00065202044454641554C545F004B6920005B
:1008C00023646566696E65202044454641554C5455
:1008D0005F004B70200023646566696E65202044CC
:1008E000454641554C545F00504944204175746F52
:1008F00074756E652066696E697368656421205041
:10090000757420746865206C617374204B702C20A2
:100910004B6920616E64204B6420636F6E73746159
:100920006E74732066726F6D2062656C6F772069DC
:100930006E746F20436F6E66696775726174696F5C
:100940006E2E680A00504944204175746F74756EAC
:1009500065206661696C6564212074696D656F75D9
:10096000740A00544845524D414C2052554E41574F
:10097000415900546865726D616C2052756E6177E3
:1009800061790048656174696E67206661696C65AC
:10099000640048656174696E67206661696C6564AE
:1009A00000504944204175746F74756E652066610E
:1009B000696C6564212054656D706572617475722F
:1009C0006520746F6F20686967680A00204B643A7D
:1009D0002000204B693A2000204B703A20000A206A
:1009E000436C617373696320504944200A002054AA
:1009F000753A2000204B753A2000206D61783A202E
:100A000000206D696E3A200020643A20002062695F
:100A100061733A20004F66660A00466164652048AB
:100A200065696768742000426564204C6576656C72
:100A3000696E6720004661696C656420746F20658B
:100A40006E61626C6520426564204C6576656C69F8
:100A50006E670A004F464600252900257C002028A5
:100A600000252920746F205A00257C002028004F83
:100A70004E2066726F6D205A004772616469656E20
:100A800074204D6978200054454D5020544F4F201C
:100A90004C4F57210047322F47332062616420704A
:100AA0006172616D65746572730A00536C6565707F
:100AB0002E2E2E00205A3A200020593A200042655E
:100AC0006420583A20004D65736820706F696E7419
:100AD0002063616E6E6F74206265207265736F6C47
:100AE0007665640A004E6F206D6F76652E00456E48
:100AF000642066696C65206C6973740A00426567DE
:100B0000696E2066696C65206C6973740A002569DA
:100B1000730025696D2025697300256968202569A2
:100B20006D20256973002569642025696820256981
:100B30006D20256973002569792025696420256960
:100B4000682025696D20256973005072696E7420D4
:100B500074696D653A200050726F746563746564E2
:100B60002050696E0A006F6E2E0A006F66662E0AAC
:100B700000473236204465627567200045256920AC
:100B80002573004D61676E61204475616C2072654C
:100B90006164792E006F66660010020B020402FD8C
:100BA00001EF0144454255473A004B494C4C4544FE
:100BB0002E20004D3131332053006F6B004D6167A3
:100BC0006E61204475616C204F66662E00454D4570
:100BD0005247454E43595F5041525345520043419D
:100BE00053455F4C494748545F4252494748544E29
:100BF00045535300544F47474C455F4C4947485471
:100C00005300534F4654574152455F504F5745523A
:100C1000004255494C445F50455243454E54004CA8
:100C20004556454C494E475F44415441005A5F5038
:100C3000524F4245004155544F4C4556454C00508B
:100C400052494E545F4A4F420050524F475245530B
:100C500053004155544F5245504F52545F54454DE7
:100C60005000564F4C554D45545249430045455050
:100C7000524F4D0053455249414C5F584F4E5F58BB
:100C80004F4646004649524D574152455F4E414DF1
:100C9000453A4D61726C696E20312E312E382E33FB
:100CA00020284769746875622920534F555243457F
:100CB0005F434F44455F55524C3A68747470733AC1
:100CC0002F2F6769746875622E636F6D2F4D617287
:100CD0006C696E4669726D776172652F4D61726CD9
:100CE000696E2050524F544F434F4C5F56455253FC
:100CF000494F4E3A312E30204D414348494E455FD1
:100D0000545950453A4D61676E61204475616C20BD
:100D100045585452554445525F434F554E543A310D
:100D200020555549443A63656465326132662D3415
:100D30003161322D343734382D396231322D6335FB
:100D4000356336326633363766660A002F2F200049
:100D50004D31343520533C696E6465783E206F75A3
:100D600074206F662072616E67652028302D3129EE
:100D70000A005761726E696E673A204D6978206685
:100D80006163746F7273206D757374206164642085
:100D9000757020746F20312E302E205363616C6982
:100DA0006E672E0A0053657474696E672054726111
:100DB00076656C20416363656C65726174696F6E02
:100DC0003A200053657474696E67205265747261CD
:100DD000637420416363656C65726174696F6E3A18
:100DE000200053657474696E67205072696E7420B8
:100DF000416363656C65726174696F6E3A2000537C
:100E0000657474696E67205072696E7420616E64D7
:100E10002054726176656C20416363656C65726114
:100E200074696F6E3A2000000125272318FF1F21E7
:100E30001D1CFF19171B1EFFFF0C0409FFFFFF2ECF
:100E40002C0CFFFF312F3004400AFF41FFFFFFFF52
:100E5000FFFF3A200020536572766F2000206F75E7
:100E600074206F662072616E67650A005365727642
:100E70006F200020643A0020693A0020703A004355
:100E8000290A0061626C656420286D696E207465B2
:100E90006D702000436F6C642065787472756465B2
:100EA000732061726520004D65736820706F696EF4
:100EB000742063616E6E6F74206265207265736F5B
:100EC0006C7665640A004D34323120696E636F724E
:100ED0007265637420706172616D657465722075EE
:100EE000736167650A003A2000207A5F6D696E3A87
:100EF00020202D3230207A5F6D61783A2020323008
:100F00000A0050726F6265205A204F6666736574DE
:100F10000043617365206C696768743A2000290A90
:100F200000466978656420706172616D65746572F0
:100F30002062797465733B20637263200046697890
:100F4000656420706172616D657465722028004867
:100F5000565F7365745F6F6B0A00556E6B6E6F77CB
:100F60006E20636F6D6D616E643A2022005265736E
:100F7000656E643A20006F6B0020746F6F206C6F99
:100F80006E6720657874727573696F6E2070726514
:100F900076656E7465640A0020636F6C6420657802
:100FA00074727573696F6E2070726576656E7465A4
:100FB000640A00627573793A207061757365642004
:100FC000666F7220696E7075740A00627573793A83
:100FD0002070617573656420666F72207573657229
:100FE0000A00627573793A2070726F636573736972
:100FF0006E670A004B494C4C45442E20004B494C2F
:101000004C2063617573656420627920746F6F2072
:101010006D75636820696E616374697665207469B3
:101020006D65202D2063757272656E7420636F6D1F
:101030006D616E643A2000506C6561736520726565
:10104000736574005052494E5445522048414C54E7
:101050004544005072696E7465722068616C7465F5
:10106000642E206B696C6C28292063616C6C65644C
:10107000210A00000000C1000000C10000000000C3
:1010800000C8420000C8420000A041000000005714
:1010900061726E696E673A20486F6D696E672042B3
:1010A000756D702044697669736F72203C20310A37
:1010B000000202040000A0400000A0400000004028
:1010C000000064430000644300008243FFFFFF4DC3
:1010D00036303020486F74656E6420746F6F206303
:1010E0006F6C6420746F206368616E676520666949
:1010F0006C616D656E740A007C3C3E5E2B3D3F2F3B
:101100005B5D3B2C2A225C004572726F7220777205
:101110006974696E6720746F20454550524F4D21A8
:101120000A00290A002062797465733B20637263A8
:10113000200053657474696E67732053746F726511
:1011400064202800290A57726974652066696C65F5
:10115000206E616D653A20002062797465733B20D2
:101160006372632000506F7765726F6666205374F8
:101170006F72656420280020213D20006372632087
:101180006572726F723A20000A7265616420666946
:101190006C65206E616D653A2000290A7265616494
:1011A0002066696C65206469723A20002062797457
:1011B00065733B206372632000706F7765726F66A2
:1011C000662073746F7265642073657474696E67EA
:1011D0007320726574726965766564202800202822
:1011E00063616C63756C6174656429210A00202158
:1011F0003D2000454550524F4D20435243206D69DC
:10120000736D61746368202D202873746F72656438
:10121000292000290A002062797465733B206372DB
:101220006320002073746F72656420736574746941
:101230006E67732072657472696576656420280034
:10124000204D61726C696E3D56313231290A002899
:10125000454550524F4D3D00454550524F4D20762B
:10126000657273696F6E206D69736D617463682058
:101270000048617264636F646564204465666175EB
:101280006C742053657474696E6773204C6F61646D
:1012900065640A00F4010000F4010000640000002D
:1012A000E80300000000FA430000FA430000A040F9
:1012B0000000C8419A99A0429A99A0420000C843F0
:1012C0000080C54320204D383531205A005A2D501A
:1012D000726F6265204F666673657420286D6D2994
:1012E0003A0A0020440020490020204D33303420A9
:1012F000500020440020490020204D333031205040
:10130000005049442073657474696E67733A0A002B
:1013100020460020420020480020204D3134352056
:1013200053004D6174657269616C20686561747504
:101330007020706172616D65746572733A0A002085
:101340005A0020204D3432302053004175746F20F4
:10135000426564204C6576656C696E673A0A0020C8
:101360004500205A002059002058002042002054F7
:101370000020204D323035205300416476616E6389
:1013800065643A20533C6D696E5F666565647261A1
:1013900074653E20543C6D696E5F74726176656C55
:1013A0005F66656564726174653E20423C6D696E7E
:1013B0005F7365676D656E745F74696D655F757386
:1013C0003E20583C6D61785F78795F6A65726B3E4C
:1013D000205A3C6D61785F7A5F6A65726B3E20458A
:1013E0003C6D61785F655F6A65726B3E0A002054F0
:1013F0000020520020204D323034205000416363E1
:10140000656C65726174696F6E2028756E6974739E
:101410002F7332293A20503C7072696E745F616399
:1014200063656C3E20523C726574726163745F61E7
:101430006363656C3E20543C74726176656C5F61D9
:101440006363656C3E0A00204500205A0020590065
:1014500020204D3230312058004D6178696D756D16
:1014600020416363656C65726174696F6E202875D5
:101470006E6974732F7332293A0A00204500205A8E
:101480000020590020204D3230332058004D617823
:10149000696D756D20666565647261746573202879
:1014A000756E6974732F73293A0A00204500205A1B
:1014B0000020590020204D393220580053746570A7
:1014C000732070657220756E69743A0A0020204D91
:1014D0003230302044300A0020204D323030204459
:1014E000002044697361626C65640A0046696C613E
:1014F0006D656E742073657474696E67733A00204D
:10150000204D3134392043203B20556E69747320BF
:10151000696E2043656C736975730A002020473239
:1015200031202020203B20556E69747320696E2085
:101530006D6D0A007A5F6D696E3A2000795F6D69A2
:101540006E3A2000785F6D696E3A20005265706FC8
:101550007274696E6720656E6473746F7020737443
:10156000617475730A0020746F6F206C6F6E672052
:10157000657874727573696F6E2070726576656ECA
:101580007465640A0020636F6C64206578747275FA
:1015900073696F6E2070726576656E7465640A009B
:1015A00024F4D43050C38E20C2A24017828B701115
:1015B000127A910D816CD90AA861E108C7586607B3
:1015C000615143061E4B5D05C145A7041A41110434
:1015D000093D9803713931034036DB0265339102CE
:1015E000D4305402802E1D02632CEE01752AC501F1
:1015F000B028A001102781018F2564012B244B0105
:10160000E0223401AC211F018D200D01801FFC0060
:10161000841EED00971DDF00B81CD200E61BC6003B
:10162000201BBC00641AB200B219A8000A19A0005D
:101630006A189900D117910040178B00B5168400E5
:1016400031167E00B31579003A157300C7146F0088
:1016500058146A00EE1366008813630025135E00B9
:10166000C7125B006C12570015125400C1115100D3
:1016700070114F0021114B00D61049008D1047000A
:101680004610440002104200C00F4000800F3E0090
:10169000420F3C00060F3B00CB0E3800930E370084
:1016A0005C0E3500270E3400F30D3200C10D310001
:1016B000900D3000600D2E00320D2D00050D2C0018
:1016C000D90C2B00AE0C2900850C29005C0C2700DE
:1016D000350C27000E0C2600E80B2400C40B240058
:1016E000A00B23007D0B23005A0B2100390B210096
:1016F000180B2000F80A1F00D90A1E00BB0A1E00A2
:101700009D0A1D00800A1D00630A1C00470A1B0079
:101710002C0A1B00110A1A00F7091A00DD0919002A
:10172000C4091900AB091900920917007B091800B8
:10173000630917004C091600360916002009160027
:101740000A091500F5081500E0081400CC0814007B
:10175000B8081400A4081400900813007D081200B3
:101760006B081300580812004608120034081100D4
:10177000230811001208110001081100F0071000E1
:10178000E0071000D0071000C0071000B0070F00DE
:10179000A107100091070E0083070F0074070F00C8
:1017A00065070E0057070E0049070E003B070D00A6
:1017B0002E070E0020070D0013070D0006070D0071
:1017C000F9060C00ED060D00E0060C00D4060C0036
:1017D000C8060C00BC060C00B0060C00A4060B00EA
:1017E00099060C008D060B0082060B0077060B0095
:1017F0006C060B0061060A0057060B004C060A0037
:1018000042060A0038060A002E060A0024060A00CC
:101810001A060A001006090007060A00FD0509005D
:10182000F4050900EB050900E2050900D9050900E6
:10183000D0050900C7050900BE050900B505080067
:10184000AD050800A50509009C05080094050800E1
:101850008C050800840508007C0508007405080054
:101860006C050700650508005D05070056050800C2
:101870004E0507004705070040050800380507002A
:10188000310507002A050700230507001C0506008F
:10189000160507000F0507000805060002050700EA
:1018A000FB040600F5040700EE040600E804060049
:1018B000E2040700DB040600D5040600CF0406009E
:1018C000C9040600C3040600BD040600B7040600F0
:1018D000B1040500AC040600A6040600A00405003F
:1018E0009B04060095040500900406008A04050088
:1018F00085040500800406007A04050075040500CF
:10190000700405006B040500660405006104050011
:101910005C04050057040500520405004D04050051
:1019200048040500430405003E0404003A04050091
:1019300035040500300404002C04050027040400CD
:10194000230405001E0404001A0404001604050004
:10195000110404000D04040009040500040404003B
:1019600000040400FC030400F8030400F403040072
:10197000F0030400EC030400E8030400E4030400A3
:10198000E0030400DC030400D8030400D4030400D3
:10199000D0030400CC030400C8030300C503030004
:1019A00024F404D9201BC40C5C0E9804C4095F0203
:1019B00065077101F405F900FB04B30048048700D2
:1019C000C10369005803550003034500BE023A00F5
:1019D0008402310053022A0029022500040220005B
:1019E000E4011C00C8011900AF01170098011400A0
:1019F00084011300710110006101100051010E00FB
:101A000043010D0036010B002B010B0020010B00E0
:101A1000150109000C01090003010800FB00080082
:101A2000F3000800EB000700E4000600DE000600FB
:101A3000D8000600D2000600CC000500C700050053
:101A4000C2000500BD000400B9000400B500040098
:101A5000B1000400AD000400A9000400A5000300CB
:101A6000A20003009F0004009B00030098000300F5
:101A70009500020093000300900003008D00020017
:101A80008B0003008800020086000200840003002F
:101A9000810002007F0002007D0002007B00020046
:101AA0007900020077000100760002007400020055
:101AB00072000100710002006F0002006D00010061
:101AC0006C0002006A00010069000200670001006A
:101AD0006600010065000100640002006200010070
:101AE00061000100600001005F0002005D00010074
:101AF0005C0001005B0001005A0001005900010078
:101B00005800010057000100560001005500010077
:101B10005400010053000000530001005200010076
:101B200051000100500001004F0001004E00000074
:101B30004E0001004D0001004C0001004B00000070
:101B40004B0001004A00010049000100480000006C
:101B50004800010047000100460000004600010067
:101B60004500000045000100440001004300000062
:101B7000430001004200000042000100410000005B
:101B800041000100400001003F0000003F00010053
:101B90003E0000003E0001003D0000003D0001004D
:101BA0003C0000003C0000003C0001003B00000045
:101BB0003B0001003A0000003A000100390000003B
:101BC0003900010038000000380000003800010032
:101BD000370000003700010036000000360000002A
:101BE000360001003500000035000000350001001E
:101BF0003400000034000000340001003300000015
:101C00003300000033000100320000003200000009
:101C100032000100310000003100000031000100FD
:101C20003000000030000000300001002F000000F4
:101C30002F0000002F0000002F0001002E000000E8
:101C40002E0000002E0001002D0000002D000000DD
:101C50002D0000002D0001002C0000002C000000D1
:101C60002C0000002C0001002B0000002B000000C5
:101C70002B0000002B0001002A0000002A000000B9
:101C80002A0000002A0001002900000029000000AD
:101C900029000000290000002900010028000000A0
:101CA0002800000028000000280000002800010093
:101CB0002700000027000000270000002700000088
:101CC000270001002600000026000000260000007A
:101CD000260000002600010025000000250000006D
:101CE000250000002500000025000000250001005F
:101CF0002400000024000000240000002400000054
:101D00002400010023000000230000002300000045
:101D10002300000023000000230000002300010036
:101D2000220000002200000022000000220000002B
:101D3000220000002200010021000000210000001C
:101D4000210000002100000021000000210000000F
:101D50002100010020000000200000002000000001
:101D600020000000200000002000000020000000F3
:101D7000200001001F0000001F0000001F000000E5
:101D80001F0000001F0000001F0000001F000100D6
:101D90001E0000001E0000001E0000001E000000CB
:101DA0004D383420582059205A2045005A25752C8A
:101DB00045256C752C50256C752C5425752C4225A9
:101DC000752C004D61676E61204475616C207265F1
:101DD0006164792E004D61676E61204475616C20ED
:101DE00072656164792E004572723A4E6F204669C1
:101DF0006C616D656E74006265640A002C207379F5
:101E00007374656D2073746F70706564212048650C
:101E1000617465725F49443A200048656174696E77
:101E200067206661696C65640048656174696E6706
:101E3000206661696C65640048656174696E67203D
:101E40006661696C65640048656174696E672066E7
:101E500061696C65640070012C0190012701B0017B
:101E60002201C0011D01F00118011002130130020E
:101E70000E016002090190020401C002FF0000038C
:101E8000FA004003F5008003F000D003EB002004CB
:101E9000E6007004E100E004DC004005D700C00566
:101EA000D2004006CD00D006C8008007C30030082D
:101EB000BE00F008B900C009B400B00AAF00B00B12
:101EC000AA00D00CA500000EA000500F9B00C0106F
:101ED00096005012910000148C00C0158700B017B6
:101EE0008200B0197D00D01B7800001E73004020D6
:101EF0006E0090226900F024640040275F00902962
:101F00005A00E02B5500102E500020304B001032AC
:101F10004600E033410090353C0010373700703800
:101F20003200A0392D00B03A2800A03B2300603CCD
:101F30001E00103D1900903D1400103E0F00703E31
:101F40000A00C03E0500003F0000403FFBFF803F0D
:101F5000F6FFC03FF1FF4572723A204D494E54459D
:101F60004D5020424544004572723A204D494E542E
:101F7000454D50004D494E54454D5020747269678F
:101F80006765726564004572723A204D4158544548
:101F90004D5020424544004572723A204D415854FC
:101FA000454D50004D415854454D5020747269675D
:101FB000676572656400202F002042403A0020408F
:101FC0003A00001C1F11111F00000006191803130E
:101FD0000C00040E1F041C00000000101010101054
:101FE0001000001414141414140000151515151500
:101FF0001500000E1315110E00001C101817050611
:102000000500040A0A0A0A11110E0C12120C000033
:102010000000001F1511151F000000000000010244
:1020200004040000001C1C0C040404020100000055
:10203000000004081000000000004D31303420532F
:102040002575004739322045257500473932205A19
:1020500025752E2575004D3530300043616E636562
:102060006C207072696E7400526573756D652070B6
:1020700072696E7400506F776572206F7574616756
:10208000650025753A2530327500253032753A25C0
:10209000303275002D2D2D005344005A004D78200C
:1020A00025643B2564252520004D785E25643B256D
:1020B00064252520005374617274205A3A20253417
:1020C000642E2564206D6D002020456E64205A3AF0
:1020D000202534642E2564206D6D00285A203C3D57
:1020E0002025642E256429005374617274206D6963
:1020F000783A2025336425252025336425250028BA
:102100005A203E3D2025642E256429002020456E5E
:1021100064206D69783A20253364252520253364B1
:1021200025250046756C6C206772616469656E7464
:10213000002533643B2533642525002020456E644B
:10214000206D69783A002533643B253364252500EA
:102150005374617274206D69783A004772616469E2
:10216000656E74002534642E2564206D6D0020207A
:10217000456E64205A3A002534642E2564206D6D26
:10218000005374617274205A3A0047726164696541
:102190006E74206D6978004D69786572004D6978BC
:1021A0003A20202020253364252520253364252549
:1021B000004772616469656E7400546F67676C658F
:1021C000206D6978002533643B2533642525004D57
:1021D0006978004D61696E0053746F7720424C54EA
:1021E0006F756368004D32383020503020533930DD
:1021F000004465706C6F7920424C546F75636800C1
:102200004D3238302050302053313000424C546F22
:102210007563682053656C662D54657374004D3288
:10222000383020503020533132300052657365749D
:1022300020424C546F756368004D32383020503066
:102240002053313630004D61696E005072696E74F2
:1022500020706175736564004D313235000025735F
:10226000004D3234005072696E742061626F727476
:1022700065640047323820585900473930004731EB
:10228000204631303030205A323000473931004E4C
:102290006F2053442063617264005072696E742031
:1022A00066726F6D2053440053746F7020707269B2
:1022B0006E7400526573756D65207072696E74007E
:1022C00041626F7574205072696E7465720050615E
:1022D000757365207072696E74004D69786572005F
:1022E000436F6E74726F6C0050726570617265003E
:1022F00054756E6500496E666F2073637265656E16
:10230000004261627973746570205A004D36303036
:10231000204230004368616E67652066696C616DBC
:10232000656E74004261627973746570205A00466C
:102330006C6F7700466C6F770046616E2073706536
:1023400065640046616E2073706565640042656473
:1023500000426564004E6F7A7A6C65004E6F7A7A3F
:102360006C65005370656564005370656564004D6D
:1023700061696E005072656865617420504C41203F
:10238000456E64005072656865617420504C412050
:10239000426564005072656865617420504C41006C
:1023A0005072657061726500507265686561742075
:1023B00041425320456E6400507265686561742027
:1023C0004142532042656400507265686561742023
:1023D0004142530050726570617265004261636BE7
:1023E000004E65787420636F726E6572004D3238EE
:1023F00030205030205331363000424C546F7563DA
:10240000682053656C662D54657374004D32383006
:10241000205030205331323000507265686561744D
:1024200020414253005072656865617420504C41F0
:1024300000436F6F6C646F776E004368616E676511
:102440002066696C616D656E7400526573657420F9
:10245000424C546F7563680044697361626C652017
:102460007374657070657273004D3834004C657616
:10247000656C20636F726E65727300426564204CF8
:102480006576656C696E67004732380A47323900F5
:102490004175746F20686F6D6500473238004D6F6D
:1024A00076652061786973004D61696E004D6F76C5
:1024B000652058004D6F76652059004D6F76652078
:1024C0005A004578747275646572004D6F766520A8
:1024D000302E316D6D004D6F766520316D6D004D84
:1024E0006F76652031306D6D004D6F7665206178B7
:1024F000697300486F74656E6420746F6F20636F3A
:102500006C64004578747275646572004D6F766511
:10251000205A004D6F76652059004D6F7665205822
:10252000004578747275646572004D6F7665205A47
:10253000004D6F76652059004D6F7665205800502C
:1025400072657061726500496E697469616C697A5F
:102550006520454550524F4D00436F6E74726F6C4D
:1025600000526573746F7265206661696C73616691
:1025700065004C6F61642073657474696E677300E5
:10258000496E697469616C697A6520454550524F9E
:102590004D0053746F72652073657474696E677350
:1025A00000424C546F7563680046696C616D656EDE
:1025B00074004D6F74696F6E0054656D7065726163
:1025C00074757265004D61696E004D33303320556E
:1025D0003120452569205325690050726568656181
:1025E000742041425320636F6E66005072656865C7
:1025F000617420504C4120636F6E66005049442046
:102600004175746F74756E6500504944204175744E
:102610006F74756E65005049442D44005049442D37
:1026200044005049442D49005049442D4900504927
:10263000442D50005049442D500020022046616333
:10264000740020022046616374002002204D6178EE
:10265000002002204D6178002002204D696E00208C
:1026600002204D696E004F6666004F6E2000417576
:10267000746F74656D700046616E2073706565647B
:102680000046616E207370656564004265640042B7
:102690006564004E6F7A7A6C65004E6F7A7A6C656D
:1026A00000436F6E74726F6C0053746F72652073A9
:1026B000657474696E677300426564004265640006
:1026C0004E6F7A7A6C65004E6F7A7A6C650046615F
:1026D0006E2073706565640046616E207370656579
:1026E000640054656D70657261747572650056544E
:1026F000726176206D696E005654726176206D6944
:102700006E00566D696E00566D696E00566D61788B
:10271000204500566D6178204500566D6178205A3D
:1027200000566D6178205A00566D61782059005628
:102730006D6178205900566D6178205800566D61A2
:10274000782058004D6F74696F6E00416D6178207C
:102750004500416D6178204500416D6178205A0047
:10276000416D6178205A00416D6178205900416DBA
:102770006178205900416D6178205800416D617881
:10278000205800412D74726176656C00412D747281
:102790006176656C00412D726574726163740041ED
:1027A0002D7265747261637400416363656C0041EE
:1027B0006363656C004D6F74696F6E0056652D6ABA
:1027C00065726B0056652D6A65726B00567A2D6ACC
:1027D00065726B00567A2D6A65726B0056792D6AA8
:1027E00065726B0056792D6A65726B0056782D6A9A
:1027F00065726B0056782D6A65726B004D6F746957
:102800006F6E004573746570732F6D6D0045737442
:102810006570732F6D6D005A73746570732F6D6DD5
:10282000005A73746570732F6D6D00597374657001
:10283000732F6D6D005973746570732F6D6D005833
:1028400073746570732F6D6D005873746570732F9A
:102850006D6D004D6F74696F6E0053746570732FEA
:102860006D6D004A65726B00416363656C657261F2
:1028700074696F6E0056656C6F63697479005A20D5
:102880004F6666736574005A204F66667365740000
:10289000436F6E74726F6C004F6E200052756E6FD6
:1028A00075742073656E736F7273004F66660046B1
:1028B000696C2E204469612E0046696C2E204469A3
:1028C000612E004F6666004F6E20004520696E2025
:1028D0006D6D3300436F6E74726F6C0043616E6E8A
:1028E0006F7420656E746572207375626469723AE4
:1028F0002000052E2E004D61696E004D6178205438
:10290000656D703A20313235004D696E2054656D29
:10291000703A203500544265643A4550434F532085
:102920003130304B004D61782054656D703A203263
:102930003635004D696E2054656D703A203500546F
:10294000303A204550434F53203130304B005053E4
:10295000553A2047656E657269630050726F746FF7
:10296000636F6C3A20312E30002020202048572001
:102970005665723A2056004657205665723A2056E0
:10298000322E3100426175643A20323530303030B9
:10299000004754323536302056342E300042696CB0
:1029A000696E656172204C6576656C696E6700457D
:1029B00078747275646572733A203100687474704B
:1029C0003A2F2F68656C6C626F742E78797A004D9F
:1029D00061676E61204475616C00323031372D3192
:1029E000322D32352031323A303000312E312E380E
:1029F0002E33004D61726C696E00546865726D69AA
:102A000073746F727300426F61726420496E666FF7
:102A1000005072696E74657220496E666F004D6178
:102A2000696E0020204E6F7A7A6C653A2000426110
:102A3000636B004D696E696D756D2054656D702016
:102A40006973203137302E0048656174696E6720E4
:102A50006661696C65640045787472756465206DA3
:102A60006F726500526573756D65207072696E7462
:102A700000524553554D45204F5054494F4E533AFF
:102A80000020204E6F7A7A6C653A20006368616E90
:102A90006765006F66207468652066696C616D65A6
:102AA0006E74005761697420666F7220737461726E
:102AB00074005052494E5420504155534544002013
:102AC000204E6F7A7A6C653A200066696C616D659C
:102AD0006E7420756E6C6F61640057616974206656
:102AE0006F72005052494E54205041555345440096
:102AF00020204E6F7A7A6C653A2000506C656173C5
:102B00006520776169742E2E2E0048656174696EA8
:102B100067206E6F7A7A6C65005052494E5420508F
:102B200041555345440020204E6F7A7A6C653A2017
:102B30000068656174206E6F7A7A6C652E00507241
:102B400065737320627574746F6E20746F005052D9
:102B5000494E54205041555345440020204E6F7A31
:102B60007A6C653A2000746F20636F6E74696E75BD
:102B7000652E2E2E00616E64207072657373206264
:102B80007574746F6E00496E736572742066696C3B
:102B9000616D656E74005052494E5420504155533A
:102BA00045440020204E6F7A7A6C653A20006669B1
:102BB0006C616D656E74206C6F616400576169743F
:102BC00020666F72005052494E5420504155534573
:102BD000440020204E6F7A7A6C653A200066696C5A
:102BE000616D656E742065787472756465005761F7
:102BF000697420666F72005052494E5420504155FE
:102C000053454400746F20726573756D650057619C
:102C1000697420666F72207072696E740050524938
:102C20004E54205041555345440043617264207214
:102C3000656D6F766564004361726420696E7365CB
:102C4000727465640000002100240027002A002D12
:102C5000003000330001010000040107010A0100F7
:102C6000002200250028002B002E00310034000235
:102C7000010000050108010B0100002000230026CF
:102C80000029002C002F0032000001000003010683
:102C900001090105050505070508080808020202E3
:102CA000020A0A08080404040401010101010101E7
:102CB000010303030303030303040707070C0C0CBE
:102CC0000C0C0C0C0C020202020606060606060696
:102CD000060B0B0B0B0B0B0B0B0102102020080833
:102CE000102040102040800201020108040201016E
:102CF0000204081020408080402010080402018057
:102D000004020180402010080402010804020101AD
:102D100002040810204080010204081020408000B6
:102D2000000A0B02090C0D0E080703040100000045
:102D30000000000000000000000000000000000093
:102D40000000000000000000000000121110000050
:102D50000000000000000000000000000000000073
:102D60000000000000200D466978656420706172E3
:102D7000616D65746572206E62797465733B206362
:102D80007263206572726F722000200D0A466978A6
:102D9000656420706172616D65746572206279741A
:102DA00065733B20637263206572726F7220002925
:102DB0000A002062797465733B20637263200046C9
:102DC0006978656420706172616D65746572202830
:102DD000002068617264776172652076657273693C
:102DE0006F6E3A002D2D2D2D2D2D007C4D61726CB6
:102DF000696E7C002D2D2D2D2D2D00687474703A78
:102E00002F2F68656C6C626F742E78797A00687405
:102E100074703A2F2F68656C6C626F742E78797AB3
:102E20000020312E312E382E33002020506C616E60
:102E30006E657242756666657242797465733A2092
:102E4000002046726565204D656D6F72793A2000ED
:102E5000436F6D70696C65643A204175672032324A
:102E600020323032300A00207C20417574686F7245
:102E70003A20286E6F6E652C2064656661756C74EF
:102E800020636F6E666967290A00323031372D3151
:102E9000322D32352031323A303000204C6173749B
:102EA00020557064617465643A2000312E312E38EB
:102EB0002E330A004D61726C696E0020536F667488
:102EC000776172652052657365740A0020576174DA
:102ED0006368646F672052657365740A00204272EC
:102EE0006F776E206F75742052657365740A0020C9
:102EF00045787465726E616C2052657365740A0062
:102F0000506F77657255700A0073746172740A00AD
:102F10006572726F722077726974696E6720746F60
:102F20002066696C650A00456E6473746F70732067
:102F3000256320256320256320256300205A3A005D
:102F400020593A0020583A00656E6473746F7073AC
:102F5000206869743A200047323820580066696C4E
:102F6000616D656E74206F75740A004D33322053A5
:102F7000256C7520212573004D33322053256C7547
:102F800020212F25732F2573004730204631303004
:102F900030205A25752E25750047323820590047B4
:102FA00032382058004D313036202053323535002C
:102FB0004D31303920543020532575004D31393092
:102FC0002053257500446F6E6520736176696E67C6
:102FD0002066696C652E0A004D32390050726F62AE
:102FE000696E67206661696C65640A0050726F6281
:102FF000696E67206661696C656400205A3A20003A
:1030000020593A200042656420583A200053544F1A
:10301000505045442E20005072696E7465722073C2
:10302000746F707065642064756520746F206572BC
:10303000726F72732E2046697820746865206572FD
:10304000726F7220616E6420757365204D39393955
:1030500020746F20726573746172742E2028546519
:103060006D70657261747572652069732072657325
:1030700065742E20536574206974206166746572CE
:103080002072657374617274696E67290A00535403
:103090004F502063616C6C65642062656361757379
:1030A00065206F6620424C546F75636820657272AC
:1030B0006F72202D20726573746172742077697449
:1030C00068204D3939390A005344207072696E7492
:1030D000696E67206279746520004E6F74205344D6
:1030E000207072696E74696E670A00486F6D6520A2
:1030F00025732573257320666972737400206669D1
:103100007273740A005A0059005800486F6D6520A8
:103110000057726974696E6720746F2066696C6508
:103120003A20006F70656E206661696C65642C20C2
:1031300046696C653A20006F70656E206661696C47
:1031400065642C2046696C653A200046696C6520F0
:1031500073656C65637465640A002053697A653A27
:10316000200046696C65206F70656E65643A2000CA
:103170006F70656E206661696C65642C2046696CB1
:10318000653A20002066696C653A2000646F696EBC
:1031900067006672657368004E6F772000454E4485
:1031A00020535542524F5554494E450A0022207033
:1031B0006F73002220706172656E743A220053555D
:1031C00042524F5554494E452043414C4C20746166
:1031D000726765743A22004B494C4C45442E2000DE
:1031E000747279696E6720746F2063616C6C2073F0
:1031F00075622D67636F64652066696C65732077FF
:1032000069746820746F6F206D616E79206C6576CB
:10321000656C732E204D4158206C6576656C206975
:10322000733A0053442063617264206F6B0A006F2D
:1032300070656E526F6F74206661696C65640A0018
:10324000766F6C756D652E696E6974206661696C48
:1032500065640A004572726F723A00534420696EC9
:103260006974206661696C0A0043616E6E6F742038
:103270006F70656E20737562646972200061757489
:103280006F25692E67004D3234004D32332025738F
:1032900000656E7175657565696E672022006563EE
:1032A000686F3A00544845524D414C2052554E41AA
:1032B00057415900546865726D616C2052756E619A
:1032C00077617900D000B40011241FBECFEFD1E2A6
:1032D000DEBFCDBF00E00CBF13E0A0E0B2E0E6E34C
:1032E000FCE602E00BBF02C007900D92A23EB107C0
:1032F000D9F728E1A2EEB3E001C01D92AD37B207C5
:10330000E1F719E1C3E6D9E100E006C02197010920
:10331000802FFE010F947D35C236D10780E008076B
:10332000A9F70F94D5210D940A360C940000CF9381
:10333000DF93EC0120E030E0A901688179818A8186
:103340009B810F944A2E87FF04C0188219821A822B
:103350001B8220E030E0A9016C817D818E819F81FC
:103360000F944A2E87FF04C01C821D821E821F827A
:1033700020E030E04CE553E4688179818A819B81CB
:103380000F94A834181644F480E090E0ACE5B3E460
:1033900088839983AA83BB8320E030E04CE553E423
:1033A0006C817D818E819F810F94A834181644F41E
:1033B00080E090E0ACE5B3E48C839D83AE83BF8373
:1033C00020E030E0A901688579858A859B850F9486
:1033D0004A2E87FF04C0188619861A861B8620E0AD
:1033E00030E042E853E4688579858A859B850F94AF
:1033F000A834181644F480E090E0A2E8B3E488878B
:103400009987AA87BB87DF91CF9108952E9A9FB79E
:10341000F894EBE0F1E08081826080839FBF0895A3
:10342000429AE3EBFDE01082179A1182159A1282FC
:10343000EDCFCF92DF92EF92FF92CF93DF936B01AC
:103440007C01EA0129E134E040E051EC0F94A8341A
:1034500087FD23C022E430E04CE553E4C701B60108
:103460000F944A2E1816CCF0C880D980EA80FB80D1
:1034700029E134E040E051ECC701B6010F94A834D3
:1034800087FD0BC0C1E022E430E04CE553E4C70106
:10349000B6010F944A2E18160CF4C0E08C2FDF9161
:1034A000CF91FF90EF90DF90CF900895CF92DF9271
:1034B000EF92FF9260910E0670910F06072E000C9E
:1034C000880B990B0F94502E6B017C012DEB37E389
:1034D00046E855EB0F94A83487FD0BC02DEB37E37E
:1034E00046E855E3C701B6010F944A2E18160CF0B2
:1034F00043C0A701960160E070E080E89FE30F946D
:103500005E3360939A0570939B0580939C0590931E
:103510009D056091100670911106072E000C880B16
:10352000990B0F94502E6B017C012DEB37E346E88D
:1035300055EB0F94A83487FD0AC02DEB37E346E81E
:1035400055E3C701B6010F944A2E1816CCF4A70113
:10355000960160E070E080E89FE30F945E33609333
:103560009E0570939F058093A0059093A105FF9001
:10357000EF90DF90CF90089560E070E0CB01C1CF75
:1035800060E070E0CB01EBCF809A889808950895B1
:1035900090E080E008958FB7F894909175052091A0
:1035A0007405291769F0E92FF0E0EC50FB4F2081FA
:1035B00030E09F5F9F77909375058FBFC901089595
:1035C0002FEF3FEFFACF80E1EBE2F4E1ACEFBDE0AB
:1035D00001900D928A95E1F7089580E1ECEFFDE00E
:1035E000ABE2B4E101900D928A95E1F708950F9353
:1035F0001F93CF93DF93EC010F9426010E811F815F
:1036000028853985011511052105310579F52C85A8
:10361000222339F1EA8521502C8721E02E0F2A87B9
:103620003D85231301C01A86F0E03196EE0FFF1F8F
:10363000EE0FFF1FEC0FFD1F0285138524853585D6
:103640000A831B832C833D83600F711F811D911D95
:103650006E837F83888799878C819D81892B09F070
:103660005B9ADF91CF911F910F910895601B710BB1
:10367000820B930B97FDF5CF5B981E821F821886F5
:103680001986EFCFCF92DF92EF92FF921F93CF93E5
:10369000DF9300D01F92CDB7DEB7182F662351F00D
:1036A0001092CA041092C6041092C7041092C80463
:1036B0001092C9040F942601AB01BC018091C6048D
:1036C0009091C704A091C804B091C9046A017B011C
:1036D000C81AD90AEA0AFB0AD701C601B7FD37C0E2
:1036E00017FD41C08091CA04212F012E000C330B1D
:1036F0002C5F3F4FE82F082E000CFF0B2E173F07C3
:1037000034F1811784F180E991E0A0E0B0E0840F0A
:10371000951FA61FB71F8093C6049093C704A0935C
:10372000C804B093C90480ED97E09C838B838CE23E
:1037300091E09A838983BE016D5F7F4FCE01019630
:103740000E9480F58091CA048F5F8093CA040F9015
:103750000F900F900F90DF91CF911F91FF90EF90FE
:10376000DF90CF90089584EC99E0A0E0B0E0CFCF57
:10377000EF920F931F93CF93DF93CDB7DEB7609790
:103780000FB6F894DEBF0FBECDBF6D877E878F87E3
:10379000988BECEFFDE080859185A285B38544810F
:1037A000558166817781008111812281338109836E
:1037B0001A832B833C834D835E836F83788789874D
:1037C0009A87AB87BC87AE01475F5F4FBE016B5FD7
:1037D0007F4FCE0101960E9410F1E12C8E01035F14
:1037E0001F4F28E03EE0AE01475F5F4FBE016B5FB9
:1037F0007F4FCE0101960E94A9EB60960FB6F89418
:10380000DEBF0FBECDBFDF91CF911F910F91EF9023
:103810000895CF92DF92EF92FF92CF93DF936A01E8
:103820007B01CBE2D4E12091210230912202409130
:10383000230250912402FC01608171818281938175
:103840000F945E332C853D854E855F850F948232C3
:103850006C877D878E879F87B6DEC701B60188DFBC
:10386000DF91CF91FF90EF90DF90CF900C9422DE0C
:10387000EF920F931F93CF93DF93CDB7DEB72C97C3
:103880000FB6F894DEBF0FBECDBFEBE2F4E180854A
:103890009185A285B38544815581668177810081B8
:1038A00011812281338109831A832B833C834D83C9
:1038B0005E836F83788789879A87AB87BC87AE01E1
:1038C000475F5F4FBE016B5F7F4FCE0101960E9445
:1038D00010F1E12C02E612E027E334E1AE01475F8C
:1038E0005F4FBE016B5F7F4FCE0101960E94A9EB37
:1038F0002C960FB6F894DEBF0FBECDBFDF91CF91EF
:103900001F910F91EF900895809157049091580462
:10391000009731F04AE050E070E060E00D94682BD1
:1039200060E070E0CB010895EFDF97FD0AC0ECDFA7
:103930006F3F71058105910509F02CF4E5DF862FB5
:10394000089580E008958FEF089580915704909135
:103950005804892B39F0E8DF91E0811101C090E033
:10396000892F089591E0FCCF8091570490915804DD
:10397000009731F04AE050E070E060E00D94932C45
:1039800060E070E0CB0108958091020D82FF0BC0D2
:1039900063E685E192E00F94780D0E94D3A10F9425
:1039A000180D81E0089580E008952F923F924F9284
:1039B0005F926F927F928F929F92AF92BF92CF92BF
:1039C000DF92EF92FF920F931F93CF93DF93CDB7C8
:1039D000DEB76D970FB6F894DEBF0FBECDBF9A8FDE
:1039E000898F7C8F6B8F312C212C2FEF28873FEF15
:1039F0003F838FEF888B9FE4998BE3ECEA8BF7E4AE
:103A0000FB8B21E030E0022C02C0220F331F0A940E
:103A1000E2F7388F2F8B82E294E09B878A8710E051
:103A200000E02D8EEA85FB8581919191FB87EA87E5
:103A30002F89388D82239323892B09F0EBC0809145
:103A40000E0690910F06289EB001299E700D389E9B
:103A5000700D112480910A0690910B06680F791F52
:103A6000072E000C880B990B0F94502E6C877D87C6
:103A70008E879F878091100690911106089FB00154
:103A8000099F700D189F700D112480910C06909164
:103A90000D06680F791F072E000C880B990B0F94E9
:103AA000502E6B017C012C853D854E855F85E98D0F
:103AB000FA8D60817181828193810F9481322B0113
:103AC0003C01A7019601EB8DFC8D608171818281A3
:103AD00093810F9481324B015C01A3019201C301D8
:103AE000B2010F94AF2E2B013C01A5019401C50139
:103AF000B4010F94AF2E9B01AC01C301B2010F942E
:103B000082320F94ED344B015C012C853D854E854E
:103B10005F856091460470914704809148049091BC
:103B200049040F9481322B013C01A7019601609159
:103B300042047091430480914404909145040F9491
:103B400081326B017C01A3019201C301B2010F9488
:103B5000AF2E2B013C01A7019601C701B6010F94BE
:103B6000AF2E9B01AC01C301B2010F9482320F94BE
:103B7000ED3420E030E040E751E40F945E33A501DE
:103B800094010F9482326B017C0180904A049090E2
:103B90004B04A0904C04B0904D0420E030E040E88D
:103BA0005FE3C501B4010F94A8341816F4F4C501FD
:103BB000B4010F94C6334B015C0160E070E0CB01AF
:103BC000181419041A041B0434F40F94BB29A5011A
:103BD00094010F9446320F94502E9B01AC01B60114
:103BE000C7010F9482326B017C01288939894A8987
:103BF0005B89B601C7010F944A2E87FF0BC0FD8D6C
:103C0000F8870F83C986DC8AED8AFE8AC88AD98A3A
:103C1000EA8AFB8A0F5F1F4F0330110509F002CFBC
:103C20002FEF221A320A33E02316310409F0E9CECD
:103C30008F81E82FF0E0EE0FFF1FEE5DFB4F21E0DC
:103C400030E0088402C0220F331F0A94E2F780811B
:103C50009181822B932B9183808389859C89AD8967
:103C6000BE898B839C83AD83BE83482F5C816D812D
:103C70007E8128853F8180E090E06D960FB6F894B4
:103C8000DEBF0FBECDBFDF91CF911F910F91FF908F
:103C9000EF90DF90CF90BF90AF909F908F907F90EC
:103CA0006F905F904F903F902F9008954F925F924A
:103CB0006F927F928F929F92AF92BF92CF92DF923C
:103CC000EF92FF92CF93DF93CDB7DEB76A970FB62F
:103CD000F894DEBF0FBECDBF9A8F898F5B014A017A
:103CE000FC01FF9660817181828193810F944E2E39
:103CF0006B017C01D5012D913D914D915C910F940B
:103D0000AF2E0F9448330F94CB333B015C01F40189
:103D10002081318142815381C701B6010F94AF2EBA
:103D20000F9448330F94CB336D827E82AF82B88676
:103D30002D813E814F815885283731054105510538
:103D400040F428E730E040E050E02D833E834F838D
:103D5000588769837A838B839C8389819A81AB811D
:103D6000BC8188379105A105B10540F428E730E012
:103D700040E050E029833A834B835C83E98DFA8DE0
:103D8000E55BFF4F80819181A281B3818D879E8702
:103D9000AF87B88BBC01CD010F94502E69877A870D
:103DA0008B879C876D817E818F8198850F944E2EA5
:103DB000698B7A8B8B8B9C8B20E030E0A901698525
:103DC0007A858B859C850F944A2E882309F437C108
:103DD000A7019601C701B6010F94AF2E4B015C01FC
:103DE00029893A894B895C89CA01B9010F94AF2EA0
:103DF0009B01AC01C501B4010F9481324B015C0100
:103E000029853A854B855C85CA01B9010F948232B8
:103E10009B01AC01C501B4010F945E330F9448338C
:103E20000F94C6332B013C016D857E858F85988963
:103E300090958095709561957F4F8F4F9F4F0F9410
:103E4000502E4B015C0169817A818B819C810F949A
:103E50004E2E6D877E878F87988B20E030E0A901FA
:103E6000C501B4010F944A2E882309F4ECC02D85B6
:103E70003E854F855889CA01B9010F94AF2E6D8BCD
:103E80007E8B8F8B988FA7019601C701B6010F9487
:103E9000AF2E9B01AC016D897E898F89988D0F941F
:103EA00081326B017C01A5019401C501B4010F941D
:103EB00082329B01AC01C701B6010F945E330F94AF
:103EC000F733A98DBA8D52968D909D90AD90BC9090
:103ED000559775016401C418D508E608F7080F94D2
:103EE000C633C61AD70AE80AF90AF7FE67C020E007
:103EF00030E0A90169857A858B859C850F944A2ECF
:103F0000882309F4A4C0C501B4010F944E2E6B019F
:103F10007C0129853A854B855C85CA01B9010F94DE
:103F200082329B01AC01C701B6010F94AF2E6B0129
:103F30007C0129893A894B895C89CA01B9010F94AE
:103F4000AF2E9B01AC01C701B6010F9481326B010A
:103F50007C012D853E854F855889CA01B9010F9492
:103F6000AF2E9B01AC01C701B6010F9482326B01E9
:103F70007C0120E030E040E850E469857A858B855B
:103F80009C850F94AF2E9B01AC01C701B6010F9425
:103F90005E330F9448330F94C6332B013C0177FEF8
:103FA00003C0412C512C3201481459046A047B048B
:103FB00010F024013501C12CD12C76018FB7F89473
:103FC000E98DFA8D908193FD24C0DF01468E578ED6
:103FD00060A271A2C40CD51CE61CF71CC2A2D3A21D
:103FE000E4A2F5A2ED5BFF4F2D813E814F81588504
:103FF0002083318342835383AD01495B5F4FDA01F4
:1040000029813A814B815C812D933D934D935C9343
:1040100013978FBF6A960FB6F894DEBF0FBECDBF61
:10402000DF91CF91FF90EF90DF90CF90BF90AF9056
:104030009F908F907F906F905F904F90089560E079
:1040400070E0CB01EBCE60E070E0CB0138CF60E0F8
:1040500070E0CB019ECF8F929F92AF92BF92CF9292
:10406000DF92EF92FF92CF93DF93EC018090EC0D03
:104070009090ED0DA090EE0DB090EF0D20E030E0AF
:10408000A901C501B4010F944A2E882309F454C034
:10409000C880D980EA80FB80A7019601C501B401E0
:1040A0000F944A2E18160CF04CC02091E30D30915D
:1040B000E40D4091E50D5091E60DC701B6010F9456
:1040C0004A2E882331F1C092E30DD092E40DE092A4
:1040D000E50DF092E60D2091E70D3091E80D40914D
:1040E000E90D5091EA0D688179818A819B810F9455
:1040F000AF2E9B01AC0160E070E080E89FE30F947D
:10410000813260931302709314028093150290938E
:104110001602609113027091140280911502909121
:104120001602DF91CF91FF90EF90DF90CF90BF907C
:10413000AF909F908F90089560E070E080E89FE3DB
:10414000F0CF60E070E0CB01ECCFCF93DF93E09154
:104150007D0BF0917E0B82819381A481B58118162D
:1041600019061A061B06ECF480912C0680FF19C074
:104170008091170690B196959695909590FB80F951
:10418000982F80931706809116068170892349F035
:104190008091E20D81608093E20D90E080E00E94CA
:1041A000DADDE0917D0BF0917E0B86819781A08511
:1041B000B185181619061A061B0644F580912C06BF
:1041C00081FF24C08091170690B19295969596959F
:1041D000937021E092279170C92F90E0D92FD1954B
:1041E000C195D109C827C270DD278C278093170697
:1041F000C0911606C270C82349F08091E20D82601A
:104200008093E20D81E090E00E94DADDE0917D0B89
:10421000F0917E0B82859385A485B58518161906C5
:104220001A061B0634F580912C0682FF22C080916D
:104230008A0D8823F1F02091170686B1082E000C14
:10424000990B990F880B982F822784709927922FAA
:10425000982790931706809116068470892349F059
:104260008091E20D84608093E20D82E090E00E94F4
:10427000DADD8091170680931606DF91CF910895BD
:10428000AF92BF92CF92DF92EF92FF920F931F9364
:10429000CF93DF931F92CDB7DEB76C018B0159012D
:1042A0008091E50581111BC07B01E40EF51EF6012E
:1042B000808191810F94FF318983F80181938F016F
:1042C000BE016F5F7F4FC5010E9443FAF6018081F6
:1042D0009181019691838083E016F10641F70F905A
:1042E000DF91CF911F910F91FF90EF90DF90CF90D2
:1042F000BF90AF900895FC0120E03EE2DB014D91BC
:10430000BD01403249F0283011F430833196DB0191
:1043100011974C91408331962F5F2B3079F71082A3
:10432000089561E0FC0180810C9453FD8EBD0DB4B5
:1043300007FEFDCF08958FEF8EBD0DB407FEFDCFB4
:104340008EB508958F929F92AF92BF92EF92FF9297
:104350000F931F93CF937C01C62F49015A01FC0193
:104360009281892F806A86958CBD90FD03C081E083
:10437000963009F480E08DBD60E0F70180810E94F5
:1043800053FD8CE291E00F949B028C2F8064CEDF72
:1043900008E110E0D501C401002E04C0B695A79530
:1043A000979587950A94D2F7C1DF08501109083F05
:1043B000FFEF1F0779F785E9CC2321F087E8C830A4
:1043C00009F08FEFB3DFCC3009F4B5DFC0E0B3DF25
:1043D000F701838387FF04C0CF3F11F0CF5FF7CF92
:1043E000CF911F910F91FF90EF90BF90AF909F9052
:1043F0008F9008950F931F93CF93DF93EC01890162
:104400008C81833039F089E0440F551F661F771F78
:104410008A95D1F79A01AB0168E1CE0193DF882339
:1044200019F086E0898335C08EEF8EBDF801C80192
:104430009E5F0DB407FEFDCF20812EBD0DB407FE9B
:10444000FDCF21812EBD3296E817F90791F70DB403
:1044500007FEFDCF8FEF6ADF8FEF68DF6CDF8B83A6
:104460008F71853091F488E592E00F949B02182FAC
:1044700087E11123B9F220E030E0A9016DE0CE011F
:1044800061DF882351F086E1CDCF83E18983CE01BE
:1044900048DFCE0146DF10E005C04DDF8111F3CFCC
:1044A000CE013FDF812FDF91CF911F910F910895B2
:1044B000CF9380915410C1E0882399F040914C1023
:1044C00050914D1060914E1070914F102CE43EE0D1
:1044D00080915510909156108DDFC82F811104C026
:1044E000C0E08C2FCF910895409150105091511001
:1044F000609152107091531041155105610571057D
:1045000089F02CE43EE0809155109091561072DFB6
:10451000882331F3109250101092511010925210C3
:104520001092531010925410DCCFEF92FF920F9321
:104530001F93CF93DF93EC0179018C81833039F0A5
:1045400089E0440F551F661F771F8A95D1F79A019E
:10455000AB0161E1CE01F6DE882331F084E089838E
:10456000CE01DFDE80E034C00F9426018B01E3DE54
:104570008B838F3F71F40F942601601B710B6D329A
:104580007140A8F381E18983CE01CBDE8FEFCEDECF
:10459000E9CF8E3F11F08FE0F6CF8FEF8EBDF701A0
:1045A000D701A150BE4F0DB407FEFDCF9EB591932C
:1045B0008EBDAE17BF07B9F70DB407FEFDCF8EB5A0
:1045C0008C93B9DEB8DECE01ACDE8FEFAFDE81E0DA
:1045D000DF91CF911F910F91FF90EF900895CF92AF
:1045E000DF92EF92FF92CF936B017C01C42F8091F9
:1045F0004C1090914D10A0914E10B0914F108C1511
:104600009D05AE05BF05F1F053DF811108C0C0E084
:104610008C2FCF91FF90EF90DF90CF9008952CE4F6
:104620003EE0B701A60180915510909156107DDFB4
:10463000882369F3C0924C10D0924D10E0924E1036
:10464000F0924F10CC2321F081E080935410E0CF02
:10465000C1E0DECF4F925F926F927F928F929F92D6
:10466000AF92BF92CF92DF92EF92FF920F931F9380
:10467000CF93DF93EC01423051056105710590F451
:1046800080E0DF91CF911F910F91FF90EF90DF902D
:10469000CF90BF90AF909F908F907F906F905F90E2
:1046A0004F90089589859A85AB85BC850196A11D9B
:1046B000B11D84179507A607B70710F38F898031BE
:1046C000C1F5852E962EA72EBB248B899C89AD899A
:1046D000BE89880E991EAA1EBB1E280139016A01D7
:1046E0007B0141E0C501B4017ADF882349F29F894B
:1046F000903181F5DD24EE24FF24F601EE0FFF1F3B
:10470000E45BF14F118300839A89923008F4B9CFAA
:104710004D815E816F817885840E951EA61EB71E21
:104720008092501090925110A0925210B09253105B
:10473000A8CF803209F0A4CF8B899C89AD89BE892E
:104740004A015B01E7E0B694A79497948794EA95B1
:10475000D1F7BFCFE894C7F8DD24EE24FF24F6019B
:10476000EE0FFF1FEE0FFF1FE45BF14F40825182FF
:1047700062827382C9CFCF92DF92EF92FF920F9342
:104780001F93CF93DF93FC0181859285A385B48528
:104790000196A11DB11D84179507A607B70750F410
:1047A00080E0DF91CF911F910F91FF90EF90DF900C
:1047B000CF90089587898031A9F5BB27A72F962F21
:1047C000852FC388D488E588F6888C0D9D1DAE1D85
:1047D000BF1DE9016A017B018F0140914C1050918E
:1047E0004D1060914E1070914F1084179507A607D9
:1047F000B70749F5F8018789803161F5B701A6014E
:10480000552766277727440F551F445B514FFA0100
:1048100080819181B0E0A0E088839983AA83BB83E3
:1048200081E0BFCF803209F0BBCFC388D488E58850
:10483000F688DB01CA01C7E0B695A79597958795DD
:10484000CA95D1F7C2CF40E0BC01CD01C8DE8111CD
:10485000D1CFA6CFB701A6014F7755276627772777
:10486000440F551F440F551F445B514FFA0180817F
:104870009181A281B381BF70CFCF4F925F926F922F
:104880007F92AF92BF92CF92DF92EF92FF920F93FF
:104890001F93CF93DF9300D01F92CDB7DEB78C016B
:1048A00049835A836B837C835901C12CD12C7601B7
:1048B000412C82E0582E612C712C49815A816B81E8
:1048C0007C819E012F5F3F4FC80155DF882319F17E
:1048D000F8018585A301920104C0220F331F441FF4
:1048E000551F8A95D2F7DA01C901C80ED91EEA1EF2
:1048F000FB1E49815A816B817C8187898031F1F46B
:1049000081E0483F5F4F61057105B8F2F501C08253
:10491000D182E282F3820F900F900F900F90DF917F
:10492000CF911F910F91FF90EF90DF90CF90BF90AC
:10493000AF907F906F905F904F90089581E0483FD7
:104940005F4F6F4F7F4008F4B8CFE0CF0F931F93B6
:10495000CF93DF93FC012381222331F080E0DF91AC
:10496000CF911F910F9108958B01EC01FB01878975
:10497000803139F582E08B831D8A1E8A1F8A188E4A
:10498000808D918DB0E0A0E025E0880F991FAA1FCF
:10499000BB1F2A95D1F7898B9A8BAB8BBC8B1A8F57
:1049A000098F81E08983188619861A861B861C82E6
:1049B0001D821E821F82188A1C861D861E861F86E7
:1049C000CECF803259F683E08B83428D538D648D38
:1049D000758D4D8B5E8B6F8B788F9E012F5E3F4F59
:1049E000C8014BDF8111DBCFB9CF8F929F92AF927D
:1049F000BF92CF92DF92EF92FF920F931F93CF93CC
:104A0000DF93EC018B8181110EC080E0DF91CF91AB
:104A10001F910F91FF90EF90DF90CF90BF90AF90DC
:104A20009F908F90089509891A892B893C890417D2
:104A300015072607370748F34A015B01823031F436
:104A400088869986AA86BB8681E0E0CF811491048E
:104A5000A104B10449F4188619861A861B861C82A3
:104A60001D821E821F82F0CF088519852A853B850D
:104A7000E98DFA8D858590E00996B901A80141502C
:104A8000510961097109082E04C0769567955795FB
:104A900047950A94D2F775016401E1E0CE1AD10876
:104AA000E108F10804C0F694E794D794C7948A9576
:104AB000D2F7C416D506E606F70620F0012B022B26
:104AC000032B09F58D899E89AF89B88D8C839D83D1
:104AD000AE83BF838E010C5F1F4FC114D104E1046C
:104AE000F10409F4ADCF4C815D816E817F81980125
:104AF000898D9A8D40DE91E0C91AD108E108F1084C
:104B00008111EBCF82CFC41AD50AE60AF70AE2CFA9
:104B100040E050E0BA0169CF3F924F925F926F92AE
:104B20007F928F929F92AF92BF92CF92DF92EF923D
:104B3000FF920F931F93CF93DF93CDB7DEB72C97E0
:104B40000FB6F894DEBF0FBECDBF5C01DC015996F5
:104B50008D909C90F40181859285A385B4859C01FC
:104B6000AD012F5F3F4F4F4F5F4F29873A874B87EC
:104B70005C87D50114964D905D906D907C90179751
:104B8000411451046104710409F458C0BFEF4B1A79
:104B90005B0A6B0A7B0A312C730162011D821E8243
:104BA0001F821886F40181859285A385B4852D81A5
:104BB0003E814F815885281739074A075B0708F05F
:104BC00054C089859A85AB85BC858C159D05AE053D
:104BD000BF0550F482E0C82ED12CE12CF12C92E0DC
:104BE000492E512C612C712C9E012F5F3F4FB70134
:104BF000A601C401C0DD8823C1F189819A81AB81FE
:104C0000BC81892B8A2B8B2B01F1260137019FEF69
:104C1000491A590A690A790A2D813E814F815885BE
:104C20002F5F3F4F4F4F5F4F2D833E834F835887FA
:104C30003FEFC31AD30AE30AF30AB4CF408051808E
:104C40006280738033243394A7CFC414D504E60460
:104C5000F70411F70FEF1FEF2FEF3FE0B701A601A9
:104C6000C401F8DC782E81111AC0712C872D2C9686
:104C70000FB6F894DEBF0FBECDBFDF91CF911F916D
:104C80000F91FF90EF90DF90CF90BF90AF909F90EB
:104C90008F907F906F905F904F903F900895F501B7
:104CA0004481558166817781411551056105710502
:104CB00031F097018601C401CDDC8823B1F2D50122
:104CC0001496CD92DD92ED92FC921797332051F01D
:104CD000D701C6010196A11DB11DF4018083918306
:104CE000A283B383F50185899689A789B08D892B25
:104CF0008A2B8B2B09F0BACFC58AD68AE78AF08E29
:104D0000818180688183B2CFCF93DF93EC01462FFE
:104D100041706C857D858E859F8561DC882351F08F
:104D2000888920E2829FC0011124845B914FDF912A
:104D3000CF91089590E080E0FACFCF93DF93EC011C
:104D40008B81882339F1898187FF21C061E0CE0101
:104D5000DBDFFC01892BF1F08081853ED9F08B816E
:104D6000823040F489899A89AB89BC89848F958F78
:104D7000A68FB78F8D899E89938F828F8D899E890B
:104D8000AF89B88DB58BA48B89818F778983DF91AB
:104D9000CF918ECB81E0888380E0DF91CF91089521
:104DA0002F923F924F925F926F927F928F929F923B
:104DB000AF92BF92CF92DF92EF92FF920F931F9329
:104DC000CF93DF9300D01F92CDB7DEB78C014B019C
:104DD0001A01DC0113968C911397813009F0C7C03A
:104DE00011968C9181FFC3C082FDAEC06101D801D4
:104DF00018964D915D916D917C911B97C114D104D2
:104E000009F414C159968D919C915A97FC017480B4
:104E10002FEF270D2A013B0139E0769467945794D0
:104E200047943A95D1F7722E74207A01F1E0FF226F
:104E300071101FC0E114F104E1F414964D915D91DD
:104E40006D917C911797411551056105710509F028
:104E500094C055968D919D910D90BC91A02D009779
:104E6000A105B10509F0A1C0C80156DE882309F4E7
:104E70007EC080E092E08E199F0956018C159D0539
:104E800008F45C01D80159964D915C915A9714969B
:104E90008D919D910D90BC91A02D0297A109B10912
:104EA000FA01258504C0880F991FAA1FBB1F2A95E8
:104EB000D2F74685578560897189840F951FA61F93
:104EC000B71F9C01AD01270D311D411D511D290149
:104ED0003A01A11432E0B30609F075C080914C107C
:104EE00090914D10A0914E10B0914F104816590658
:104EF0006A067B0669F4109254108FEF9FEFDC0175
:104F000080934C1090934D10A0934E10B0934F107F
:104F10009401B301A20180915510909156106ADA64
:104F2000882329F1F80180859185A285B3858A0DB2
:104F30009B1DA11DB11D80879187A287B3878A0C15
:104F40009B1CCA18DB0853CFF80141895289638939
:104F5000748980859185A285B385481759076A07AA
:104F60007B0709F443CFC80140DD81113FCF81E0C9
:104F7000D8018C938FEF9FEF6FC09E012F5F3F4F43
:104F8000FADB8823A1F389819A81AB81BC81F80186
:104F9000218D328DF9012789203169F4883FFFEF97
:104FA0009F07A105B10508F05FCFF80184839583C1
:104FB000A683B7835ECF883F2FEF9207A2072FE02B
:104FC000B20798F351CFE114F10449F5D8011896CE
:104FD0004D915D916D917C911B9751968D919D9115
:104FE0000D90BC91A02D481759076A077B07B8F0B0
:104FF0005FDA882309F4BBCF81E08093541040929C
:105000004C1050924D1060924E1070924F10A501AE
:10501000B401C701845B914F0F94A03583CF41E069
:10502000C301B201DCDA8111F2CFA1CFF80181898D
:105030009289A389B48984179507A607B70738F41E
:105040008181418B528B638B748B80688183F801E3
:10505000818183FD18C0C1010F900F900F900F90B8
:10506000DF91CF911F910F91FF90EF90DF90CF9044
:10507000BF90AF909F908F907F906F905F904F9078
:105080003F902F900895C80158DE8111E4CF6FCF73
:10509000CF93DF931F92CDB7DEB7698341E050E035
:1050A000BE016F5F7F4F04967BDE0F90DF91CF9143
:1050B0000895CF93DF93EC0140DE1B82DF91CF9107
:1050C0000895FC0123812111F4CF0895CF93DF933C
:1050D000EB01FC012381211104C080E0DF91CF911D
:1050E00008952250223028F48FE28883198281E0CB
:1050F000F5CF60E009DE009781F3DC0160E080E03D
:105100009EE22D91203299F0883031F49E01260FD5
:10511000311DF90190836F5F9E01260F311DAD0196
:1051200041505109FA014081F90140836F5F8F5F5F
:105130008B3039F7FE01E60FF11D1082D8CF0F93A7
:105140001F93CF93DF938B01EA01DB016D917C917B
:105150000496BCDFD801ED91FC9111978881908174
:10516000992349F08D38A0F43196ED93FC93888112
:105170008F5F8883EFCF8D3858F48FE28083F801FA
:105180008081918101969183808388818F5F88835C
:10519000DF91CF911F910F9108952F923F924F92DF
:1051A0005F926F927F928F929F92AF92BF92CF92B7
:1051B000DF92EF92FF920F931F93CF93DF9300D074
:1051C0001F92CDB7DEB79C838B834B017A01DC0144
:1051D00013968C91811119C08FEF9FEF0F900F9054
:1051E0000F900F90DF91CF911F910F91FF90EF9053
:1051F000DF90CF90BF90AF909F908F907F906F90F7
:105200005F904F903F902F900895EB81FC818181BA
:1052100080FFE2CF01891289238934894085518535
:1052200062857385C701B0E0A0E028013901441A06
:10523000550A660A770A481659066A067B0618F464
:105240007801E41AF50A67018B819C8104969A83A0
:105250008983612C32E0732EC114D10409F4B4C0E7
:10526000AB81BC8118964D915D916D917C911B979E
:105270005A01B1E0BB22EB81FC81818D928D1A0134
:105280002B0129E056944794379427942A95D1F717
:105290002381223089F5DC015A966D917D918D91A3
:1052A0009C915D97620D731D841D951D83010A19E4
:1052B0001B09C016D10608F486010115B2E01B07D0
:1052C00071F420914C1030914D1040914E1050913E
:1052D0004F10621773078407950709F057C040E025
:1052E0007ED9882309F478CFB501645B714FA8019A
:1052F000C4010F94A03555C0FC0114811150122136
:10530000A114B10481F411110EC0452B462B472B7B
:1053100079F5EB81FC8185899689A789B08D848395
:105320009583A683B783AB81BC815996ED91FC919F
:105330005A9714966D917D918D919C91179762501B
:10534000710981099109258504C0660F771F881F9F
:10535000991F2A95D2F72685378540895189620F92
:10536000731F841F951F610F711D811D911D9ECF9D
:10537000AB81BC8114964D915D916D917C91179795
:1053800029813A81F8D98111CECF26CF9401AB0182
:10539000BC018091551090915610C7D8882309F40C
:1053A0001BCF800E911EEB81FC8180859185A285AB
:1053B000B385800F911FA11DB11D80879187A287A2
:1053C000B387C01AD10A48CFC70108CFDF92EF9246
:1053D000FF920F931F93CF93DF938C01EB017A0120
:1053E0008DE0D82E40E250E0BE01C801D6DE80320A
:1053F000910571F021E0892B09F420E0822F81953D
:10540000DF91CF911F910F91FF90EF90DF90089562
:1054100028812223C1F1253E29F32E3219F3E1140C
:10542000F10439F13B853F733F3019F54A8D5B8DAF
:10543000452BF9F42F713FEF320F3530D0F4215066
:10544000330BD29EC001D39E900D1124D701A80F1B
:10545000B91FFE0120E0AD01253078F431813D9384
:105460002F5F32962D30C1F7288126FF02C0FA0146
:1054700015862B8523FDB6CFC3CF2B3010F4348196
:10548000EECF3681ECCF80E0BBCF4F925F926F9230
:105490007F92AF92BF92CF92DF92EF92FF920F93E3
:1054A0001F93CF93DF931F92CDB7DEB78C017B01A3
:1054B0005A01C22EDB0159968D919C91F801928F71
:1054C000818FCB0125DB712CF70180859185A28529
:1054D000B385418952896389748984179507A60722
:1054E000B70708F051C055E0B695A79597958795F1
:1054F0005A95D1F7F82FFF70DF2ED70113968C91B4
:10550000823010F480E0D9C041E050E0BE016F5F0E
:105510007F4FC70142DE0197A9F7F701808591858A
:10552000A285B3854F96A11DB11D80879187A28763
:10553000B387F0E2DF9EB0011124645B714F611507
:10554000710501F3DB018C91882341F0853E09F060
:105550004BC0772029F077247394B6CF71100EC01A
:1055600080914C1090914D10A0914E10B0914F1021
:10557000F80184879587A687B787D08ADB018C914D
:105580008111E9CF772473948C2D8274823409F0D1
:10559000B9CF772009F4A1C0F801D08861E0C80133
:1055A000B3DB009709F4AECF20E2DC011D922A950F
:1055B000E9F72BE0F501DC0101900D922A95E1F766
:1055C00021E238E2FC01318B208B40E058E0578724
:1055D0004687338B228B318F208F578B468B0E94CF
:1055E0005822811109C08ECF4BE050E0C5010F94C5
:1055F0009335892B09F068CFF0E2DF9ED0011124AA
:105600009D01245B314FF9018385817121F08C2D3F
:10561000827109F0FAC0F801818D928D40914C1091
:1056200050914D1060914E1070914F1044875587E6
:1056300066877787D08AFD01E45BF14F44885588FF
:10564000712C612C320155244424D80155964D9279
:105650005D926D927C925897428D538D70E060E020
:10566000442955296629772955964D935D936D9365
:105670007C935897D9011B962C91287109F0B8C0DA
:10568000848D958DA68DB78DF801818B928BA38B20
:10569000B48B81E083838C2D8F70F8018183148219
:1056A000158216821782108611861286138681E073
:1056B000C4FE03C0C8010E9435F70F90DF91CF915F
:1056C0001F910F91FF90EF90DF90CF90BF90AF9020
:1056D0007F906F905F904F900895D70113968C91B3
:1056E0001397823009F40ECF51968D919D910D90B4
:1056F000BC91A02D803E9F4FAF41B10508F002CF75
:10570000C7010ADA882309F4FDCE0E9458228823B3
:1057100009F4F8CED7015996ED91FC915A97149659
:105720004D905D906D907C901797B2E04B1A5108A8
:1057300061087108858504C0440C551C661C771CE3
:105740008A95D2F786859785A089B189480E591E1A
:105750006A1E7B1E81E08093541040924C10509240
:105760004D1060924E1070924F10ECE4FEE080E01D
:1057700092E0DF019C011D9221503040E1F7DD24D1
:10578000D394D7015996ED91FC918481D81698F461
:105790002CE43EE0B301A2014D0D511D611D711DB0
:1057A00080915510909156100E94FA21882309F497
:1057B000A9CED394E6CF258580E092E0A0E0B0E0CA
:1057C00004C0880F991FAA1FBB1F2A95D2F7F701A3
:1057D0004189528963897489840F951FA61FB71F59
:1057E000818B928BA38BB48B8CE49EE0D12CDCCE8E
:1057F000203159F498012F5E3F4F3FD8882329F07C
:1058000084E0D80113968C9346CFD80113961C924E
:1058100079CE2F923F924F925F926F927F928F92AA
:105820009F92AF92BF92CF92DF92EF92FF920F932F
:105830001F93CF93DF93CDB7DEB7C354D1090FB613
:10584000F894DEBF0FBECDBF4C015B016A01222E72
:1058500019821C821C8E1F8E6115710511F510E0D6
:10586000CE014C962EDCCE0101962BDC812FCD5B38
:10587000DF4F0FB6F894DEBF0FBECDBFDF91CF91E3
:105880001F910F91FF90EF90DF90CF90BF90AF905E
:105890009F908F907F906F905F904F903F902F9050
:1058A0000895FC0183818111DACFFA0180818F3262
:1058B000A9F18B01CE0101967C013C0180E2382EDA
:1058C0002E019CE1490E511C2396EFAE239724969E
:1058D000FFAE249722963FAE229721963FAE2197A6
:1058E0003FAE3EAE3DAE3CAE3BAE3AAE39AE38AE6C
:1058F0003FAA960190E047E0D9018D91882309F4F1
:1059000047C08F3209F444C0282F8E3201F54A3047
:1059100009F4A5CF98E04AE09D01EECFFB01838119
:1059200082508B01823058F0618D728DCE014C9681
:105930000DD88E01045E1F4F882309F490CFC60155
:105940006C010196F60120812F32D1F3B3CFE8EF3D
:10595000F0E13491332321F031968313FACF7FCFD6
:10596000491708F47CCF813208F479CF8F3709F4D6
:1059700076CF3FE9380F3A3110F420EE280FE7E3F5
:10598000F0E0EC0FFD1FE90FF11D20839F5FC4CFF6
:105990008FA9803209F463CF6901F90180812F5FFB
:1059A0003F4F8F32C9F38823F1F021E0AE01495C0B
:1059B0005F4FB801C70169DD882309F450CF0A158C
:1059C0001B0511F0C80175DB942D852D6E147F0425
:1059D00031F023969FAD239724968FAD24978701AE
:1059E000E92EF82E77CF222DAE01495C5F4FB8012A
:1059F000C4014BDD182F34CF22E133E0FC013183A9
:105A0000208304965ECBCF93DF93EC0190E080E09F
:105A10000E9403DE6093A2057093A3058093A40502
:105A20009093A50581E090E00E9403DE6093A605B7
:105A30007093A7058093A8059093A90582E090E054
:105A40000E9403DE6093AA057093AB058093AC05BA
:105A50009093AD0582EA95E00E94DDF0C436D10551
:105A600061F48CE0E2EAF5E0ABE2B4E101900D9282
:105A70008A95E1F7DF91CF910895CC0FDD1FCC0F10
:105A8000DD1FFE01E55DFB4ECE55DA4F8881998121
:105A9000AA81BB8180839183A283B383EBCF4F9292
:105AA0005F926F927F928F929F92AF92BF92CF92AE
:105AB000DF92EF92FF920F931F93CF93DF93EC014E
:105AC00060910A0670910B06072E000C880B990B4B
:105AD0000F94502E9B01AC01688179818A819B8152
