:100000000C94BE1A0C94EF1A0C94EF1A0C94EF1A7D
:100010000C94EF1A0C94EF1A0C94EF1A0C94EF1A3C
:100020000C94EF1A0C94EF1A0C94EF1A0C94EF1A2C
:100030000C94EF1A0C94EF1A0C94EF1A0C94EF1A1C
:100040000C94EF1A0C94D5DF0C94EF1A0C94EF1A61
:100050000C94EF1A0C94EF1A0C9444DA0D94880562
:100060000C94EF1A0C944D560C94EF1A0C94EF1A52
:100070000C94EF1A0C94EF1A0C94EF1A0C94EF1ADC
:100080000C9404EA0C94EF1A0C94EF1A0C94EF1AE7
:100090000C94EF1A0C94EF1A0C94EF1A0C94EF1ABC
:1000A0000C94EF1A0C94EF1A0C94D6E90C94EF1AF6
:1000B0000C94EF1A0C94EF1A0C94EF1A0C94A8E914
:1000C0000C94EF1A0C94EF1A0C94EF1A0C94EF1A8C
:1000D0000C94EF1A0C94EF1A0C94EF1A0C94EF1A7C
:1000E0000C94EF1A084AD73B3BCE016E84BCBFFD8F
:1000F000C12F3D6C74319ABD56833DDA3D00C77FF8
:1001000011BED9E4BB4C3E916BAAAABE0000008090
:100110003F05A84CCDB2D44EB93836A9020C50B91F
:10012000918688083CA6AAAA2ABE000000803F004B
:100130000D94F3010D94AE010D9434020D94D10D84
:100140000D9486060D94B30C0D945E200D94B601AB
:100150000D94F8130D948B140D94C80D0D94FD019E
:100160000D943E020D9448020D94E1010D94E509B1
:100170000D9420020D94BB010D942A020D947B1264
:100180000D941A220D94700B0D94D9010D94C50194
:100190000D9472130D9483080D94CF010D941602E3
:1001A0000D94EC120D942D090D94E9010D948C0819
:1001B0000D9407024E414E494E495459494E46CD81
:1001C000CCCC3D0AD7233C17B7D13877CC2B32950E
:1001D00095E6241FB14F0A000020410000C84200EC
:1001E000401C4620BCBE4CCA1B0E5AAEC59D744373
:1001F0004F4D4D554E49434154494F4E004452597D
:1002000052554E004552524F525300494E464F00F0
:100210004543484F004D6573682056616C696461C1
:1002200074696F6E2053746F707065642E00696E10
:10023000206D6F76655F746F282920666565645F41
:1002400076616C756520666F722058593A004C656E
:100250006176696E6720473236004732362048653E
:100260006174696E67204E6F7A7A6C652E00473232
:10027000362048656174696E67204265642E0044CB
:100280006F6E65205072696D696E6700446F6E65B0
:10029000205072696D696E67004669786564204C0C
:1002A000656E677468205072696D652E00557365C0
:1002B000722D436F6E74726F6C6C6564205072693E
:1002C0006D65002C2065793D0029202D3E20286594
:1002D000783D002C2073793D0020436F6E6E65637E
:1002E00074696E67207769746820766572746963D3
:1002F000616C206C696E65202873783D002C206548
:10030000793D0029202D3E202865783D002C207362
:10031000793D0020436F6E6E656374696E67207768
:1003200069746820686F72697A6F6E74616C206C92
:10033000696E65202873783D004C656176696E674B
:1003400020473236002C2079693D00202020446F60
:10035000696E6720636972636C652061743A202856
:1003600078693D003F53706563696669656420582C
:100370002C5920636F6F7264696E617465206F75AC
:1003800074206F6620626F756E64732E0A003F28BA
:10039000522965706561742076616C7565206E6F99
:1003A0007420706C61757369626C653B206D757348
:1003B00074206265206174206C6561737420312E35
:1003C0000A003F537065636966696564206E6F7AE1
:1003D0007A6C652074656D706572617475726520E4
:1003E0006E6F7420706C61757369626C652E0A00A3
:1003F0003F5370656369666965642066696C616D09
:10040000656E742073697A65206E6F7420706C61FC
:10041000757369626C652E0A003F53706563696687
:10042000696564207072696D65206C656E677468BB
:10043000206E6F7420706C61757369626C652E0A32
:10044000003F537065636966696564206E6F7A7AF0
:100450006C652073697A65206E6F7420706C6175AD
:100460007369626C652E0A003F5265747261637431
:10047000696F6E204D756C7469706C696572206D62
:10048000757374206265207370656369666965645D
:100490002E0A003F53706563696669656420526582
:1004A0007472616374696F6E204D756C7469706CE1
:1004B000696572206E6F7420706C61757369626C0F
:1004C000652E0A003F537065636966696564206C38
:1004D0006179657220686569676874206E6F742041
:1004E000706C61757369626C652E0A003F537065AC
:1004F000636966696564206265642074656D706512
:10050000726174757265206E6F7420706C617573A2
:1005100069626C652E0A0047323620636F6D6D612B
:100520006E6420737461727465642E2057616974FF
:10053000696E6720666F72206865617465722873E2
:10054000292E0A0050617261646120646520656D26
:10055000657267656E63696100446574656E6964A0
:1005600061005072696E7465722073746F7070658B
:10057000642064756520746F206572726F72732ECB
:100580002046697820746865206572726F722061F8
:100590006E6420757365204D39393920746F20726F
:1005A0006573746172742E202854656D7065726174
:1005B000747572652069732072657365742E20539B
:1005C0006574206974206166746572207265737445
:1005D000617274696E67290A004E6F204368656313
:1005E0006B73756D2077697468206C696E65206E19
:1005F000756D6265722C204C617374204C696E6558
:100600003A2000636865636B73756D206D69736D67
:10061000617463682C204C617374204C696E653A78
:1006200020004C696E65204E756D6265722069739D
:10063000206E6F74204C617374204C696E65204E7F
:10064000756D6265722B312C204C617374204C697E
:100650006E653A20004D313130004D333100473165
:100660002046313030302058302059323130004768
:1006700032382058590053442072656164206572F5
:10068000726F720A00446F6E65207072696E7469D1
:100690006E672066696C650A0020496E76616C6938
:1006A00064206578747275646572200042696C69B3
:1006B0006E656172204C6576656C696E6720477265
:1006C00069643A0A00473238205A2050726F6869CC
:1006D0006269646F0A00473238205A2050726F688E
:1006E000696269646F0020706F736974696F6E204E
:1006F0006F7574206F662072616E67652E0A003F09
:1007000050726F62652000202844525952554E297C
:1007100000473239204175746F20426564204C6572
:1007200076656C696E670028422961636B00284614
:1007300029726F6E74002852296967687400284C0A
:1007400029656674003F2856296572626F736520BB
:100750006C6576656C20697320696D706C6175736A
:1007600069626C652028302D34292E0A00426164AC
:10077000205A2076616C75650A004E6F2062696CA4
:10078000696E65617220677269640A0052657375EB
:100790006D69656E646F20696D7072652E004D61C4
:1007A000676E61204475616C206C697374612E0002
:1007B0004573706572616E646F206F7264656E65FB
:1007C00073004D3132350044656C6574696F6E207D
:1007D0006661696C65642C2046696C653A20004648
:1007E000696C652064656C657465643A006F70655A
:1007F0006E206661696C65642C2046696C653A20E0
:100800000043616C656E74616D69656E746F206C18
:100810006973746F0020573A0045256920257300DD
:100820004D61676E61204475616C206C6973746101
:100830002E00506C617461666F726D612043616C53
:1008400069656E74650020573A0043616C656E748B
:10085000616E646F20506C61742E2E2E00205A3A07
:100860000020593A0020436F756E7420583A0020DA
:10087000453A00205A3A0020593A00583A003A00C6
:100880004361703A00205A00205900580020204D42
:1008900061783A2000205A00205900580020204D4D
:1008A000696E3A2000456E63656E64657200417042
:1008B0006167617200536F667420656E6473746F54
:1008C00070733A200020643A0020693A0020703AA0
:1008D000004B64200023646566696E6520204445F2
:1008E0004641554C545F004B69200023646566699E
:1008F0006E65202044454641554C545F004B7020A6
:100900000023646566696E65202044454641554C68
:10091000545F00504944204175746F74756E6520B2
:1009200066696E6973686564212050757420746807
:1009300065206C617374204B702C204B6920616EB4
:1009400064204B6420636F6E7374616E74732066F1
:10095000726F6D2062656C6F7720696E746F2043D3
:100960006F6E66696775726174696F6E2E680A00D2
:10097000504944204175746F74756E6520666169D5
:100980006C6564212074696D656F75740A00457229
:10099000726F723A2074656D706572617475726100
:1009A00000546865726D616C2052756E6177617973
:1009B000004572726F723A20616C2063616C656EE3
:1009C0007461720048656174696E67206661696C64
:1009D000656400504944204175746F74756E6520DC
:1009E0006661696C6564212054656D70657261741F
:1009F00075726520746F6F20686967680A00204B04
:100A0000643A2000204B693A2000204B703A2000C5
:100A10000A20436C617373696320504944200A00C3
:100A20002054753A2000204B753A2000206D6178E3
:100A30003A2000206D696E3A200020643A200020A0
:100A4000626961733A20004170616761720A004611
:100A500061646520486569676874200042656420A8
:100A60004C6576656C696E6720004661696C6564EB
:100A700020746F20656E61626C6520426564204C55
:100A80006576656C696E670A004F46460025290049
:100A9000257C00202800252920746F205A00257C01
:100AA000002028004F4E2066726F6D205A0047725A
:100AB000616469656E74204D6978200054454D501D
:100AC00020544F4F204C4F57210047322F4733209F
:100AD00062616420706172616D65746572730A0091
:100AE0005265706F736F2E2E2E00205A3A20002010
:100AF000593A200042656420583A20004D657368D9
:100B000020706F696E742063616E6E6F7420626511
:100B1000207265736F6C7665640A0053696E206D90
:100B20006F76696D69656E746F00456E64206669E5
:100B30006C65206C6973740A00426567696E206693
:100B4000696C65206C6973740A00256973002569F6
:100B50006D20256973002569682025696D20256948
:100B60007300256964202569682025696D20256941
:100B70007300256979202569642025696820256925
:100B80006D20256973005072696E742074696D65FB
:100B90003A200050726F7465637465642050696E0A
:100BA0000A006F6E2E0A006F66662E0A0047323604
:100BB0002044656275672000452569202573004D36
:100BC00061676E61204475616C206C697374612E7D
:100BD000006F66660010020B020402FD01EF014483
:100BE000454255473A005061726164612064652056
:100BF000656D657267656E636961004D31313320E3
:100C000053006F6B004D61676E61204475616C200D
:100C10004170616761722E00454D455247454E4314
:100C2000595F50415253455200434153455F4C492F
:100C30004748545F4252494748544E455353005425
:100C40004F47474C455F4C494748545300534F4624
:100C500054574152455F504F574552004255494CF9
:100C6000445F50455243454E54004C4556454C490F
:100C70004E475F44415441005A5F50524F42450035
:100C80004155544F4C4556454C005052494E545FC7
:100C90004A4F420050524F4752455353004155541A
:100CA0004F5245504F52545F54454D5000564F4C93
:100CB000554D455452494300454550524F4D005300
:100CC000455249414C5F584F4E5F584F464600468B
:100CD00049524D574152455F4E414D453A4D617223
:100CE0006C696E20312E312E382E332028476974DE
:100CF0006875622920534F555243455F434F444521
:100D00005F55524C3A68747470733A2F2F67697448
:100D10006875622E636F6D2F4D61726C696E4669E6
:100D2000726D776172652F4D61726C696E205052E1
:100D30004F544F434F4C5F56455253494F4E3A31F3
:100D40002E30204D414348494E455F545950453A55
:100D50004D61676E61204475616C20455854525551
:100D60004445525F434F554E543A312055554944FE
:100D70003A63656465326132662D343161322D34F7
:100D80003734382D396231322D633535633632666A
:100D900033363766660A002F2F20004D3134352058
:100DA000533C696E6465783E206F7574206F6620D1
:100DB00072616E67652028302D31290A00576172F3
:100DC0006E696E673A204D697820666163746F7250
:100DD00073206D7573742061646420757020746F66
:100DE00020312E302E205363616C696E672E0A000D
:100DF00053657474696E672054726176656C204126
:100E00006363656C65726174696F6E3A2000536547
:100E10007474696E672052657472616374204163F3
:100E200063656C65726174696F6E3A200053657416
:100E300074696E67205072696E7420416363656CDB
:100E400065726174696F6E3A200053657474696EDF
:100E500067205072696E7420616E642054726176EE
:100E6000656C20416363656C65726174696F6E3A8D
:100E70002000000125272318FF1F211D1CFF191723
:100E80001B1EFFFF0C0409FFFFFF2E2C0CFFFF3180
:100E90002F3004400AFF41FFFFFFFFFFFF3A200011
:100EA00020536572766F2000206F7574206F662066
:100EB00072616E67650A00536572766F2000206468
:100EC0003A0020693A0020703A0043290A00616222
:100ED0006C656420286D696E2074656D7020004318
:100EE0006F6C6420657874727564657320617265D7
:100EF00020004D65736820706F696E742063616EA9
:100F00006E6F74206265207265736F6C7665640A1B
:100F1000004D34323120696E636F727265637420E4
:100F2000706172616D657465722075736167650AC1
:100F3000003A2000207A5F6D696E3A20202D323011
:100F4000207A5F6D61783A202032300A0050726F4B
:100F50006265205A204F666673657400436173654D
:100F6000206C696768743A2000290A004669786530
:100F70006420706172616D65746572206279746558
:100F8000733B20637263200046697865642070615A
:100F900072616D6574657220280048565F736574D0
:100FA0005F6F6B0A00556E6B6E6F776E20636F6DAF
:100FB0006D616E643A202200526573656E643A205A
:100FC000006F6B0020746F6F206C6F6E6720657808
:100FD00074727573696F6E2070726576656E746574
:100FE000640A0020636F6C6420657874727573699D
:100FF0006F6E2070726576656E7465640A00627546
:1010000073793A2070617573656420666F72206928
:101010006E7075740A00627573793A207061757329
:10102000656420666F7220757365720A006275735D
:10103000793A2070726F63657373696E670A005046
:10104000617261646120646520656D657267656EBB
:10105000636961004B494C4C206361757365642082
:10106000627920746F6F206D75636820696E6163AB
:10107000746976652074696D65202D2063757272C0
:10108000656E7420636F6D6D616E643A2000506F01
:1010900072206661766F722C207265696E69636971
:1010A0006500494D505245534F52412050415241E5
:1010B0004441005072696E7465722068616C746599
:1010C000642E206B696C6C28292063616C6C6564EC
:1010D000210A00000000C1000000C1000000000063
:1010E00000C8420000C8420000A0410000000057B4
:1010F00061726E696E673A20486F6D696E67204253
:10110000756D702044697669736F72203C20310AD6
:10111000000202040000A0400000A04000000040C7
:10112000000064430000644300008243FFFFFF4D62
:1011300036303020486F74656E6420746F6F2063A2
:101140006F6C6420746F206368616E6765206669E8
:101150006C616D656E740A007C3C3E5E2B3D3F2FDA
:101160005B5D3B2C2A225C004572726F72207772A5
:101170006974696E6720746F20454550524F4D2148
:101180000A00290A002062797465733B2063726348
:10119000200053657474696E67732053746F7265B1
:1011A00064202800290A57726974652066696C6595
:1011B000206E616D653A20002062797465733B2072
:1011C0006372632000506F7765726F666620537498
:1011D0006F72656420280020213D20006372632027
:1011E0006572726F723A20000A72656164206669E6
:1011F0006C65206E616D653A2000290A7265616434
:101200002066696C65206469723A200020627974F6
:1012100065733B206372632000706F7765726F6641
:10122000662073746F7265642073657474696E6789
:1012300073207265747269657665642028002028C1
:1012400063616C63756C6174656429210A002021F7
:101250003D2000454550524F4D20435243206D697B
:10126000736D61746368202D202873746F726564D8
:10127000292000290A002062797465733B2063727B
:101280006320002073746F726564207365747469E1
:101290006E677320726574726965766564202800D4
:1012A000204D61726C696E3D56313231290A002839
:1012B000454550524F4D3D00454550524F4D2076CB
:1012C000657273696F6E206D69736D6174636820F8
:1012D0000048617264636F6465642044656661758B
:1012E0006C742053657474696E6773204C6F61640D
:1012F00065640A00F4010000F401000064000000CD
:10130000E80300000000FA430000FA430000A04098
:101310000000C8419A99A0429A99A0420000C8438F
:101320000080C54320204D383531205A005A2D50B9
:10133000726F6265204F666673657420286D6D2933
:101340003A0A0020440020490020204D3330342048
:10135000500020440020490020204D3330312050DF
:10136000005049442073657474696E67733A0A00CB
:1013700020460020420020480020204D31343520F6
:1013800053004D6174657269616C206865617475A4
:101390007020706172616D65746572733A0A002025
:1013A0005A0020204D3432302053004175746F2094
:1013B000426564204C6576656C696E673A0A002068
:1013C0004500205A00205900205800204200205497
:1013D0000020204D323035205300416476616E6329
:1013E00065643A20533C6D696E5F66656564726141
:1013F00074653E20543C6D696E5F74726176656CF5
:101400005F66656564726174653E20423C6D696E1D
:101410005F7365676D656E745F74696D655F757325
:101420003E20583C6D61785F78795F6A65726B3EEB
:10143000205A3C6D61785F7A5F6A65726B3E204529
:101440003C6D61785F655F6A65726B3E0A0020548F
:101450000020520020204D32303420500041636380
:10146000656C65726174696F6E2028756E6974733E
:101470002F7332293A20503C7072696E745F616339
:1014800063656C3E20523C726574726163745F6187
:101490006363656C3E20543C74726176656C5F6179
:1014A0006363656C3E0A00204500205A0020590005
:1014B00020204D3230312058004D6178696D756DB6
:1014C00020416363656C65726174696F6E20287575
:1014D0006E6974732F7332293A0A00204500205A2E
:1014E0000020590020204D3230332058004D6178C3
:1014F000696D756D20666565647261746573202819
:10150000756E6974732F73293A0A00204500205ABA
:101510000020590020204D39322058005374657046
:10152000732070657220756E69743A0A0020204D30
:101530003230302044300A0020204D3230302044F8
:10154000002044697361626C65640A0046696C61DD
:101550006D656E742073657474696E67733A0020EC
:10156000204D3134392043203B20556E697473205F
:10157000696E2043656C736975730A0020204732D9
:1015800031202020203B20556E69747320696E2025
:101590006D6D0A007A5F6D696E3A2000795F6D6942
:1015A0006E3A2000785F6D696E3A20005265706F68
:1015B0007274696E6720656E6473746F70207374E3
:1015C000617475730A0020746F6F206C6F6E6720F2
:1015D000657874727573696F6E2070726576656E6A
:1015E0007465640A0020636F6C642065787472759A
:1015F00073696F6E2070726576656E7465640A003B
:1016000024F4D43050C38E20C2A24017828B7011B4
:10161000127A910D816CD90AA861E108C758660752
:10162000615143061E4B5D05C145A7041A411104D3
:10163000093D9803713931034036DB02653391026D
:10164000D4305402802E1D02632CEE01752AC50190
:10165000B028A001102781018F2564012B244B01A4
:10166000E0223401AC211F018D200D01801FFC0000
:10167000841EED00971DDF00B81CD200E61BC600DB
:10168000201BBC00641AB200B219A8000A19A000FD
:101690006A189900D117910040178B00B516840085
:1016A00031167E00B31579003A157300C7146F0028
:1016B00058146A00EE1366008813630025135E0059
:1016C000C7125B006C12570015125400C111510073
:1016D00070114F0021114B00D61049008D104700AA
:1016E0004610440002104200C00F4000800F3E0030
:1016F000420F3C00060F3B00CB0E3800930E370024
:101700005C0E3500270E3400F30D3200C10D3100A0
:10171000900D3000600D2E00320D2D00050D2C00B7
:10172000D90C2B00AE0C2900850C29005C0C27007D
:10173000350C27000E0C2600E80B2400C40B2400F7
:10174000A00B23007D0B23005A0B2100390B210035
:10175000180B2000F80A1F00D90A1E00BB0A1E0041
:101760009D0A1D00800A1D00630A1C00470A1B0019
:101770002C0A1B00110A1A00F7091A00DD091900CA
:10178000C4091900AB091900920917007B09180058
:10179000630917004C0916003609160020091600C7
:1017A0000A091500F5081500E0081400CC0814001B
:1017B000B8081400A4081400900813007D08120053
:1017C0006B08130058081200460812003408110074
:1017D000230811001208110001081100F007100081
:1017E000E0071000D0071000C0071000B0070F007E
:1017F000A107100091070E0083070F0074070F0068
:1018000065070E0057070E0049070E003B070D0045
:101810002E070E0020070D0013070D0006070D0010
:10182000F9060C00ED060D00E0060C00D4060C00D5
:10183000C8060C00BC060C00B0060C00A4060B0089
:1018400099060C008D060B0082060B0077060B0034
:101850006C060B0061060A0057060B004C060A00D6
:1018600042060A0038060A002E060A0024060A006C
:101870001A060A001006090007060A00FD050900FD
:10188000F4050900EB050900E2050900D905090086
:10189000D0050900C7050900BE050900B505080007
:1018A000AD050800A50509009C0508009405080081
:1018B0008C050800840508007C05080074050800F4
:1018C0006C050700650508005D0507005605080062
:1018D0004E050700470507004005080038050700CA
:1018E000310507002A050700230507001C0506002F
:1018F000160507000F05070008050600020507008A
:10190000FB040600F5040700EE040600E8040600E8
:10191000E2040700DB040600D5040600CF0406003D
:10192000C9040600C3040600BD040600B70406008F
:10193000B1040500AC040600A6040600A0040500DE
:101940009B04060095040500900406008A04050027
:1019500085040500800406007A040500750405006E
:10196000700405006B0405006604050061040500B1
:101970005C04050057040500520405004D040500F1
:1019800048040500430405003E0404003A04050031
:1019900035040500300404002C040500270404006D
:1019A000230405001E0404001A04040016040500A4
:1019B000110404000D0404000904050004040400DB
:1019C00000040400FC030400F8030400F403040012
:1019D000F0030400EC030400E8030400E403040043
:1019E000E0030400DC030400D8030400D403040073
:1019F000D0030400CC030400C8030300C5030300A4
:101A000024F404D9201BC40C5C0E9804C4095F02A2
:101A100065077101F405F900FB04B3004804870071
:101A2000C10369005803550003034500BE023A0094
:101A30008402310053022A002902250004022000FA
:101A4000E4011C00C8011900AF011700980114003F
:101A500084011300710110006101100051010E009A
:101A600043010D0036010B002B010B0020010B0080
:101A7000150109000C01090003010800FB00080022
:101A8000F3000800EB000700E4000600DE0006009B
:101A9000D8000600D2000600CC000500C7000500F3
:101AA000C2000500BD000400B9000400B500040038
:101AB000B1000400AD000400A9000400A50003006B
:101AC000A20003009F0004009B0003009800030095
:101AD0009500020093000300900003008D000200B7
:101AE0008B000300880002008600020084000300CF
:101AF000810002007F0002007D0002007B000200E6
:101B000079000200770001007600020074000200F4
:101B100072000100710002006F0002006D00010000
:101B20006C0002006A000100690002006700010009
:101B3000660001006500010064000200620001000F
:101B400061000100600001005F0002005D00010013
:101B50005C0001005B0001005A0001005900010017
:101B60005800010057000100560001005500010017
:101B70005400010053000000530001005200010016
:101B800051000100500001004F0001004E00000014
:101B90004E0001004D0001004C0001004B00000010
:101BA0004B0001004A00010049000100480000000C
:101BB0004800010047000100460000004600010007
:101BC0004500000045000100440001004300000002
:101BD00043000100420000004200010041000000FB
:101BE00041000100400001003F0000003F000100F3
:101BF0003E0000003E0001003D0000003D000100ED
:101C00003C0000003C0000003C0001003B000000E4
:101C10003B0001003A0000003A00010039000000DA
:101C200039000100380000003800000038000100D1
:101C300037000000370001003600000036000000C9
:101C400036000100350000003500000035000100BD
:101C500034000000340000003400010033000000B4
:101C600033000000330001003200000032000000A9
:101C7000320001003100000031000000310001009D
:101C80003000000030000000300001002F00000094
:101C90002F0000002F0000002F0001002E00000088
:101CA0002E0000002E0001002D0000002D0000007D
:101CB0002D0000002D0001002C0000002C00000071
:101CC0002C0000002C0001002B0000002B00000065
:101CD0002B0000002B0001002A0000002A00000059
:101CE0002A0000002A00010029000000290000004D
:101CF0002900000029000000290001002800000040
:101D00002800000028000000280000002800010032
:101D10002700000027000000270000002700000027
:101D20002700010026000000260000002600000019
:101D3000260000002600010025000000250000000C
:101D400025000000250000002500000025000100FE
:101D500024000000240000002400000024000000F3
:101D600024000100230000002300000023000000E5
:101D700023000000230000002300000023000100D6
:101D800022000000220000002200000022000000CB
:101D900022000000220001002100000021000000BC
:101DA00021000000210000002100000021000000AF
:101DB00021000100200000002000000020000000A1
:101DC0002000000020000000200000002000000093
:101DD000200001001F0000001F0000001F00000085
:101DE0001F0000001F0000001F0000001F00010076
:101DF0001E0000001E0000001E0000001E0000006B
:101E00004D383420582059205A2045005A25752C29
:101E100045256C752C50256C752C5425752C422548
:101E2000752C004D61676E61204475616C206C6992
:101E30007374612E004D61676E61204475616C2082
:101E40006C697374612E004572723A4E6F20466958
:101E50006C616D656E74006265640A002C20737994
:101E60007374656D2073746F7070656421204865AC
:101E7000617465725F49443A20004572726F723A2C
:101E800020616C2063616C656E74617200486561ED
:101E900074696E67206661696C6564004572726F73
:101EA000723A20616C2063616C656E7461720048E7
:101EB000656174696E67206661696C6564007001B4
:101EC0002C0190012701B0012201C0011D01F00188
:101ED00018011002130130020E0160020901900284
:101EE0000401C002FF000003FA004003F500800374
:101EF000F000D003EB002004E6007004E100E004F1
:101F0000DC004005D700C005D2004006CD00D00659
:101F1000C8008007C3003008BE00F008B900C0093F
:101F2000B400B00AAF00B00BAA00D00CA500000EA0
:101F3000A000500F9B00C01096005012910000149A
:101F40008C00C0158700B0178200B0197D00D01B2F
:101F50007800001E730040206E0090226900F0247B
:101F6000640040275F0090295A00E02B5500102E96
:101F7000500020304B0010324600E03341009035D5
:101F80003C001037370070383200A0392D00B03ACD
:101F90002800A03B2300603C1E00103D1900903D2E
:101FA0001400103E0F00703E0A00C03E0500003FC6
:101FB0000000403FFBFF803FF6FFC03FF1FF45724E
:101FC000726F723A2054656D70204D696E20506CAE
:101FD0006174004572726F723A2054656D70204DC5
:101FE000696E696D61004D494E54454D50207472C3
:101FF00069676765726564004572726F723A205452
:10200000656D70204D617820506C6174004572726E
:102010006F723A2054656D70204D6178696D610072
:102020004D415854454D502074726967676572651B
:102030006400202F002042403A0020403A00001C5B
:102040001F11111F00000006191803130C00040EC5
:102050001F041C00000000101010101010000014CD
:102060001414141414000015151515151500000E80
:102070001315110E00001C10181705060500040AA0
:102080000A0A0A11110E0C12120C00000000001FA7
:102090001511151F000000000000010204040000DB
:1020A000001C1C0C040404020100000000000408D1
:1020B0001000000000004D313034205325750047DA
:1020C00039322045257500473932205A25752E258D
:1020D00075004D3530300043616E63656C20707261
:1020E000696E74005265616E7564617220696D700D
:1020F000726573696F6E00506F776572206F7574CB
:102100006167650025753A253032750025303275D6
:102110003A25303275002D2D2D005344005A004DC4
:10212000782025643B2564252520004D785E2564B4
:102130003B2564252520005374617274205A3A208F
:102140002534642E2564206D6D002020456E6420AA
:102150005A3A202534642E2564206D6D00285A20BB
:102160003C3D2025642E256429005374617274203F
:102170006D69783A2025336425252025336425258B
:1021800000285A203E3D2025642E25642900202069
:10219000456E64206D69783A202533642525202515
:1021A000336425250046756C6C206772616469652F
:1021B0006E74002533643B253364252500202045BB
:1021C0006E64206D69783A002533643B25336425BD
:1021D00025005374617274206D69783A004772610A
:1021E0006469656E74002534642E2564206D6D006D
:1021F0002020456E64205A3A002534642E25642040
:102200006D6D005374617274205A3A0047726164B4
:1022100069656E74206D6978004D69786572004D4E
:1022200069783A2020202025336425252025336431
:102230002525004772616469656E7400546F676795
:102240006C65206D6978002533643B253364252552
:10225000004D6978004D656E75207072696E636916
:1022600070616C0053746F7720424C546F756368D3
:10227000004D3238302050302053393000446570E2
:102280006C6F7920424C546F756368004D32383062
:102290002050302053313000424C546F7563682019
:1022A0004175746F2D507275656261004D32383022
:1022B0002050302053313230005265696E696369B5
:1022C000617220424C546F756368004D3238302083
:1022D00050302053313630004D656E752070726974
:1022E0006E636970616C005072696E742070617504
:1022F000736564004D31323500002573004D323472
:1023000000496D70726573696F6E2063616E6365FD
:102310006C616461004732382058590047393000F9
:102320004731204631303030205A32300047393181
:10233000004E6F20686179207461726A6574612053
:102340005344004D656E7520646520534400446518
:1023500074656E657220696D70726573696F6E0069
:102360005265616E7564617220696D707265736922
:102370006F6E00496E662E20496D707265736F72C4
:10238000610050617573617220696D707265736967
:102390006F6E004D6978657200436F6E74726F6C7A
:1023A00000507265706172617200416A7573746188
:1023B0007200496E666F726D6163696F6E004D6980
:1023C00063726F7061736F205A004D363030204257
:1023D000300043616D626961722066696C616D6590
:1023E0006E746F004D6963726F7061736F205A0075
:1023F000466C756A6F00466C756A6F0056656E7440
:10240000696C61646F720056656E74696C61646FAB
:102410007200506C617461666F726D6100506C6126
:102420007461666F726D6100426F7175696C6C6189
:1024300000426F7175696C6C610056656C6F636901
:102440006461640056656C6F6369646164004D6526
:102450006E75207072696E636970616C0050726590
:1024600063616C656E74617220504C4120456E64EE
:102470000050726563616C656E74617220504C41EE
:10248000506C617461666F726D610050726563615A
:102490006C656E74617220504C41005072657061C1
:1024A0007261720050726563616C656E7461722056
:1024B00041425320456E640050726563616C656EE5
:1024C00074617220414253506C617461666F726D29
:1024D000610050726563616C656E74617220414287
:1024E0005300507265706172617200417472617361
:1024F000004E65787420636F726E6572004D3238DD
:1025000030205030205331363000424C546F7563C8
:1025100068204175746F2D507275656261004D328F
:1025200038302050302053313230005072656361B2
:102530006C656E7461722041425300507265636134
:102540006C656E74617220504C4100456E66726914
:1025500061720043616D626961722066696C616DD0
:10256000656E746F005265696E69636961722042BD
:102570004C546F75636800417061676172206D6FC4
:10258000746F726573004D3834004C6576656C204D
:10259000636F726E657273004E6976656C6172204E
:1025A000706C617461666F726D61004732380A4702
:1025B0003239004C6C6576617220616C206F7269F3
:1025C00067656E00473238004D6F76657220656A28
:1025D0006573004D656E75207072696E6369706118
:1025E0006C004D6F7665722058004D6F76657220D5
:1025F00059004D6F766572205A0045787472757374
:102600006F72004D6F76657220302E316D6D004D0A
:102610006F76657220316D6D004D6F766572203179
:10262000306D6D004D6F76657220656A6573004888
:102630006F74656E6420746F6F20636F6C64004507
:1026400078747275736F72004D6F766572205A00E0
:102650004D6F7665722059004D6F76657220580077
:102660004578747275736F72004D6F766572205A7B
:10267000004D6F7665722059004D6F766572205857
:1026800000507265706172617200496E69746961AF
:102690006C697A6520454550524F4D00436F6E740A
:1026A000726F6C00526573746175726172206D6532
:1026B0006D6F72696100436172676172206D656D53
:1026C0006F72696100496E697469616C697A65202D
:1026D000454550524F4D0047756172646172206DDF
:1026E000656D6F72696100424C546F756368004696
:1026F000696C616D656E746F004D6F76696D6965AB
:102700006E746F0054656D706572617475726100EE
:102710004D656E75207072696E636970616C004DF5
:102720003330332055312045256920532569005029
:10273000726563616C656E74617220414253436FD0
:102740006E6669670050726563616C656E74617274
:1027500020504C41436F6E666967005049442041E8
:1027600075746F74756E6500504944204175746FBF
:1027700074756E65005049442D44005049442D4401
:10278000005049442D49005049442D4900504944C6
:102790002D50005049442D500020022046616374A2
:1027A0000020022046616374002002204D61780001
:1027B0002002204D6178002002204D696E00200229
:1027C000204D696E0041706167617200456E6365FE
:1027D0006E6465720054656D7065726174757261C6
:1027E000204175746F2E0056656E74696C61646F5C
:1027F000720056656E74696C61646F7200506C6132
:102800007461666F726D6100506C617461666F72A5
:102810006D6100426F7175696C6C6100426F71751A
:10282000696C6C6100436F6E74726F6C0047756108
:1028300072646172206D656D6F72696100506C61C8
:102840007461666F726D6100506C617461666F7265
:102850006D6100426F7175696C6C6100426F7175DA
:10286000696C6C610056656E74696C61646F7200AE
:1028700056656E74696C61646F720054656D706545
:102880007261747572610056656C2E207669616A9A
:1028900065206D696E0056656C2E207669616A65EB
:1028A000206D696E00566D696E00566D696E00563A
:1028B0006D61784500566D61784500566D61785AB6
:1028C00000566D61785A00566D61785900566D61F9
:1028D000785900566D61785800566D617858004DF2
:1028E0006F76696D69656E746F004163656C2E204B
:1028F0006D617845004163656C2E206D61784500FF
:102900004163656C2E206D61785A004163656C2EC1
:10291000206D61785A004163656C2E206D61785995
:10292000004163656C2E206D617859004163656CD0
:102930002E206D617858004163656C2E206D6178A2
:1029400058004163656C2E205669616A65004163D9
:10295000656C2E205669616A65004163656C2E20A6
:102960007265747261632E004163656C2E2072651E
:10297000747261632E004163656C65726163696F97
:102980006E004163656C65726163696F6E004D6FC7
:1029900076696D69656E746F0056652D6A65726B38
:1029A0000056652D6A65726B00567A2D6A65726BEA
:1029B00000567A2D6A65726B0056792D6A65726BC6
:1029C0000056792D6A65726B0056782D6A65726BB8
:1029D0000056782D6A65726B004D6F76696D69657A
:1029E0006E746F0045207061736F732F6D6D0045BD
:1029F000207061736F732F6D6D005A207061736F5B
:102A0000732F6D6D005A207061736F732F6D6D00A1
:102A100059207061736F732F6D6D00592070617351
:102A20006F732F6D6D0058207061736F732F6D6D14
:102A30000058207061736F732F6D6D004D6F766954
:102A40006D69656E746F005061736F732F6D6D00EB
:102A50004A65726B004163656C65726163696F6E94
:102A60000056656C6F6369747900446573666173C1
:102A700065205A0044657366617365205A00436F90
:102A80006E74726F6C00456E63656E6465720052A1
:102A9000756E6F75742073656E736F72730041701D
:102AA000616761720046696C2E204469612E0046A0
:102AB000696C2E204469612E00417061676172006B
:102AC000456E63656E646572004520696E206D6DAC
:102AD0003300436F6E74726F6C0043616E6E6F747F
:102AE00020656E746572207375626469723A2000A5
:102AF000052E2E004D656E75207072696E636970CB
:102B0000616C0054656D7065726174757261206DE1
:102B10006178696D613A203132350054656D7065B8
:102B2000726174757261206D696E696D613A2035EC
:102B300000544265643A4550434F53203130304B86
:102B40000054656D7065726174757261206D617895
:102B5000696D613A203236350054656D7065726179
:102B600074757261206D696E696D613A203500542B
:102B7000303A204550434F53203130304B0046759A
:102B8000656E746520646520706F6465723A2047D5
:102B9000656E657269630050726F746F636F6C6FFE
:102BA0003A20312E300020202020485720566572D0
:102BB0003A2056004657205665723A2056322E313A
:102BC0000042617564696F733A20323530303030BD
:102BD000004754323536302056342E300042696C6E
:102BE000696E656172204C6576656C696E6700453B
:102BF00078747275736F7265733A203100687474FB
:102C0000703A2F2F68656C6C626F742E78797A0039
:102C10004D61676E61204475616C00323031372D33
:102C200031322D32352031323A303000312E312ED2
:102C3000382E33004D61726C696E005465726D6997
:102C400073746F72657300496E662E20436F6E74E5
:102C5000726F6C61646F7200496E662E20496D70F0
:102C60007265736F7261004D656E75207072696E6A
:102C7000636970616C002020426F7175696C6C61D2
:102C80003A200041747261730054656D70204D6983
:102C90006E696D61206573203137302E0045727288
:102CA0006F723A20616C2063616C656E74617200B2
:102CB00045787472756972206D6173005265737521
:102CC0006D697220696D702E004F50432E20524561
:102CD000494E4943494F3A002020426F7175696C53
:102CE0006C613A200063616D626961720064656CB9
:102CF0002066696C616D656E746F004573706572F6
:102D0000616E646F20696E696369617200494D503C
:102D1000522E2050415553414441002020426F71B2
:102D200075696C6C613A200066696C616D656E74E2
:102D30006F20657870756C7361646F0045737065A2
:102D40007261646F20706F7200494D50522E205096
:102D5000415553414441002020426F7175696C6CAC
:102D6000613A200045737065726520706F7220664D
:102D700061766F720043616C656E74616E646F2082
:102D8000626F7175696C6C6100494D50522E205014
:102D9000415553414441002020426F7175696C6C6C
:102DA000613A200043616C656E746172206C612031
:102DB000626F7175696C6C61004F7072696D612032
:102DC000626F746F6E207061726100494D50522EB7
:102DD0002050415553414441002020426F71756994
:102DE0006C6C613A20007061726120636F6E74696F
:102DF0006E7561722E2E2E00792070726573696F68
:102E00006E6520656C20626F746F6E00496E73652D
:102E10007274652066696C616D656E746F00494DF2
:102E200050522E2050415553414441002020426FC2
:102E30007175696C6C613A20004361726761722040
:102E400066696C616D656E746F0045737065726163
:102E5000646F20706F7200494D50522E20504155C2
:102E600053414441002020426F7175696C6C613A96
:102E70002000457874727569722066696C616D65B1
:102E80006E746F00457370657261646F20706F724D
:102E900000494D50522E205041555341444100703D
:102EA00061726120726573756D697200457370653A
:102EB00072616E646F20696D702E00494D50522E04
:102EC0002050415553414441005461726A65746118
:102ED000207265746972616461005461726A65741C
:102EE0006120636F6C6F63616461000000210024E6
:102EF0000027002A002D00300033000101000004EB
:102F00000107010A0100002200250028002B002EE5
:102F1000003100340002010000050108010B01002E
:102F20000020002300260029002C002F0032000082
:102F30000100000301060109010505050507050853
:102F4000080808020202020A0A080804040404012C
:102F5000010101010101010303030303030303044E
:102F60000707070C0C0C0C0C0C0C0C0202020206DE
:102F7000060606060606060B0B0B0B0B0B0B0B01CE
:102F8000021020200808102040102040800201027A
:102F90000108040201010204081020408080402042
:102FA000100804020180040201804020100804027D
:102FB00001080402010102040810204080010204FB
:102FC000081020408000000A0B02090C0D0E0807B3
:102FD00003040100000000000000000000000000E9
:102FE00000000000000000000000000000000000E1
:102FF000001211100000000000000000000000009E
:103000000000000000000000000000200D4669786C
:10301000656420706172616D65746572206E62799D
:103020007465733B20637263206572726F72200057
:10303000200D0A466978656420706172616D65745F
:1030400065722062797465733B20637263206572D8
:10305000726F722000290A002062797465733B2028
:103060006372632000466978656420706172616DE7
:1030700065746572202800206861726477617265EA
:103080002076657273696F6E3A002D2D2D2D2D2DD2
:10309000007C4D61726C696E7C002D2D2D2D2D2DC7
:1030A00000687474703A2F2F68656C6C626F742EB0
:1030B00078797A00687474703A2F2F68656C6C6246
:1030C0006F742E78797A0020312E312E382E33000D
:1030D0002020506C616E6E65724275666665724244
:1030E000797465733A20002046726565204D656DE0
:1030F0006F72793A2000436F6D70696C65643A2095
:1031000041756720323220323032300A00207C2074
:10311000417574686F723A20286E6F6E652C20645A
:10312000656661756C7420636F6E666967290A0055
:10313000323031372D31322D32352031323A303084
:1031400000204C61737420557064617465643A208A
:1031500000312E312E382E330A004D61726C696EAB
:103160000020536F667477617265205265736574D1
:103170000A00205761746368646F67205265736545
:10318000740A002042726F776E206F75742052654A
:103190007365740A002045787465726E616C205204
:1031A000657365740A00506F77657255700A007315
:1031B000746172740A006572726F7220777269743A
:1031C000696E6720746F2066696C650A00456E64DD
:1031D00073746F7073202563202563202563202579
:1031E0006300205A3A0020593A0020583A00656E90
:1031F0006473746F7073206869743A2000473238C2
:1032000020580066696C616D656E74206F75740A74
:10321000004D33322053256C7520212573004D332A
:10322000322053256C7520212F25732F25730047DD
:1032300030204631303030205A25752E2575004714
:1032400032382059004732382058004D313036206E
:103250002053323535004D3130392054302053253C
:1032600075004D3139302053257500446F6E65204F
:10327000736176696E672066696C652E0A004D324F
:10328000390050726F62696E67206661696C6564AF
:103290000A0050726F62696E67206661696C6564CE
:1032A00000205A3A200020593A20004265642058F4
:1032B0003A2000446574656E696461005072696EFD
:1032C0007465722073746F70706564206475652016
:1032D000746F206572726F72732E20466978207445
:1032E0006865206572726F7220616E642075736507
:1032F000204D39393920746F20726573746172748E
:103300002E202854656D7065726174757265206930
:10331000732072657365742E205365742069742060
:1033200061667465722072657374617274696E6728
:10333000290A0053544F502063616C6C656420620D
:10334000656361757365206F6620424C546F7563C9
:1033500068206572726F72202D20726573746172BD
:10336000742077697468204D3939390A0053442034
:103370007072696E74696E67206279746520004EA0
:103380006F74205344207072696E74696E670A000E
:10339000486F6D652025732573257320696E6963F9
:1033A0002E0020696E69632E0A005A0059005800E9
:1033B000486F6D65200057726974696E6720746F7D
:1033C0002066696C653A20006F70656E20666169E1
:1033D0006C65642C2046696C653A20006F70656EE0
:1033E000206661696C65642C2046696C653A200032
:1033F00046696C652073656C65637465640A0020BA
:1034000053697A653A200046696C65206F70656E75
:1034100065643A20006F70656E206661696C656452
:103420002C2046696C653A20002066696C653A205C
:1034300000646F696E67006672657368004E6F772F
:103440002000454E4420535542524F5554494E4555
:103450000A002220706F73002220706172656E7402
:103460003A2200535542524F5554494E452043414C
:103470004C4C207461726765743A2200506172612D
:10348000646120646520656D657267656E6369615E
:1034900000747279696E6720746F2063616C6C20B0
:1034A0007375622D67636F64652066696C65732050
:1034B0007769746820746F6F206D616E79206C6518
:1034C00076656C732E204D4158206C6576656C20B6
:1034D00069733A0053442063617264206F6B0A0081
:1034E0006F70656E526F6F74206661696C65640AF7
:1034F00000766F6C756D652E696E69742066616902
:103500006C65640A004572726F723A005344206918
:103510006E6974206661696C0A0043616E6E6F7437
:10352000206F70656E20737562646972200061752A
:10353000746F25692E67004D3234004D32332025DB
:103540007300656E7175657565696E67202200652B
:1035500063686F3A004572726F723A2074656D70DD
:103560006572617475726100546865726D616C207A
:1035700052756E6177617900C000A40011241FBEEE
:10358000CFEFD1E2DEBFCDBF00E00CBF13E0A0E083
:10359000B2E0EAEEFEE602E00BBF02C007900D9239
:1035A000AE3EB107D9F728E1AEEEB3E001C01D92FF
:1035B000A938B207E1F71AE1CDEBDAE100E006C085
:1035C00021970109802FFE010F94D736CC3BD107FC
:1035D00080E00807A9F70F942F230D9464370C940B
:1035E0000000CF93DF93EC0120E030E0A901688177
:1035F00079818A819B810F94A42F87FF04C0188250
:1036000019821A821B8220E030E0A9016C817D8141
:103610008E819F810F94A42F87FF04C01C821D827E
:103620001E821F8220E030E04CE553E468817981FE
:103630008A819B810F940236181644F480E090E052
:10364000ACE5B3E488839983AA83BB8320E030E0B0
:103650004CE553E46C817D818E819F810F9402360D
:10366000181644F480E090E0ACE5B3E48C839D83CD
:10367000AE83BF8320E030E0A901688579858A8523
:103680009B850F94A42F87FF04C0188619861A867D
:103690001B8620E030E042E853E4688579858A851E
:1036A0009B850F940236181644F480E090E0A2E85F
:1036B000B3E488879987AA87BB87DF91CF91089564
:1036C0002E9A9FB7F894EBE0F1E0808182608083CE
:1036D0009FBF0895429AEFEBFDE01082179A118286
:1036E000159A1282EDCFCF92DF92EF92FF92CF9395
:1036F000DF936B017C01EA0129E134E040E051EC09
:103700000F94023687FD23C022E430E04CE553E4F9
:10371000C701B6010F94A42F1816CCF0C880D98029
:10372000EA80FB8029E134E040E051ECC701B601BA
:103730000F94023687FD0BC0C1E022E430E04CE577
:1037400053E4C701B6010F94A42F18160CF4C0E07F
:103750008C2FDF91CF91FF90EF90DF90CF90089565
:10376000CF92DF92EF92FF9260911A0670911B0642
:10377000072E000C880B990B0F94AA2F6B017C016C
:103780002DEB37E346E855EB0F94023687FD0BC06F
:103790002DEB37E346E855E3C701B6010F94A42F9C
:1037A00018160CF043C0A701960160E070E080E8B5
:1037B0009FE30F94B8346093A6057093A705809398
:1037C000A8059093A90560911C0670911D06072E0F
:1037D000000C880B990B0F94AA2F6B017C012DEB29
:1037E00037E346E855EB0F94023687FD0AC02DEB10
:1037F00037E346E855E3C701B6010F94A42F181626
:10380000CCF4A701960160E070E080E89FE30F949C
:10381000B8346093AA057093AB058093AC05909380
:10382000AD05FF90EF90DF90CF90089560E070E0DD
:10383000CB01C1CF60E070E0CB01EBCF809A8898DC
:103840000895089590E080E008958FB7F8949091DE
:10385000810520918005291769F0E92FF0E0E050FB
:10386000FB4F208130E09F5F9F77909381058FBF52
:10387000C90108952FEF3FEFFACF80E1E7E3F4E1CC
:10388000A8E0BEE001900D928A95E1F7089580E1ED
:10389000E8E0FEE0A7E3B4E101900D928A95E1F73C
:1038A00008950F931F93CF93DF93EC010F94800241
:1038B0000E811F81288539850115110521053105E6
:1038C00079F52C85222339F1EA8521502C8721E0D6
:1038D0002E0F2A873D85231301C01A86F0E031960A
:1038E000EE0FFF1FEE0FFF1FEC0FFD1F028513856C
:1038F000248535850A831B832C833D83600F711FCC
:10390000811D911D6E837F83888799878C819D811E
:10391000892B09F05B9ADF91CF911F910F91089548
:10392000601B710B820B930B97FDF5CF5B981E828A
:103930001F8218861986EFCFCF92DF92EF92FF9207
:103940001F93CF93DF9300D01F92CDB7DEB7182F10
:10395000662351F01092D6041092D2041092D30430
:103960001092D4041092D5040F948002AB01BC01D4
:103970008091D2049091D304A091D404B091D50445
:103980006A017B01C81AD90AEA0AFB0AD701C601F3
:10399000B7FD37C017FD41C08091D604212F012EFD
:1039A000000C330B2C5F3F4FE82F082E000CFF0B51
:1039B0002E173F0734F1811784F180E991E0A0E0F0
:1039C000B0E0840F951FA61FB71F8093D204909379
:1039D000D304A093D404B093D50480ED97E09C83E6
:1039E0008B838CE291E09A838983BE016D5F7F4F68
:1039F000CE0101960E94DAF68091D6048F5F809303
:103A0000D6040F900F900F900F90DF91CF911F91E0
:103A1000FF90EF90DF90CF90089584EC99E0A0E0C4
:103A2000B0E0CFCFEF920F931F93CF93DF93CDB73B
:103A3000DEB760970FB6F894DEBF0FBECDBF6D87BF
:103A40007E878F87988BE8E0FEE080859185A28550
:103A5000B3854481558166817781008111812281FE
:103A6000338109831A832B833C834D835E836F8369
:103A7000788789879A87AB87BC87AE01475F5F4F9E
:103A8000BE016B5F7F4FCE0101960E946AF2E12C6E
:103A90008E01035F1F4F24E13EE0AE01475F5F4FA1
:103AA000BE016B5F7F4FCE0101960E9403ED6096D1
:103AB0000FB6F894DEBF0FBECDBFDF91CF911F913F
:103AC0000F91EF900895CF92DF92EF92FF92CF93F4
:103AD000DF936A017B01C7E3D4E120912102309199
:103AE00022024091230250912402FC0160817181E5
:103AF000828193810F94B8342C853D854E855F85F6
:103B00000F94DC336C877D878E879F87B6DEC70175
:103B1000B60188DFDF91CF91FF90EF90DF90CF90DB
:103B20000C947CDFEF920F931F93CF93DF93CDB76D
:103B3000DEB72C970FB6F894DEBF0FBECDBFE7E31C
:103B4000F4E180859185A285B385448155816681A4
:103B50007781008111812281338109831A832B832C
:103B60003C834D835E836F83788789879A87AB8791
:103B7000BC87AE01475F5F4FBE016B5F7F4FCE01D9
:103B800001960E946AF2E12C02E612E023E434E19D
:103B9000AE01475F5F4FBE016B5F7F4FCE01019665
:103BA0000E9403ED2C960FB6F894DEBF0FBECDBF7A
:103BB000DF91CF911F910F91EF9008958091630451
:103BC00090916404009731F04AE050E070E060E0CA
:103BD0000D94C22C60E070E0CB010895EFDF97FDFB
:103BE0000AC0ECDF6F3F71058105910509F02CF4E7
:103BF000E5DF862F089580E008958FEF0895809186
:103C0000630490916404892B39F0E8DF91E081111D
:103C100001C090E0892F089591E0FCCF809163046A
:103C200090916404009731F04AE050E070E060E069
:103C30000D94ED2D60E070E0CB01089580910E0DA4
:103C400082FF0BC063E685E192E00F94D20E0E94E2
:103C50002DA30F94720E81E0089580E008952F92B5
:103C60003F924F925F926F927F928F929F92AF920C
:103C7000BF92CF92DF92EF92FF920F931F93CF9359
:103C8000DF93CDB7DEB76D970FB6F894DEBF0FBEEA
:103C9000CDBF9A8F898F7C8F6B8F312C212C2FEF8A
:103CA00028873FEF3F838FEF888B9FE4998BE3EC6E
:103CB000EA8BF7E4FB8B21E030E0022C02C0220FFC
:103CC000331F0A94E2F7388F2F8B8EE294E09B87A4
:103CD0008A8710E000E02D8EEA85FB858191919125
:103CE000FB87EA872F89388D82239323892B09F05C
:103CF000EBC080911A0690911B06289EB001299E68
:103D0000700D389E700D1124809116069091170643
:103D1000680F791F072E000C880B990B0F94AA2FA0
:103D20006C877D878E879F8780911C0690911D06EA
:103D3000089FB001099F700D189F700D112480918C
:103D4000180690911906680F791F072E000C880B32
:103D5000990B0F94AA2F6B017C012C853D854E8514
:103D60005F85E98DFA8D60817181828193810F94E5
:103D7000DB332B013C01A7019601EB8DFC8D6081AB
:103D80007181828193810F94DB334B015C01A3012C
:103D90009201C301B2010F9409302B013C01A5012E
:103DA0009401C501B4010F9409309B01AC01C3011A
:103DB000B2010F94DC330F9447364B015C012C8524
:103DC0003D854E855F8560915204709153048091CA
:103DD0005404909155040F94DB332B013C01A7014F
:103DE000960160914E0470914F048091500490911F
:103DF00051040F94DB336B017C01A3019201C301D9
:103E0000B2010F9409302B013C01A7019601C701B3
:103E1000B6010F9409309B01AC01C301B2010F94AC
:103E2000DC330F94473620E030E040E751E40F9454
:103E3000B834A50194010F94DC336B017C018090B0
:103E4000560490905704A0905804B090590420E074
:103E500030E040E85FE3C501B4010F940236181664
:103E6000F4F4C501B4010F9420354B015C0160E00E
:103E700070E0CB01181419041A041B0434F40F94D5
:103E8000152BA50194010F94A0330F94AA2F9B0129
:103E9000AC01B601C7010F94DC336B017C012889AA
:103EA00039894A895B89B601C7010F94A42F87FF1E
:103EB0000BC0FD8DF8870F83C986DC8AED8AFE8AE8
:103EC000C88AD98AEA8AFB8A0F5F1F4F033011051F
:103ED00009F002CF2FEF221A320A33E02316310401
:103EE00009F0E9CE8F81E82FF0E0EE0FFF1FE25DD1
:103EF000FB4F21E030E0088402C0220F331F0A94F8
:103F0000E2F780819181822B932B91838083898535
:103F10009C89AD89BE898B839C83AD83BE83482FEA
:103F20005C816D817E8128853F8180E090E06D9687
:103F30000FB6F894DEBF0FBECDBFDF91CF911F91BA
:103F40000F91FF90EF90DF90CF90BF90AF909F9038
:103F50008F907F906F905F904F903F902F9008953B
:103F60004F925F926F927F928F929F92AF92BF9289
:103F7000CF92DF92EF92FF92CF93DF93CDB7DEB770
:103F80006A970FB6F894DEBF0FBECDBF9A8F898FA8
:103F90005B014A01FC01FF966081718182819381FE
:103FA0000F94A82F6B017C01D5012D913D914D916E
:103FB0005C910F9409300F94A2340F9425353B0186
:103FC0005C01F4012081318142815381C701B60136
:103FD0000F9409300F94A2340F9425356D827E82A0
:103FE000AF82B8862D813E814F81588528373105B3
:103FF0004105510540F428E730E040E050E02D83D2
:104000003E834F83588769837A838B839C8389811E
:104010009A81AB81BC8188379105A105B10540F437
:1040200028E730E040E050E029833A834B835C830B
:10403000E98DFA8DE55BFF4F80819181A281B3818B
:104040008D879E87AF87B88BBC01CD010F94AA2FB7
:1040500069877A878B879C876D817E818F81988520
:104060000F94A82F698B7A8B8B8B9C8B20E030E090
:10407000A90169857A858B859C850F94A42F882357
:1040800009F437C1A7019601C701B6010F940930A1
:104090004B015C0129893A894B895C89CA01B901C4
:1040A0000F9409309B01AC01C501B4010F94DB33BF
:1040B0004B015C0129853A854B855C85CA01B901B4
:1040C0000F94DC339B01AC01C501B4010F94B834EB
:1040D0000F94A2340F9420352B013C016D857E8511
:1040E0008F85988990958095709561957F4F8F4FBA
:1040F0009F4F0F94AA2F4B015C0169817A818B81BC
:104100009C810F94A82F6D877E878F87988B20E0E6
:1041100030E0A901C501B4010F94A42F882309F44C
:10412000ECC02D853E854F855889CA01B9010F9491
:1041300009306D8B7E8B8F8B988FA7019601C701FD
:10414000B6010F9409309B01AC016D897E898F897E
:10415000988D0F94DB336B017C01A5019401C5019F
:10416000B4010F94DC339B01AC01C701B6010F947D
:10417000B8340F945135A98DBA8D52968D909D907B
:10418000AD90BC90559775016401C418D508E60838
:10419000F7080F942035C61AD70AE80AF90AF7FE7D
:1041A00067C020E030E0A90169857A858B859C8510
:1041B0000F94A42F882309F4A4C0C501B4010F945F
:1041C000A82F6B017C0129853A854B855C85CA0146
:1041D000B9010F94DC339B01AC01C701B6010F9408
:1041E00009306B017C0129893A894B895C89CA01B4
:1041F000B9010F9409309B01AC01C701B6010F94BE
:10420000DB336B017C012D853E854F855889CA01C2
:10421000B9010F9409309B01AC01C701B6010F949D
:10422000DC336B017C0120E030E040E850E469853C
:104230007A858B859C850F9409309B01AC01C70161
:10424000B6010F94B8340F94A2340F9420352B018B
:104250003C0177FE03C0412C512C32014814590413
:104260006A047B0410F024013501C12CD12C7601A5
:104270008FB7F894E98DFA8D908193FD24C0DF010A
:10428000468E578E60A271A2C40CD51CE61CF71C8A
:10429000C2A2D3A2E4A2F5A2ED5BFF4F2D813E8125
:1042A0004F8158852083318342835383AD01495B1D
:1042B0005F4FDA0129813A814B815C812D933D93D7
:1042C0004D935C9313978FBF6A960FB6F894DEBF39
:1042D0000FBECDBFDF91CF91FF90EF90DF90CF90D9
:1042E000BF90AF909F908F907F906F905F904F9016
:1042F000089560E070E0CB01EBCE60E070E0CB01B0
:1043000038CF60E070E0CB019ECF8F929F92AF924A
:10431000BF92CF92DF92EF92FF92CF93DF93EC01A7
:104320008090F80D9090F90DA090FA0DB090FB0DD3
:1043300020E030E0A901C501B4010F94A42F882327
:1043400009F454C0C880D980EA80FB80A701960197
:10435000C501B4010F94A42F18160CF04CC0209185
:10436000EF0D3091F00D4091F10D5091F20DC7011C
:10437000B6010F94A42F882331F1C092EF0DD09293
:10438000F00DE092F10DF092F20D2091F30D3091CD
:10439000F40D4091F50D5091F60D688179818A8177
:1043A0009B810F9409309B01AC0160E070E080E8D4
:1043B0009FE30F94DB336093130270931402809396
:1043C000150290931602609113027091140280916D
:1043D000150290911602DF91CF91FF90EF90DF9040
:1043E000CF90BF90AF909F908F90089560E070E065
:1043F00080E89FE3F0CF60E070E0CB01ECCFCF939B
:10440000DF93E091890BF0918A0B82819381A481E3
:10441000B581181619061A061B06ECF480913806A9
:1044200080FF19C08091230690B19695969590953E
:1044300090FB80F9982F809323068091220681704B
:10444000892349F08091EE0D81608093EE0D90E01C
:1044500080E00E9434DFE091890BF0918A0B868125
:104460009781A085B185181619061A061B0644F512
:104470008091380681FF24C08091230690B19295E7
:1044800096959695937021E092279170C92F90E0B0
:10449000D92FD195C195D109C827C270DD278C27A6
:1044A00080932306C0912206C270C82349F08091F0
:1044B000EE0D82608093EE0D81E090E00E9434DF8B
:1044C000E091890BF0918A0B82859385A485B5854F
:1044D000181619061A061B0634F58091380682FF55
:1044E00022C08091960D8823F1F02091230686B199
:1044F000082E000C990B990F880B982F8227847037
:104500009927922F982790932306809122068470F2
:10451000892349F08091EE0D84608093EE0D82E056
:1045200090E00E9434DF8091230680932206DF9181
:10453000CF910895AF92BF92CF92DF92EF92FF9208
:104540000F931F93CF93DF931F92CDB7DEB76C010C
:104550008B0159018091F10581111BC07B01E40E93
:10456000F51EF601808191810F9459338983F801FA
:1045700081938F01BE016F5F7F4FC5010E949DFB3C
:10458000F60180819181019691838083E016F10686
:1045900041F70F90DF91CF911F910F91FF90EF9016
:1045A000DF90CF90BF90AF900895FC0120E03EE2F5
:1045B000DB014D91BD01403249F0283011F43083C8
:1045C0003196DB0111974C91408331962F5F2B3050
:1045D00079F71082089561E0FC0180810C94ADFEB2
:1045E0008EBD0DB407FEFDCF08958FEF8EBD0DB4C7
:1045F00007FEFDCF8EB508958F929F92AF92BF9226
:10460000EF92FF920F931F93CF937C01C62F490126
:104610005A01FC019281892F806A86958CBD90FD9C
:1046200003C081E0963009F480E08DBD60E0F701C1
:1046300080810E94ADFE8CE291E00F94F5038C2FF7
:104640008064CEDF08E110E0D501C401002E04C073
:10465000B695A795979587950A94D2F7C1DF08502C
:104660001109083FFFEF1F0779F785E9CC2321F0F7
:1046700087E8C83009F08FEFB3DFCC3009F4B5DF3D
:10468000C0E0B3DFF701838387FF04C0CF3F11F0A1
:10469000CF5FF7CFCF911F910F91FF90EF90BF9019
:1046A000AF909F908F9008950F931F93CF93DF93B8
:1046B000EC0189018C81833039F089E0440F551F6A
:1046C000661F771F8A95D1F79A01AB0168E1CE0189
:1046D00093DF882319F086E0898335C08EEF8EBD85
:1046E000F801C8019E5F0DB407FEFDCF20812EBDED
:1046F0000DB407FEFDCF21812EBD3296E817F907D4
:1047000091F70DB407FEFDCF8FEF6ADF8FEF68DF03
:104710006CDF8B838F71853091F488E592E00F9484
:10472000F503182F87E11123B9F220E030E0A90149
:104730006DE0CE0161DF882351F086E1CDCF83E1CA
:104740008983CE0148DFCE0146DF10E005C04DDF92
:104750008111F3CFCE013FDF812FDF91CF911F91E8
:104760000F910895CF9380916010C1E0882399F054
:10477000409158105091591060915A1070915B10EF
:1047800028E53EE080916110909162108DDFC82F86
:10479000811104C0C0E08C2FCF91089540915C102E
:1047A00050915D1060915E1070915F104115510540
:1047B0006105710589F028E53EE0809161109091D6
:1047C000621072DF882331F310925C1010925D103A
:1047D00010925E1010925F1010926010DCCFEF927A
:1047E000FF920F931F93CF93DF93EC0179018C819C
:1047F000833039F089E0440F551F661F771F8A9573
:10480000D1F79A01AB0161E1CE01F6DE882331F0E8
:1048100084E08983CE01DFDE80E034C00F94800223
:104820008B01E3DE8B838F3F71F40F948002601B5A
:10483000710B6D327140A8F381E18983CE01CBDE2B
:104840008FEFCEDEE9CF8E3F11F08FE0F6CF8FEF06
:104850008EBDF701D701A150BE4F0DB407FEFDCFAD
:104860009EB591938EBDAE17BF07B9F70DB407FE85
:10487000FDCF8EB58C93B9DEB8DECE01ACDE8FEF06
:10488000AFDE81E0DF91CF911F910F91FF90EF900C
:104890000895CF92DF92EF92FF92CF936B017C014C
:1048A000C42F8091581090915910A0915A10B09136
:1048B0005B108C159D05AE05BF05F1F053DF81112E
:1048C00008C0C0E08C2FCF91FF90EF90DF90CF9089
:1048D000089528E53EE0B701A6018091611090910E
:1048E00062107DDF882369F3C0925810D09259106E
:1048F000E0925A10F0925B10CC2321F081E080937B
:104900006010E0CFC1E0DECF4F925F926F927F9256
:104910008F929F92AF92BF92CF92DF92EF92FF92CF
:104920000F931F93CF93DF93EC0142305105610544
:10493000710590F480E0DF91CF911F910F91FF906E
:10494000EF90DF90CF90BF90AF909F908F907F902F
:104950006F905F904F90089589859A85AB85BC854F
:104960000196A11DB11D84179507A607B70710F37F
:104970008F898031C1F5852E962EA72EBB248B8979
:104980009C89AD89BE89880E991EAA1EBB1E28016E
:1049900039016A017B0141E0C501B4017ADF882356
:1049A00049F29F89903181F5DD24EE24FF24F60140
:1049B000EE0FFF1FE85AF14F118300839A8992305E
:1049C00008F4B9CF4D815E816F817885840E951E84
:1049D000A61EB71E80925C1090925D10A0925E1091
:1049E000B0925F10A8CF803209F0A4CF8B899C8948
:1049F000AD89BE894A015B01E7E0B694A79497941C
:104A00008794EA95D1F7BFCFE894C7F8DD24EE2468
:104A1000FF24F601EE0FFF1FEE0FFF1FE85AF14FC4
:104A20004082518262827382C9CFCF92DF92EF922D
:104A3000FF920F931F93CF93DF93FC0181859285A3
:104A4000A385B4850196A11DB11D84179507A607FE
:104A5000B70750F480E0DF91CF911F910F91FF9045
:104A6000EF90DF90CF90089587898031A9F5BB271B
:104A7000A72F962F852FC388D488E588F6888C0DBC
:104A80009D1DAE1DBF1DE9016A017B018F01409193
:104A900058105091591060915A1070915B10841702
:104AA0009507A607B70749F5F8018789803161F5B1
:104AB000B701A601552766277727440F551F485A87
:104AC000514FFA0180819181B0E0A0E08883998301
:104AD000AA83BB8381E0BFCF803209F0BBCFC388FC
:104AE000D488E588F688DB01CA01C7E0B695A795AA
:104AF00097958795CA95D1F7C2CF40E0BC01CD010B
:104B0000C8DE8111D1CFA6CFB701A6014F775527B7
:104B100066277727440F551F440F551F485A514F9A
:104B2000FA0180819181A281B381BF70CFCF4F9272
:104B30005F926F927F92AF92BF92CF92DF92EF928D
:104B4000FF920F931F93CF93DF9300D01F92CDB7A7
:104B5000DEB78C0149835A836B837C835901C12C56
:104B6000D12C7601412C82E0582E612C712C498188
:104B70005A816B817C819E012F5F3F4FC80155DFB9
:104B8000882319F1F8018585A301920104C0220F41
:104B9000331F441F551F8A95D2F7DA01C901C80E89
:104BA000D91EEA1EFB1E49815A816B817C8187894F
:104BB0008031F1F481E0483F5F4F61057105B8F243
:104BC000F501C082D182E282F3820F900F900F90A4
:104BD0000F90DF91CF911F910F91FF90EF90DF9099
:104BE000CF90BF90AF907F906F905F904F9008955F
:104BF00081E0483F5F4F6F4F7F4008F4B8CFE0CF70
:104C00000F931F93CF93DF93FC012381222331F075
:104C100080E0DF91CF911F910F9108958B01EC01FE
:104C2000FB018789803139F582E08B831D8A1E8ADA
:104C30001F8A188E808D918DB0E0A0E025E0880F4E
:104C4000991FAA1FBB1F2A95D1F7898B9A8BAB8B13
:104C5000BC8B1A8F098F81E08983188619861A8682
:104C60001B861C821D821E821F82188A1C861D863E
:104C70001E861F86CECF803259F683E08B83428D0D
:104C8000538D648D758D4D8B5E8B6F8B788F9E01F0
:104C90002F5E3F4FC8014BDF8111DBCFB9CF8F9221
:104CA0009F92AF92BF92CF92DF92EF92FF920F93BB
:104CB0001F93CF93DF93EC018B8181110EC080E0B5
:104CC000DF91CF911F910F91FF90EF90DF90CF90E8
:104CD000BF90AF909F908F90089509891A892B8972
:104CE0003C89041715072607370748F34A015B017B
:104CF000823031F488869986AA86BB8681E0E0CF2F
:104D000081149104A104B10449F4188619861A8605
:104D10001B861C821D821E821F82F0CF088519858A
:104D20002A853B85E98DFA8D858590E00996B90144
:104D3000A8014150510961097109082E04C07695F6
:104D40006795579547950A94D2F775016401E1E09C
:104D5000CE1AD108E108F10804C0F694E794D7947C
:104D6000C7948A95D2F7C416D506E606F70620F052
:104D7000012B022B032B09F58D899E89AF89B88DF4
:104D80008C839D83AE83BF838E010C5F1F4FC11444
:104D9000D104E104F10409F4ADCF4C815D816E8151
:104DA0007F819801898D9A8D40DE91E0C91AD108E2
:104DB000E108F1088111EBCF82CFC41AD50AE60AC7
:104DC000F70AE2CF40E050E0BA0169CF3F924F923C
:104DD0005F926F927F928F929F92AF92BF92CF928B
:104DE000DF92EF92FF920F931F93CF93DF93CDB794
:104DF000DEB72C970FB6F894DEBF0FBECDBF5C01B7
:104E0000DC0159968D909C90F40181859285A38553
:104E1000B4859C01AD012F5F3F4F4F4F5F4F2987F6
:104E20003A874B875C87D50114964D905D906D90C5
:104E30007C901797411451046104710409F458C01F
:104E4000BFEF4B1A5B0A6B0A7B0A312C73016201BC
:104E50001D821E821F821886F40181859285A3859A
:104E6000B4852D813E814F815885281739074A071F
:104E70005B0708F054C089859A85AB85BC858C1585
:104E80009D05AE05BF0550F482E0C82ED12CE12C63
:104E9000F12C92E0492E512C612C712C9E012F5F38
:104EA0003F4FB701A601C401C0DD8823C1F189814C
:104EB0009A81AB81BC81892B8A2B8B2B01F1260136
:104EC00037019FEF491A590A690A790A2D813E81F3
:104ED0004F8158852F5F3F4F4F4F5F4F2D833E834C
:104EE0004F8358873FEFC31AD30AE30AF30AB4CFBC
:104EF000408051806280738033243394A7CFC414E0
:104F0000D504E604F70411F70FEF1FEF2FEF3FE092
:104F1000B701A601C401F8DC782E81111AC0712CEA
:104F2000872D2C960FB6F894DEBF0FBECDBFDF9154
:104F3000CF911F910F91FF90EF90DF90CF90BF9096
:104F4000AF909F908F907F906F905F904F903F9029
:104F50000895F50144815581668177814115510598
:104F60006105710531F097018601C401CDDC88230C
:104F7000B1F2D5011496CD92DD92ED92FC92179785
:104F8000332051F0D701C6010196A11DB11DF401D6
:104F900080839183A283B383F50185899689A7894C
:104FA000B08D892B8A2B8B2B09F0BACFC58AD68A74
:104FB000E78AF08E818180688183B2CFCF93DF93BF
:104FC000EC01462F41706C857D858E859F8561DC67
:104FD000882351F0888920E2829FC0011124885AD9
:104FE000914FDF91CF91089590E080E0FACFCF9379
:104FF000DF93EC018B81882339F1898187FF21C000
:1050000061E0CE01DBDFFC01892BF1F08081853E80
:10501000D9F08B81823040F489899A89AB89BC8927
:10502000848F958FA68FB78F8D899E89938F828F5E
:105030008D899E89AF89B88DB58BA48B89818F7737
:105040008983DF91CF918ECB81E0888380E0DF91EF
:10505000CF9108952F923F924F925F926F927F92DD
:105060008F929F92AF92BF92CF92DF92EF92FF9278
:105070000F931F93CF93DF9300D01F92CDB7DEB76E
:105080008C014B011A01DC0113968C91139781302E
:1050900009F0C7C011968C9181FFC3C082FDAEC0DC
:1050A0006101D80118964D915D916D917C911B978E
:1050B000C114D10409F414C159968D919C915A9749
:1050C000FC0174802FEF270D2A013B0139E0769413
:1050D0006794579447943A95D1F7722E74207A01C9
:1050E000F1E0FF2271101FC0E114F104E1F4149605
:1050F0004D915D916D917C91179741155105610519
:10510000710509F094C055968D919D910D90BC91BB
:10511000A02D0097A105B10509F0A1C0C80156DE78
:10512000882309F47EC080E092E08E199F09560121
:105130008C159D0508F45C01D80159964D915C9140
:105140005A9714968D919D910D90BC91A02D029728
:10515000A109B109FA01258504C0880F991FAA1F6A
:10516000BB1F2A95D2F74685578560897189840FC0
:10517000951FA61FB71F9C01AD01270D311D411DB5
:10518000511D29013A01A11432E0B30609F075C09E
:105190008091581090915910A0915A10B0915B10C5
:1051A000481659066A067B0669F4109260108FEF64
:1051B0009FEFDC018093581090935910A0935A10E0
:1051C000B0935B109401B301A201809161109091A2
:1051D00062106ADA882329F1F80180859185A28519
:1051E000B3858A0D9B1DA11DB11D80879187A28764
:1051F000B3878A0C9B1CCA18DB0853CFF80141897E
:1052000052896389748980859185A285B385481701
:1052100059076A077B0709F443CFC80140DD8111B4
:105220003FCF81E0D8018C938FEF9FEF6FC09E013D
:105230002F5F3F4FFADB8823A1F389819A81AB81ED
:10524000BC81F801218D328DF9012789203169F463
:10525000883FFFEF9F07A105B10508F05FCFF80178
:1052600084839583A683B7835ECF883F2FEF920711
:10527000A2072FE0B20798F351CFE114F10449F5EA
:10528000D80118964D915D916D917C911B97519627
:105290008D919D910D90BC91A02D481759076A07DB
:1052A0007B07B8F05FDA882309F4BBCF81E08093F5
:1052B0006010409258105092591060925A1070929B
:1052C0005B10A501B401C701885A914F0F94FA36BB
:1052D00083CF41E0C301B201DCDA8111F2CFA1CF6B
:1052E000F80181899289A389B48984179507A60753
:1052F000B70738F48181418B528B638B748B806844
:105300008183F801818183FD18C0C1010F900F9046
:105310000F900F90DF91CF911F910F91FF90EF9021
:10532000DF90CF90BF90AF909F908F907F906F90C5
:105330005F904F903F902F900895C80158DE8111E3
:10534000E4CF6FCFCF93DF931F92CDB7DEB76983E2
:1053500041E050E0BE016F5F7F4F04967BDE0F900F
:10536000DF91CF910895CF93DF93EC0140DE1B8254
:10537000DF91CF910895FC0123812111F4CF08958D
:10538000CF93DF93EB01FC012381211104C080E066
:10539000DF91CF9108952250223028F48FE2888344
:1053A000198281E0F5CF60E009DE009781F3DC012E
:1053B00060E080E09EE22D91203299F0883031F457
:1053C0009E01260F311DF90190836F5F9E01260F0C
:1053D000311DAD0141505109FA014081F90140836D
:1053E0006F5F8F5F8B3039F7FE01E60FF11D108282
:1053F000D8CF0F931F93CF93DF938B01EA01DB018B
:105400006D917C910496BCDFD801ED91FC911197D0
:1054100088819081992349F08D38A0F43196ED93DD
:10542000FC9388818F5F8883EFCF8D3858F48FE2AB
:105430008083F801808191810196918380838881A6
:105440008F5F8883DF91CF911F910F9108952F92E5
:105450003F924F925F926F927F928F929F92AF9204
:10546000BF92CF92DF92EF92FF920F931F93CF9351
:10547000DF9300D01F92CDB7DEB79C838B834B01A7
:105480007A01DC0113968C91811119C08FEF9FEF87
:105490000F900F900F900F90DF91CF911F910F9170
:1054A000FF90EF90DF90CF90BF90AF909F908F9044
:1054B0007F906F905F904F903F902F900895EB8179
:1054C000FC81818180FFE2CF01891289238934899F
:1054D0004085518562857385C701B0E0A0E0280151
:1054E0003901441A550A660A770A481659066A06A7
:1054F0007B0618F47801E41AF50A67018B819C8118
:1055000004969A838983612C32E0732EC114D104EE
:1055100009F4B4C0AB81BC8118964D915D916D9139
:105520007C911B975A01B1E0BB22EB81FC81818DFC
:10553000928D1A012B0129E05694479437942794B1
:105540002A95D1F72381223089F5DC015A966D9195
:105550007D918D919C915D97620D731D841D951DAC
:1055600083010A191B09C016D10608F4860101152A
:10557000B2E01B0771F420915810309159104091FE
:105580005A1050915B10621773078407950709F052
:1055900057C040E07ED9882309F478CFB501685A16
:1055A000714FA801C4010F94FA3655C0FC01148153
:1055B00011501221A114B10481F411110EC0452B18
:1055C000462B472B79F5EB81FC8185899689A78944
:1055D000B08D84839583A683B783AB81BC815996B4
:1055E000ED91FC915A9714966D917D918D919C91BE
:1055F00017976250710981099109258504C0660FCA
:10560000771F881F991F2A95D2F7268537854089ED
:105610005189620F731F841F951F610F711D811DBA
:10562000911D9ECFAB81BC8114964D915D916D9182
:105630007C91179729813A81F8D98111CECF26CF55
:105640009401AB01BC018091611090916210C7D8A8
:10565000882309F41BCF800E911EEB81FC8180858D
:105660009185A285B385800F911FA11DB11D8087F3
:105670009187A287B387C01AD10A48CFC70108CF44
:10568000DF92EF92FF920F931F93CF93DF938C01E2
:10569000EB017A018DE0D82E40E250E0BE01C80156
:1056A000D6DE8032910571F021E0892B09F420E0EB
:1056B000822F8195DF91CF911F910F91FF90EF90F5
:1056C000DF90089528812223C1F1253E29F32E324F
:1056D00019F3E114F10439F13B853F733F3019F5BB
:1056E0004A8D5B8D452BF9F42F713FEF320F35302A
:1056F000D0F42150330BD29EC001D39E900D1124C3
:10570000D701A80FB91FFE0120E0AD01253078F4C4
:1057100031813D932F5F32962D30C1F7288126FFCE
:1057200002C0FA0115862B8523FDB6CFC3CF2B30DF
:1057300010F43481EECF3681ECCF80E0BBCF4F92B6
:105740005F926F927F92AF92BF92CF92DF92EF9271
:10575000FF920F931F93CF93DF931F92CDB7DEB7C6
:105760008C017B015A01C22EDB0159968D919C91CF
:10577000F801928F818FCB0125DB712CF701808599
:105780009185A285B385418952896389748984177B
:105790009507A607B70708F051C055E0B695A7953D
:1057A000979587955A95D1F7F82FFF70DF2ED7017F
:1057B00013968C91823010F480E0D9C041E050E023
:1057C000BE016F5F7F4FC70142DE0197A9F7F70166
:1057D00080859185A285B3854F96A11DB11D8087D7
:1057E0009187A287B387F0E2DF9EB0011124685A47
:1057F000714F6115710501F3DB018C91882341F034
:10580000853E09F04BC0772029F077247394B6CFFA
:1058100071100EC08091581090915910A0915A109B
:10582000B0915B10F80184879587A687B787D08AE7
:10583000DB018C918111E9CF772473948C2D8274D4
:10584000823409F0B9CF772009F4A1C0F801D088DB
:1058500061E0C801B3DB009709F4AECF20E2DC01C0
:105860001D922A95E9F72BE0F501DC0101900D92DC
:105870002A95E1F721E238E2FC01318B208B40E0F0
:1058800058E057874687338B228B318F208F578B79
:10589000468B0E94B223811109C08ECF4BE050E0AD
:1058A000C5010F94ED36892B09F068CFF0E2DF9E39
:1058B000D00111249D01285A314FF901838581714E
:1058C00021F08C2D827109F0FAC0F801818D928D42
:1058D000409158105091591060915A1070915B107E
:1058E0004487558766877787D08AFD01E85AF14F4C
:1058F00044885588712C612C320155244424D801E8
:1059000055964D925D926D927C925897428D538D33
:1059100070E060E0442955296629772955964D9312
:105920005D936D937C935897D9011B962C912871A8
:1059300009F0B8C0848D958DA68DB78DF801818B47
:10594000928BA38BB48B81E083838C2D8F70F801B5
:105950008183148215821682178210861186128620
:10596000138681E0C4FE03C0C8010E948FF80F9027
:10597000DF91CF911F910F91FF90EF90DF90CF902B
:10598000BF90AF907F906F905F904F900895D70138
:1059900013968C911397823009F40ECF51968D9106
:1059A0009D910D90BC91A02D803E9F4FAF41B105C0
:1059B00008F002CFC7010ADA882309F4FDCE0E945D
:1059C000B223882309F4F8CED7015996ED91FC91C2
:1059D0005A9714964D905D906D907C901797B2E019
:1059E0004B1A510861087108858504C0440C551C88
:1059F000661C771C8A95D2F786859785A089B18920
:105A0000480E591E6A1E7B1E81E0809360104092F2
:105A100058105092591060925A1070925B10E8E53D
:105A2000FEE080E092E0DF019C011D9221503040B9
:105A3000E1F7DD24D394D7015996ED91FC9184814F
:105A4000D81698F428E53EE0B301A2014D0D511D92
:105A5000611D711D80916110909162100E9454230C
:105A6000882309F4A9CED394E6CF258580E092E07F
:105A7000A0E0B0E004C0880F991FAA1FBB1F2A95A1
:105A8000D2F7F7014189528963897489840F951F80
:105A9000A61FB71F818B928BA38BB48B88E59EE0EA
:105AA000D12CDCCE203159F498012F5E3F4F3FD8E6
:105AB000882329F084E0D80113968C9346CFD8012F
:105AC00013961C9279CE2F923F924F925F926F92D3
:105AD0007F928F929F92AF92BF92CF92DF92EF927E
